:020000040800F2
:10000000208800205902000871320008632A000885
:10001000C12C00087F0F0008953D0008000000007B
:100020000000000000000000000000009D0100082A
:10003000950F000800000000F1010008E5340008F9
:1000400073020008730200087302000873020008BC
:1000500073020008730200087302000873020008AC
:10006000730200087302000873020008730200089C
:10007000730200087302000873020008730200088C
:10008000730200087302000873020008730200087C
:10009000850F00087302000873020008730200084D
:1000A000730200087302000873020008730200085C
:1000B000730200087302000873020008730200084C
:1000C000730200087302000873020008730200083C
:1000D00073020008553C0008653C0008E53C000838
:1000E000730200087302000873020008730200081C
:1000F000730200087302000873020008730200080C
:100100007302000873020008353600087302000805
:1001100073020008730200087302000873020008EB
:1001200073020008730200087302000873020008DB
:1001300073020008000000000000000073020008C5
:1001400073020008730200087302000873020008BB
:1001500073020008730200087302000873020008AB
:10016000730200087302000873020008730200089B
:100170007302000873020008000000000000000085
:100180007302000873020008DFF80CD000F0B8FC1E
:100190000048004751640008208800202B4B196854
:1001A0000868B0E8F04F80F30988BFF36F8F4FF015
:1001B000000080F3118870470000000006480068C6
:1001C000006880F3088862B661B6BFF34F8FBFF353
:1001D0006F8F00DF00BF00BF08ED00E0DFF80C000C
:1001E000016841F470010160704700BF88ED00E0D4
:1001F000EFF30980BFF36F8F144B1A681EF0100FD6
:1002000008BF20ED108A20E9F04F106008B44FF0CD
:10021000500080F31188BFF34F8FBFF36F8F08F04A
:10022000EBFC4FF0000080F3118808BC19680868E7
:10023000B0E8F04F1EF0100F08BFB0EC108A80F34A
:100240000988BFF36F8F704700BF00BF9001002087
:10025000EFF30580704700000648804706480047D6
:10026000FEE7FEE7FEE7FEE7FEE7FEE7FEE7FEE766
:10027000FEE7FEE7D1350008890100082DE9F05FAF
:100280000546002092469B46884606468146402405
:100290001BE0284641464746224600F0D0FA534626
:1002A0005A46C01A914110D311461846224600F012
:1002B000B7FA2D1A67EB01084F46224601200021AC
:1002C00000F0AEFA17EB00094E41201EA4F1010424
:1002D000DFDC484631462A464346BDE8F09FA0F1A0
:1002E0004101192900D82030704740EA01039B07DB
:1002F00003D009E008C9121F08C0042AFAD203E09B
:1003000011F8013B00F8013B521EF9D27047D2B2FE
:1003100001E000F8012B491EFBD270470022F6E7EE
:1003200010B513460A4604461946FFF7F0FF20466B
:1003300010BD421E12F8013F002BFBD111F8013B0A
:1003400002F8013B002BF9D1704730B505462A462B
:100350000B4612F8010B13F8014B08B1A042F8D07C
:100360001CB1002802D06D1CF1E7284630BD421CAC
:1003700010F8011B0029FBD1801A7047034611F8C1
:10038000012B00F8012B002AF9D11846704730B52F
:1003900005460020034600E05B1C934205D2EC5C5E
:1003A000C85C201A01D1002CF6D130BD0FB400B5C5
:1003B0008DB010A909900B9000914FF0FF300A907A
:1003C00000200C9005480690054807906A4609A849
:1003D0000F9900F06BFA0DB05DF814FBC908000826
:1003E000E70800082DE9FF5F1D464FF0FF3BD5E908
:1003F000014691465F464FF00008A9697F1C0198AD
:100400008847296A824688470028F6D1BAF1FF3F1B
:100410000CD024F4C064002E19DD600614D5BAF1A6
:100420002B0F09D0BAF12D0F0ED103E0584604B0BE
:10043000BDE8F09F44F48064A9697F1C0198884757
:10044000761E8246002E02DDBAF1300F03D0B9F1DC
:10045000000F26D032E0A969761E44F400747F1C98
:10046000019888478246002E05DDBAF1780F06D044
:10047000BAF1580F03D0B9F1000F10D01EE0B9F156
:10048000000F02D0B9F1100F18D1A969761E24F41B
:1004900000747F1C019888478246102002E00820E3
:1004A00000E00A20814609E008FB0908A969761ED8
:1004B00044F400747F1C019888478246002E05DDB5
:1004C0004946504600F0DDF90028EDDAE969019867
:1004D0008847A00502D46FF00100A8E7E00725D106
:1004E000600613D5600502D5C8F1000000E0404663
:1004F00029680A1D2A600968220501D5087015E0DF
:10050000220701D5088011E008600FE02868011D6E
:1005100029600068210502D580F8008006E02107E7
:1005200002D5A0F8008001E0C0F8008038467EE7E0
:100530002DE9FE4F804681EA0300C00F0C46009073
:1005400021F0004123F00045B8EB0200A94105D29B
:100550004046214690461C460B46024623F000408A
:10056000104347D0270DC7F30A00C3F30A51029086
:10057000401A019040286BDAC3F3130040F4801B4B
:100580000098924620B10023D2EB030A63EB0B0BD9
:1005900001985946C0F14002504600F041F9064624
:1005A0000D4650465946019A00F059F910EB0800E3
:1005B0006141002487EA115284EAE7731A4340D06C
:1005C000009A62B3019A012A4FEA075215DC001B18
:1005D00061EB02014FF0004202EA0752CDE900420E
:1005E000001C41F5801132462B4600F09CF903B007
:1005F000BDE8F08F40462146F9E7001B61EB0201A0
:10060000001C41F5801300185B412018A2F500176B
:1006100047EB030140EAD570B6196D4111E06D0852
:100620004FEA360645EAC0754FEA0752001B61EBF8
:100630000201001C41F5801149084FEA3000001901
:10064000514132462B4603B0BDE8F04F00F05CB993
:100650000098012240000023D0EB020263EBE0731C
:10066000009821464FEAE074B8EB000061EB04010A
:10067000E9E783F000435BE781F0004158E72DE9AB
:10068000FE4F81EA030404F0004421F0004100948D
:100690004FF0000B23F0004350EA01045ED052EA11
:1006A00003045BD0C3F30A54C1F30A552C44A4F2EB
:1006B000F3340194A0FB0254C1F3130141F48011FF
:1006C000C3F3130343F4801301FB024400FB034E06
:1006D000840A970A44EA815447EA8357A4FB0768CF
:1006E00002958D0A05FB07854FEA932C04FB0C54F9
:1006F0002705029D4FEA065847EA1637B5EB08056D
:100700006EEB070C870E920E47EA811742EA8312BE
:10071000A7FB0201B6EB0B0164EB00042B0D43EACF
:100720000C335E1844EB1C50DA465146E7FB0201DD
:10073000C5F313044FEA0B3343EA14534FEA043270
:10074000019C43EA0603A4F10C040294009CCDE949
:1007500000B400F0E8F803B0BDE8F08F00200146D7
:10076000F9E70EB5C10F80EAE0700844CA0700211E
:1007700040F233438DE80E000A460B4600F0D3F8F2
:1007800003B000BD70B5C1F30A5201F0004500246A
:10079000C1F3130140F2FF3341F480119A4201DAB0
:1007A000002070BD40F233439A42A2F2334203DC90
:1007B000524200F044F800E090402C43F1D0404217
:1007C00070BD000030B5041E71F1000404DB4FF071
:1007D0000044404264EB0101141E73F1000405DB88
:1007E0001C464FF00043524263EB0403994208BF9A
:1007F000904230BD30B50B46014600202022012436
:1008000009E021FA02F59D4205D303FA02F5491BDE
:1008100004FA02F52844151EA2F10102F1DC30BDF4
:10082000202A04DB203A00FA02F1002070479140B0
:10083000C2F1200320FA03F3194390407047202AA5
:1008400004DB203A21FA02F00021704721FA02F37A
:10085000D040C2F120029140084319467047202A37
:1008600006DBCB17203A41FA02F043EAE07306E0D8
:1008700041FA02F3D040C2F12002914008431946E8
:1008800070473A2800D2303820F02002412A01D3A4
:10089000A2F13700884201D34FF0FF3070470000CB
:1008A000026811441378016018467047D16004490A
:1008B00051610449116200211161114600F038B9FB
:1008C000A1080008250B0008426842B1016811F830
:1008D000013B23B1521EC0E90012184670470121A6
:1008E000C160881E704742685AB1C368016843B945
:1008F00083688B4205D0491E521CC0E900120020BB
:1009000070474FF0FF30704710B5141E73F10004AC
:1009100008DA401C41F1000192185B411A4301D1F1
:1009200020F0010010BD2DE9F04D92469B4611B11B
:10093000B1FA81F202E0B0FA80F220329046FFF77D
:100940006FFF04460F4640EA0A0041EA0B01534696
:100950005A46084313D0114653EA010019D0C8F192
:1009600040025046FFF76BFF05460E46504659467B
:100970004246FFF755FF084305D0012004E020461A
:100980003946BDE8F08D0020054346EAE0762C4369
:1009900037430A986305E40AA0EB08000022FD0A29
:1009A00044EA47540A3002D500200146E9E7010530
:1009B00010196941DDE9084500196941BDE8F04DAC
:1009C000A2E72DE9F04D81EA030404F0004B21F089
:1009D000004514464FF0000A23F0004150EA05029A
:1009E00020D054EA01021DD0C5F30A570246C5F3D0
:1009F0001303C1F31300C1F30A5640F4801543F406
:100A00008013A7EB0608101BD64608F2FD3873EBDF
:100A1000050002D308F1010801E092185B41B8F12A
:100A2000000F03DA00200146BDE8F08D00204FF4EE
:100A30008011064684460EE0171B73EB050705D3AD
:100A4000121B63EB050306434CEA010C49084FEA0D
:100A5000300092185B4150EA0107EDD152EA0300E1
:100A600012D082EA040083EA0501084305D0101B76
:100A7000AB4106D20122002306E000224FF00043E2
:100A800002E06FF0010253101AEB06004CEB085124
:100A900010EB0A0041EB0B01BDE8F04DFFF734BF4E
:100AA00070B521F0004303430CD0C1F30A55002474
:100AB000D5EB040564EB0403D617AD1AB34102DB92
:100AC0000020014670BD201841EB025170BDC1F3FA
:100AD0000A52C1F3130140F2FF3341F480119A42EC
:100AE00002DA00200146704740F233439A42A2F2F4
:100AF000334202DC5242FFF7A2BEFFF791BE000074
:100B0000064C074D06E0E06840F0010394E807005A
:100B100098471034AC42F6D3FFF73AFBB49D000877
:100B2000D49D0008C0B24FF4F05100F0E9B90000C4
:100B30002DE9F34F8BB04FF0000801F10C000C468B
:100B40004FF0010B46460DF1080A01906269012140
:100B50000198904705002DD0252D2CD0216A88477B
:100B6000C0B16269012101989047216A8847002835
:100B7000F7D1411E62690198904700E0761CA16997
:100B80000B988847216A88470028F7D1E1690B98BC
:100B90008847DBE7A1690B9888470746A84201D13F
:100BA000761CD3E7E1690B9888477F1C02D1B8F126
:100BB000000F6FD046E1002762693D463946019833
:100BC00090472A2804D162690121019890470125A4
:100BD000DFF884926269012101989047A0F1300109
:100BE0000A290AD24F45E5DC07EB870100EB4107F4
:100BF000303FDFD445F01005ECE7E90601D46FF093
:100C000000476C280AD04C2814D0682815D06A28D0
:100C10000DD074281CD07A281AD01DE062690121F9
:100C2000019890476C2802D045F0040514E045F087
:100C300002050DE045F020050AE0626901210198F6
:100C40009047682802D045F0080505E045F40065A6
:100C50006269012101989047C4E9015765283DD098
:100C600019DC58287AD00CDC452837D004DC25283C
:100C700026D0412831D131E046282FD047282CD129
:100C80002CE05B2877D0612828D063287CD06428AA
:100C900023D15AE0D0E06F2848D008DC66281DD068
:100CA00067281BD0692821D06E2816D127E070282C
:100CB00045D0732868D0752847D078280DD14DE0ED
:100CC000A1690B988847054625283FF469AFE1697B
:100CD0000B9888476D1C3FF46AAFB3E023466A4621
:100CE0006FF001000B99AFF300809EE045F04000EB
:100CF0006060A80723464FF0000236D43EE0E807C4
:100D00007FF447AF2068011D21600068290501D5E7
:100D100006701BE7290701D5068017E7A90703D549
:100D2000F117C0E9006111E706600FE745F04000E8
:100D30006060A80723464FF0080216D41EE040F674
:100D40000E0125EA0100606016E045F04000606099
:100D5000A80723464FF00A0207D40FE045F04000F1
:100D60006060A80708D5234610226FF001000B9998
:100D7000AFF3008059E007E0234610226FF0010036
:100D80000B99FFF72FFB50E04FF000094F464B4601
:100D9000632802D05B2806D040E0E80601D4012099
:100DA000A06001273AE062690121019890475E281E
:100DB00005D14FF0010962694946019890472169C0
:100DC00039B900210A46534643F82120491C082915
:100DD000FADBB0B3216969B9C11700EBD1625311D5
:100DE0000AEB830122F01F02821A01200B68904057
:100DF00003430B6062690121019890475D28E8D1A7
:100E0000B9F1000F09D00020514651F82020D243FB
:100E100041F82020401C0828F7DB02AB224600974F
:100E20006FF001000B99AFF3008000280CDA401C32
:100E300008D1BBF1000F05D04FF0FF300DB0BDE879
:100E4000F08FFFE74046F9E7E90701D108F1010813
:100E500006444FF0000B79E6CCCCCC0C2DE9F04DDC
:100E600000231A461B1A8A4103DB00200146BDE815
:100E7000F08DC1F30A52C1F3130141F480154FF014
:100E8000000BD10702D100186D41521E0027044605
:100E900040F2FF11384601EB620A3E4680460246A8
:100EA00000204FF48011FFF7CAFCC2197141BB1832
:100EB00046EB0100B4EB030C75EB000C04D3E41A11
:100EC00065EB000517460E46241908F101006D4137
:100ED00080463428E3DDF91946EB0600091BA841DA
:100EE00003D24FF0FF32134601E0002213461BEB02
:100EF000070046EB0A51BDE8F04DFFF705BD0000C5
:100F00007F2801D9002208E0064A02EB5002C00700
:100F1000127800D1120902F00F020120904008401F
:100F200070470000309D000870B58C1810F8015B08
:100F300015F0070301D110F8013B2A1106D110F872
:100F4000012B03E010F8016B01F8016B5B1EF9D176
:100F50002B0705D40023521E0DD401F8013BFAE7FC
:100F600010F8013BCB1A921C03E013F8015B01F867
:100F7000015B521EF9D5A142D8D3002070BD00BF3D
:100F8000FEE7000010B5024800F073F910BD000044
:100F9000500200207047024692F82000012803D03A
:100FA00092F82000022806D11068406908431368AF
:100FB000586100207047506A40F480205062012040
:100FC000F8E7000070B504460A460023216894F84B
:100FD0002000012803D094F8200002287CD1414948
:100FE00001F50071086840F001000860086820F40D
:100FF0007C5008600868556A40EA05200860157D45
:10100000012000FA05F3C8699843C861A1F5007191
:10101000D069C8B9D1F80C029843C1F80C02908885
:1010200080B2958940EA054501F51070566940F88F
:101030003650108880B2158940EA054501F51070D8
:10104000566900EBC6004560D069012819D1D1F876
:101050000C021843C1F80C02908880B2158840EA4F
:10106000054501F51070566940F83650908980B2F8
:10107000158940EA054501F51070566900EBC60078
:101080004560906928B9D1F804029843C1F8040278
:1010900004E0D1F804021843C1F80402106928B929
:1010A000D1F814029843C1F8140204E0D1F81402F4
:1010B0001843C1F81402106A012804D1D1F81C02A7
:1010C0001843C1F81C02D1F8000220F00100C1F859
:1010D0000002002070BDFFE7606A40F4802060627B
:1010E0000120F7E700640040704730B5044694F8EB
:1010F0002000012803D094F8200002287DD151B9A6
:101100002068C06800F0030090B9606A40F40010E5
:101110006062012030BD01290AD12068006900F019
:10112000030028B9606A40F4001060620120F1E712
:10113000206800F5D87000EB0110006800F0040092
:101140009060906840B9206800F5D87000EB0110FD
:101150000068400D106007E0206800F5D87000EBD3
:1011600001100068C0085060206800F5D87000EBDE
:101170000110006800F002004008D060206800F50F
:10118000D87000EB0110406800F00F00106120687B
:1011900000F5D87000EB0110406800F47F40000AB1
:1011A0009061206800F5D87000EB01104068000CD9
:1011B0005061206800F5D87000EB0110806818704D
:1011C000206800F5D87000EB0110806800F47F40C3
:1011D000000A5870206800F5D87000EB0110806894
:1011E00000F47F00000C9870206800F5D87000EBC8
:1011F00001108068000ED87000E034E0206800F52F
:10120000D87000EB0110C0681871206800F5D87024
:1012100000EB0110C06800F47F40000A587120689C
:1012200000F5D87000EB0110C06800F47F00000CDE
:101230009871206800F5D87000EB0110C068000EAE
:10124000D87131B92068C06840F020002568E86096
:1012500007E0012905D12068006940F020002568D9
:101260002861002056E7606A40F480206062012017
:1012700050E72DE9F05F04460025206846692068A4
:10128000D0F80490206887682068D0F80CA0206807
:10129000D0F810B02068D0F8188006F001000028BF
:1012A00055D007F00100C0B101202168886007F027
:1012B000020018B1204600F073FA0EE007F00400B7
:1012C00010B145F4006508E007F0080010B145F4DE
:1012D000805502E0204600F062FA07F48070C8B141
:1012E0004FF480702168886007F4007018B12046C0
:1012F00000F058FA0EE007F4806010B145F4005594
:1013000008E007F4006010B145F4804502E0204693
:1013100000F047FA07F48030C8B14FF480302168FC
:10132000886007F4003018B1204600F03DFA0EE066
:1013300007F4802010B145F4004508E007F40020D0
:1013400010B145F4803502E0204600F02CFA06F09A
:10135000080038B10AF0100020B145F400751020E3
:101360002168C86006F0040040B10AF0080028B106
:1013700008202168C860204600F0A6F906F00200A7
:1013800038B12068C06800F0030010B1204600F0BA
:101390009DF906F0400038B10BF0100020B145F483
:1013A000806510202168086106F0200040B10BF034
:1013B000080028B1082021680861204600F0BCF927
:1013C00006F0100038B12068006900F0030010B189
:1013D000204600F0B2F906F4003040B109F01000E8
:1013E00028B1102021684860204600F0A7F906F4D3
:1013F000803040B109F0080028B108202168486019
:10140000204600F0D2F906F4004088B309F0040049
:1014100078B306F4807020B108F0010008B145F0FF
:10142000010506F4007020B108F0020008B145F093
:10143000020506F4806020B108F0040008B145F010
:10144000040506F40060A0B108F0700088B108F04F
:101450007000402817D006DC10280BD020280CD0B4
:10146000302819D10CE0502810D0602814D110E099
:101470001DE019E045F008050FE045F010050CE00F
:1014800045F0200509E045F0400506E045F08005FF
:1014900003E045F4807500E000BF00BF206880696C
:1014A00020F07000216888610420216848602DB117
:1014B000606A284360622046FFF716FEBDE8F09F91
:1014C00070B5044600250CB9012070BD94F82000C9
:1014D00010B9204600F0B0F82068006820F0020043
:1014E0002168086000F094FA05460DE000F090FADB
:1014F000401B0A2808D9606A40F400306062052069
:1015000084F820000120E0E72068406800F0020035
:101510000028EBD12068006840F0010021680860D5
:1015200000F076FA05460DE000F072FA401B0A283A
:1015300008D9606A40F400306062052084F8200019
:101540000120C2E72068406800F001000028EBD0CD
:10155000207E012806D12068006840F080002168C4
:10156000086005E02068006820F0800021680860BD
:10157000607E012806D12068006840F040002168A4
:10158000086005E02068006820F0400021680860DD
:10159000A07E012806D12068006840F02000216864
:1015A000086005E02068006820F0200021680860DD
:1015B000E07E012806D12068006820F01000216834
:1015C000086005E02068006840F0100021680860AD
:1015D000207F012806D12068006840F008002168BB
:1015E000086005E02068006820F0080021680860B5
:1015F000607F012806D12068006840F0040021685F
:10160000086005E02068006820F004002168086098
:10161000D4E902010843216908436169084361680C
:10162000491E08432168C86100206062012084F8D7
:101630002000002049E7000010B586B004461F498D
:101640002068884238D100BF002000901C48006804
:1016500040F000701A4908600846006800F0007009
:10166000009000BF00BF00BF002000901448103859
:10167000006840F00100124910390860084600680F
:1016800000F00100009000BF00BF4FF4C050019077
:10169000022002900120039003200490092005906D
:1016A00001A9084800F0AAF803220021142000F044
:1016B00080FA142000F070FA06B010BD00640040FB
:1016C00040380240000002407047000070B50446F8
:1016D0000F492068884210D10E4B0F4A0021204646
:1016E000FFF703FD002505E00A48415D0BA002F06D
:1016F0006FFB6D1C082DF7DB09E00C492068884260
:1017000005D10B4B0B4A00212046FFF7EEFC70BDC4
:1017100000640040060000201802002052784D6549
:101720007373616765313A25780D0A0000680040DF
:101730000E0000203402002070477047704770B5DB
:101740000446002594F82000012822D1022084F8C4
:1017500020002068006820F001002168086000F087
:1017600057F905460DE000F053F9401B0A2808D947
:10177000606A40F400306062052084F82000012097
:1017800070BD2068406800F001000028EBD1606265
:10179000F6E7606A40F4002060620120F0E77047DD
:1017A000704770477047704770477047014691F81F
:1017B0003500022803D080204865012070470520AD
:1017C00081F835000868006820F001000A681060A0
:1017D0000020F3E770B5044600F01AF906462546E6
:1017E000681C10B104480078054400BF00F010F9EF
:1017F000801BA842FAD370BD64010020F8B50246F0
:101800000B460025002400200021DCE0012606FA1A
:1018100001F51E6806EA0504AC4273D15E68022E2B
:1018200002D05E68122E13D1CF0802F1200656F8BE
:1018300027004E07F70E0F26BE40B0434F07FF0E9E
:101840001E69BE403043CF0802F1200646F827004B
:1018500010684F000326BE40B0431E7906F0030611
:101860004F00BE40304310605E68012E08D05E68B5
:10187000022E05D05E68112E02D05E68122E13D1A2
:1018800090684F000326BE40B0434F00DE68BE4064
:1018900030439060506801268E40B0431E79C6F3F5
:1018A00000168E4030435060D0684F000326BE4083
:1018B000B0434F009E68BE403043D0605E6806F083
:1018C0008056B6F1805F7DD100BF00260096404E65
:1018D000366846F480463E4F3E603E46366806F423
:1018E0008046009600BF00BF3A4E8F0856F827008A
:1018F0008E07370F0F26BE40B043374EB24202D19B
:10190000002624E05EE0354EB24201D101261EE001
:10191000334EB24201D1022619E0324EB24201D119
:10192000032614E0304EB24201D104260FE02F4EC0
:10193000B24201D105260AE02D4EB24201D106265F
:1019400005E02C4EB24201D1072600E008268F07A1
:101950003F0FBE4030431F4E8F0846F82700264EEB
:101960003068A0435E6806F48036B6F5803F00D14B
:101970002043214E3060361D3068A0435E6806F477
:101980000036B6F5003F00D120431B4E361D3060B7
:10199000361D3068A0435E6806F48016B6F5801FD9
:1019A00000D12043144E08363060361D3068A04305
:1019B0005E6806F40016B6F5001F00D120430E4EF7
:1019C0000C363060491C1029FFF420AFF8BD000030
:1019D0004438024008380140000002400004024040
:1019E00000080240000C02400010024000140240B7
:1019F00000180240001C0240003C014042694A407D
:101A0000426170470AB1816101E00B048361704754
:101A100001480068704700005C010020034800682E
:101A20000349097808440149086070475C010020B7
:101A30006401002010B50D48006840F400700B49A7
:101A400008600846006840F4806008600846006846
:101A500040F480700860032000F0EAF8002000F0F5
:101A600007F800F04BF8002010BD0000003C0240D9
:101A700070B588B004460025002600222146322099
:101A800000F097F8322000F087F800BF00200190A6
:101A90001648006840F008001449086008460068CD
:101AA00000F00800019000BF00BF02A903A800F0E9
:101AB000B5F900F0DBF945000D48B5FBF0F0461E26
:101AC0000C480D49086040F2E7310B48C1604660A0
:101AD00000210161816000F095FC20B9064800F00A
:101AE000DDFC08B070BD0120FBE70000403802407B
:101AF00040420F00000C00406407002008B500BF02
:101B0000002000902348006840F48040214908608C
:101B10000846006800F48040009000BF00BF00BF8E
:101B200000200090081F006840F08050091F0860E6
:101B30000846006800F08050009000BF00BF0320FE
:101B400000F076F8002211466FF00B0000F031F83B
:101B5000002211466FF00A0000F02BF80022114617
:101B60006FF0090000F025F800221146501F00F028
:101B700020F800221146101F00F01BF800220F2150
:101B8000901E00F016F800220F21501E00F011F8F0
:101B900008BD00004438024000BF00F01F020121D0
:101BA00091404209920002F1E022C2F8001100BF08
:101BB00070472DE9F05F80460D461646002701F07C
:101BC00059FB074639462A46334601F00700C0F163
:101BD000070ABAF1040F02D94FF0040A01E0C0F17C
:101BE000070AD14600F1040ABAF1070F02D24FF0FA
:101BF000000A01E0A0F1030AD4464FF0010A0AFAF4
:101C000009FAAAF1010A0AEA020A0AFA0CFA4FF0E2
:101C1000010B0BFA0CFBABF1010B0BEA030B4AEACD
:101C20000B042146404601F02DFBBDE8F09F00006B
:101C300000BF00F00702064B19684FF6FF0319407A
:101C4000044B0B4343EA0221014B196000BF70476C
:101C50000CED00E00000FA0500BF00BF00BF00BFB0
:101C600000BFBFF34F8F00BF00BF00BF094800682F
:101C700000F4E06008490843001D0649086000BF01
:101C800000BF00BFBFF34F8F00BF00BF00BF00BF4A
:101C900000BFFDE70CED00E00000FA0570B504465A
:101CA0000D460CB9012070BD5848006800F00F00C7
:101CB000A84209D255490D700846006800F00F008F
:101CC000A84201D00120EEE7207800F002000228AF
:101CD0001DD1207800F00400042805D14C4800688C
:101CE00040F4E0504A490860207800F008000828D5
:101CF00005D14748006840F46040454908604448C1
:101D0000006820F0F000A16808434149086020788D
:101D100000F00100A8B36068012807D13C480838EA
:101D20000068C0F34040B8B90120BCE760680228F1
:101D300002D06068032807D1354808380068C0F32E
:101D4000406048B90120AEE7314808380068C0F368
:101D5000400008B90120A6E72D48006820F00300E4
:101D6000616808432A490860FFF752FE064609E009
:101D7000FFF74EFE801B41F28831884202D90320D2
:101D800091E707E02248006800F00C006168B0EBC2
:101D9000810FEDD11D48006800F00F00A84209D95D
:101DA0001A490D700846006800F00F00A84201D0E3
:101DB000012078E7207800F00400042807D11448B7
:101DC000006820F4E050E168084311490860207879
:101DD00000F00800082808D10D48006820F4604091
:101DE000216940EAC1000A49086000F05FF808492B
:101DF0000968C1F30311074A515CC84006490860ED
:101E00000020FFF735FE00204DE70000003C0240B7
:101E100008380240869C0008680100200F220260FA
:101E20000D4A126802F0030242600B4A126802F087
:101E3000F0028260084A126802F4E052C260064A68
:101E4000126802F46042D2080261044A126802F089
:101E50000F020A607047000008380240003C024050
:101E600001480068704700006801002000B5FFF7D6
:101E7000F7FF04490968C1F38221034A515CC84055
:101E800000BD000008380240969C000800B5FFF72E
:101E9000E7FF04490968C1F34231034A515CC84075
:101EA00000BD000008380240969C00082DE9F0476C
:101EB000002400250026A1462548006800F00C00FB
:101EC00020B1042805D008283AD105E0DFF8849035
:101ED00039E0DFF8849036E01D48001F006800F00C
:101EE0003F041B48001F006800F4800078B11A48C6
:101EF0001749091F0968C1F38811A0FB0170014649
:101F0000224600233846FEF7B9F905460EE011488F
:101F10000F49091F0968C1F38811A0FB0170014630
:101F2000224600233846FEF7A9F905460848001F57
:101F30000068C0F30140401C4600B5FBF6F902E022
:101F4000DFF8109000BF00BF4846BDE8F0870000F2
:101F5000083802400024F40000127A00F8B5044664
:101F60000CB90120F8BD207800F00100002874D0E1
:101F7000F948006800F00C0004280DD0F64800680D
:101F800000F00C00082813D1F348001F006800F48B
:101F90008000B0F5800F0BD1EF4808380068C0F31F
:101FA0004040002859D06068002856D10120D9E768
:101FB00000BF6068B0F5803F08D1E7480838006886
:101FC00040F48030E449083908601EE06068B0F5EC
:101FD000A02F0DD1E0480838006840F48020DE4989
:101FE000083908600846006840F4803008600CE05A
:101FF000D9480838006820F48030D749083908608B
:102000000846006820F48020086000BF606890B136
:10201000FFF7FEFC054606E0FFF7FAFC401B6428CC
:1020200001D903209EE7CC4808380068C0F340403F
:102030000028F1D011E0FFF7EBFC054606E0FFF7C2
:10204000E7FC401B642801D903208BE7C24808380D
:102050000068C0F340400028F1D1207800F0020071
:1020600002285FD1BC48006800F00C0058B1BA48A3
:10207000006800F00C0008281CD1B748001F006859
:1020800000F48000B0B9B44808380068C0F34000DC
:1020900020B1E068012801D0012063E7AE4808388C
:1020A000006820F0F800216940EAC100AA49083917
:1020B000086037E0E06800B30120A8490860FFF736
:1020C000A7FC054606E0FFF7A3FC401B022801D948
:1020D000032047E7A04808380068C0F34000002804
:1020E000F1D09D480838006820F0F800216940EAE6
:1020F000C10099490839086014E000209749086038
:10210000FFF786FC054606E0FFF782FC401B02282D
:1021100001D9032026E7904808380068C0F3400042
:102120000028F1D1207800F0080008282CD160693F
:10213000A8B101208A490860FFF76AFC054606E05D
:10214000FFF766FC401B022801D903200AE78248FA
:102150006C300068C0F340000028F1D014E000208B
:102160007F490860FFF754FC054606E0FFF750FC86
:10217000401B022801D90320F4E677486C30006840
:10218000C0F340000028F1D1207800F004000428BA
:1021900070D1002670483830006800F0805090B947
:1021A00000BF002000906C483830006840F080503C
:1021B0006949383108600846006800F08050009096
:1021C00000BF00BF01266748006800F48070B0B906
:1021D0006448006840F4807062490860FFF718FCAA
:1021E000054606E0FFF714FC401B022801D9032036
:1021F000B8E65C48006800F480700028F2D000BFA8
:10220000A068012808D154486830006840F00100F7
:102210005149683108601DE0A06805280DD14E487D
:102220006830006840F004004B4968310860084697
:10223000006840F0010008600CE047486830006822
:1022400020F001004449683108600846006820F029
:102250000400086000BFA068A8B1FFF7D9FB0546DD
:1022600009E0FFF7D5FB401B41F28831884202D9D3
:10227000032077E626E0384868300068C0F3400065
:102280000028EED013E0FFF7C3FB054608E0FFF798
:10229000BFFB401B41F28831884201D9032061E62F
:1022A0002D4868300068C0F340000028EFD1012EAF
:1022B00007D129483830006820F08050264938314D
:1022C000086000BFA069B8B32348006800F00C00A4
:1022D00008285ED0A069022846D100201F49086660
:1022E000FFF796FB054606E0FFF792FB401B02282E
:1022F00001D9032036E6184808380068C0F340606A
:102300000028F1D1D4E907010843616A40EA81114C
:102310000122A06AC2EB500041EA00412C20005D7E
:1023200041EA00600C49091F086001200B4908665A
:10233000FFF76EFB054607E02DE0FFF769FB401B4A
:10234000022801D903200DE6034808380068C0F3CD
:1023500040600028F1D01EE00838024000004742EB
:10236000800E47420070004000200C490866FFF7CD
:102370004FFB054606E0FFF74BFB401B022801D947
:102380000320EFE506480068C0F340600028F2D162
:1023900001E00120E6E50020E4E5000000004742FE
:1023A00000380240042808D14FF0E021096941F0CB
:1023B00004014FF0E022116107E04FF0E0210969CC
:1023C00021F004014FF0E0221161704770B504461E
:1023D0002546681EB0F1807F01D301200FE0681E02
:1023E0004FF0E02148610F214FF0FF3000F04AFF2D
:1023F00000204FF0E021886107200861002070BDB7
:102400007047704710B504460CB9012010BD94F810
:10241000390028B9002084F83800204600F00CF874
:10242000022084F83900211D206801F00BF90120F9
:1024300084F839000020E9E708B5154A016891429F
:102440000FD100BF002100911249096841F001013C
:10245000104A11601146096801F00101009100BFA6
:1024600015E00D4A0168914211D100BF0021009191
:102470000849091F096841F00201064A121F11604C
:102480001146096801F00201009100BF00BF08BDBC
:102490000000014044380240000400400146086842
:1024A000C06840F001000A68D0600868006840F029
:1024B00001000A68106000207047704710B504469C
:1024C00020680069C0F34000D8B12068C068C0F33C
:1024D0004000B0B16FF00200216808610120207651
:1024E0002068806900F0030018B12046FFF7E5FF7F
:1024F00005E0204600F0ADF8204600F0ABF80020E3
:10250000207620680069C0F38000D8B12068C068D8
:10251000C0F38000B0B16FF00400216808610220B0
:1025200020762068806900F4407018B12046FFF7DB
:10253000C4FF05E0204600F08CF8204600F08AF841
:102540000020207620680069C0F3C000D8B1206860
:10255000C068C0F3C000B0B16FF008002168086126
:10256000042020762068C06900F0030018B12046DE
:10257000FFF7A3FF05E0204600F06BF8204600F0CF
:1025800069F80020207620680069C0F30010D8B1F7
:102590002068C068C0F30010B0B16FF0100021686F
:1025A0000861082020762068C06900F4407018B1E6
:1025B0002046FFF782FF05E0204600F04AF820465B
:1025C00000F048F8002020762068006900F0010043
:1025D00058B12068C06800F0010030B16FF0010010
:1025E00021680861204600F037F820680069C0F3D0
:1025F000C01058B12068C068C0F3C01030B16FF08F
:102600008000216808612046FFF7FAFE2068006913
:10261000C0F3801058B12068C068C0F3801030B19A
:102620006FF0400021680861204600F021F8206822
:102630000069C0F3401058B12068C068C0F3401072
:1026400030B16FF02000216808612046FFF7D9FE05
:1026500010BD70477047000010B50446034920685C
:10266000884201D1FFF7DAF910BD0000000C0040EC
:10267000704770472DE9F0470446206805682068D8
:10268000C668206847694FF00008C14605F00F088A
:10269000B8F1000F0AD105F0200038B106F0200093
:1026A00020B1204601F06AF8BDE8F087B8F1000FCC
:1026B0006DD007F0010018B906F49070002866D0BC
:1026C00005F0010030B106F4807018B1E06B40F005
:1026D0000100E06305F0040030B107F0010018B11B
:1026E000E06B40F00200E06305F0020030B107F05B
:1026F000010018B1E06B40F00400E06305F0080051
:1027000030B107F0010018B1E06B40F00800E06361
:10271000E06B68B305F0200028B106F0200010B18E
:10272000204601F02BF820684069C0F38019E06B67
:1027300000F0080010B9B9F1000F22D0204600F0D7
:10274000FDFF2068406900F04000B0B1206840699A
:1027500020F0400021684861606B50B11748616B00
:102760000865606BFFF722F810B1606B016D884758
:102770000CE02046FFF77DFF08E02046FFF779FFD9
:1027800004E02046FFF775FF0020E0638CE705F0CA
:10279000800030B106F0800018B1204601F0F0F959
:1027A00082E705F0400030B106F0400018B1204645
:1027B00000F0D4FF78E700BF76E700002937000873
:1027C00010B504460CB9012010BDA06900B100E0AD
:1027D00000BF94F8390028B9002084F8380020465A
:1027E00000F028F8242084F839002068C06820F41C
:1027F00000502168C860204601F00EF8206800698A
:1028000020F49040216808612068406920F02A0087
:10281000216848612068C06840F400502168C860A1
:102820000020E063202084F8390084F83A0000207A
:10283000CAE7000010B586B004464C4920688842BB
:1028400027D100BF002000904948006840F01000E8
:10285000474908600846006800F01000009000BF7B
:1028600000BF4FF4C060019002200290012003904D
:10287000032004900720059001A93E48FEF7BEFF03
:10288000002205212520FFF794F92520FFF784F980
:1028900069E039492068884238D100BF00200090A3
:1028A0003348001F006840F400303149091F0860B8
:1028B0000846006800F40030009000BF00BF0C2004
:1028C0000190022002900120039003200490072031
:1028D000059001A92748FEF791FF00220621262036
:1028E000FFF767F92620FFF757F924480068C0680A
:1028F00040F0200021490968C86020480068C0688D
:1029000040F010001D490968C8602CE01C4920688F
:10291000884228D100BF002000901548001F0068A1
:1029200040F480201249091F08600846006800F43E
:102930008020009000BF00BF4FF440600190022053
:10294000029001200390032004900720059001A924
:102950000C48FEF753FF002205212720FFF729F935
:102960002720FFF719F906B010BD00000010014044
:10297000443802400000024000440040E4020020CD
:10298000004800400004024070472DE9F843044627
:102990000D4616461F464FF0000994F839002028CE
:1029A0005CD105B116B90120BDE8F88300BF94F8E9
:1029B0003800012801D10220F6E7012084F8380010
:1029C00000BF0020E063212084F83900FFF720F8E1
:1029D0008146A684E6842BE0E08C401EE084A0685B
:1029E000B0F5805F16D14B4600228021204600972B
:1029F00001F0FAF808B10320D6E7A846B8F80000BD
:102A0000C0F3080021684860206908B9AD1C0FE0D8
:102A10006D1C0DE04B46002280212046009701F0FE
:102A2000E3F808B10320BFE715F8010B21684860FF
:102A3000E08C0028D0D14B46002240212046009750
:102A400001F0D2F808B10320AEE7202084F8390065
:102A500000BF002084F8380000BFA5E70220A3E7EC
:102A6000704700BFFEE7000044E0234800680028EC
:102A70003DD000212048006806F004F9044604F027
:102A8000010028B1002210211C48FEF7BBFF04E022
:102A9000012210211948FEF7B5FF04F0020040B1F1
:102AA00020211648FEF7AAFF4FF47A70FEF792FE37
:102AB00004E0012220211148FEF7A4FF04F00800E1
:102AC00050B1012204210D48FEF79CFF0022022193
:102AD0000B48FEF797FF09E0002204210748FEF7A4
:102AE00091FF012202210648FEF78CFF00243220CC
:102AF00005F0D6FEB9E700002C01002000080240D6
:102B00000004024010B504460A480B490860084614
:102B1000446000218160C16001610C21416100219C
:102B20008161C161FFF74CFE18B1222103A001F0C1
:102B30004DF910BD00100140A40200202E2E2F538D
:102B400072632F75736172742E63000000B58BB0D1
:102B500022482349086007204860002120488160FE
:102B6000C1604FF4802101614FF4A0014161002157
:102B7000017641768176C17601774177FEF7A0FC38
:102B800030B118A001F024F955211AA001F01EF966
:102B90000020019041F21430029000200390049034
:102BA00005900690012008900020079001200990D0
:102BB00001A90B48FEF706FA30B112A001F008F99E
:102BC00065210CA001F002F90548FEF7B8FD0221CD
:102BD0000348FEF7E0F90BB000BD000000640040C0
:102BE00050020020696E6974206661696C6564201A
:102BF000300000002E2E2F5372632F63616E2E6300
:102C000000000000696E6974206661696C6564206B
:102C10003200000008B500BF002000901548006891
:102C200040F08000134908600846006800F080000A
:102C3000009000BF00BF00BF002000900846006861
:102C400040F0010008600846006800F001000090B4
:102C500000BF00BF00BF002000900846006840F0A1
:102C6000020008600846006800F00200009000BF03
:102C700000BF08BD3038024010B504460A480B4971
:102C800008600846446000218160C16001610C2138
:102C9000416100218161C161FFF792FD18B13421CA
:102CA00003A001F093F810BD00440040E4020020AE
:102CB0002E2E2F5372632F75736172742E63000072
:102CC00000BFFEE77CB505461748006800281FD006
:102CD000002301AA29461448006806F05BFB04465D
:102CE000012C09D000BF1B2010A3174A17A1009088
:102CF00018A001F06DF800BF019838B14FF0805076
:102D000020490860BFF34F8FBFF36F8F01207CBD58
:102D100000BF222005A30C4A0CA100901AA001F0CC
:102D200057F800BF0020F2E7180000202E2E5C5359
:102D300072635C6D6573736167655C6D6573736108
:102D400067652E6300000000159B00084552524F36
:102D5000520000005B2573207C20257320402573E2
:102D60002C25645D207573617274206964656C2024
:102D7000616464207175657565206661696C656460
:102D80000D0A000004ED00E05B2573207C20257314
:102D9000204025732C25645D207468697320697355
:102DA0002077726F6E67202E0D0A00001CB54FF45D
:102DB000007004F06DFC04463C2004F069FC0546FC
:102DC000DFE000235A1E21466E48006806F0E0F856
:102DD00000BF89206CA3734A73A1CDE9000474A0DD
:102DE00000F0F6FF00BF7AA12046FDF7AEFA48B129
:102DF000204604F077FE00231A46194676480068FC
:102E000006F0F4F975A12046FDF79FFA80B176A18E
:102E10002046FDF79AFA58B1204604F0EDFD01284E
:102E200006D100231A4619467148006806F0DEF9FB
:102E300070A12046FDF789FA78B1704900231A463F
:102E4000D1F8EC00294606F0A3F86C4900231A4695
:102E5000D1F8DC00194606F0C9F968480078012865
:102E600021D166484078F0B9644901230022D1F8A5
:102E7000EC00294606F08CF8012814D1294620469A
:102E8000FDF763FA78B15D4900231A46D1F8EC00EA
:102E9000294606F07DF8594900231A46D1F8DC008E
:102EA000194606F0A3F95548407801282AD153491C
:102EB00001230022D1F8EC00294606F069F8012828
:102EC00020D129462046FDF740FAD8B14B490023CE
:102ED0001A46D1F8EC00294606F05AF84748D0F8CF
:102EE000EC0038B1454902230022D1F8E800214620
:102EF00006F07CF9414900231A46D1F8E000194652
:102F000006F074F93D488078012815D13CA120468F
:102F1000FDF71BFA80B13C48006868B100231A46EF
:102F200019463948006806F061F9384900231A4605
:102F30008868194606F05AF930480079012811D1FD
:102F40003348006870B133A12046FDF7FEF948B15F
:102F50002F48006830B100231A4619462C480068F3
:102F600006F044F92EA12046FDF7EFF930B12749CC
:102F700000231A468868194606F038F9642005F0DF
:102F80008FFC1EE7180000202E2E5C5372635C6DD0
:102F90006573736167655C6D6573736167652E63E7
:102FA00000000000539B00084445425547000000C4
:102FB0005B2573207C202573204025732C25645DC0
:102FC00020476574206275662025730D0A00000095
:102FD000636F6E6669670000540100207061636B67
:102FE00073746172740000007061636B656E6400DD
:102FF000580100205042524541445900240000200D
:10300000434F4E4E454354002000002078020020DC
:10301000500100207265677265706F6B00000000E0
:103020004F4B0000F8B506460C46C82004F030FBB4
:103030000746C8213846FDF771F944B916A138464C
:10304000FDF79CF931463846FDF773F905E0012C90
:1030500003D131463846FDF791F910480068B0B108
:1030600000235A1E39460D48006806F0BFF8054691
:10307000012D0CD000BF3B2009A3104A10A10090E5
:1030800011A000F0A5FE00BF4FF0FF30F8BD38469C
:1030900005F006FB0120F9E741542D001C0000203B
:1030A0002E2E5C5372635C6D6573736167655C6D36
:1030B0006573736167652E63000000002B9B000839
:1030C0004552524F520000005B2573207C2025732F
:1030D000204025732C25645D204D65737361676501
:1030E000206661696C65640D0A0000001CB5C8208B
:1030F00004F0CEFA0446002554E0C8212046FDF72E
:103100000DF900235A1E21462748006805F040FFAC
:1031100026A12046FDF719F990B124A12046FDF71C
:1031200014F90746FF1C2248076001460868FDF7AE
:103130001EF91F4988800846C168002088470BE0B7
:103140001B48046001460868FDF711F9184988809A
:103150000846C16801208847002600251FE0681C3A
:10316000C5B213488068B8B1114900234FF47A7290
:103170008868194605F00CFF0646012E00D10FE0C5
:1031800000BF40F203100BA3114A12A1CDE90005C4
:1031900012A000F01DFE00BF032D00DB00E0DEE703
:1031A00000BF00BFA9E700001C00002041542D0013
:1031B000780200202E2E5C5372635C6D6573736120
:1031C00067655C6D6573736167652E630000000061
:1031D000669B000844454255470000005B2573206C
:1031E0007C202573204025732C25645D204F4B42A5
:1031F000696E61727953656D6170686F7265203AAE
:1032000025640D0A0000000010B5032200210120F2
:1032100005F092FE1049086003220021012005F00C
:103220008BFE0E49086000224FF416710A2005F04B
:1032300083FE0B4908600022C821082005F07CFEAF
:103240000849086003220021012005F075FE0649A7
:1032500088600648C86010BD580100205401002055
:10326000180000201C0000207802002039560008B9
:103270007047000002480068C0F302207047000059
:103280000CED00E010B5002807DA0A07140E054A15
:1032900000F00F031B1FD45403E00A07130E024A69
:1032A000135410BD18ED00E000E400E07CB50546C5
:1032B00005F0AEF9FFF7A8FF2BA12DA002F040FF0B
:1032C0002F49D1F8D000804705F00AFD2D4908604C
:1032D0002B48D0F8C800012300224FF4FA61009077
:1032E00029A006F08DFB2C4908602C4807210023FB
:1032F0004FF40072CDE9001029A12E4806F00CF918
:103300002D48052100234FF40072CDE900102BA1B8
:103310002E4806F001F92E480A2100234FF480724E
:10332000CDE900101EA12B4806F0F6F82A48082126
:1033300000234A01CDE9001028A12B4806F0ECF843
:1033400006F02AF904464FF0FF30002322460121FF
:1033500000901148006806F095FB2448006805F0CD
:10336000CDFA05F07FF97CBD363830300000000022
:103370003131322E3132342E362E333100000000FE
:10338000240000202C0100204F6E6553686F745498
:10339000696D6572000000003801002030010020D6
:1033A0004D657373616765526563656976655461E0
:1033B000736B0000AD2D0008340100204D65737360
:1033C00061676553656E645461736B00ED3000088E
:1033D00024010020692A0008280100205570677226
:1033E0006164655461736B00F53C000820010020A6
:1033F000F0B50B460024002100BF6DE02746641C99
:10340000C75D303F172F2DD2DFE807F00C0E1012EA
:103410001416181A1C1E2C2C2C2C2C2C2C2022247C
:1034200026282A0000251DE001251BE0022519E0C1
:10343000032517E0042515E0052513E0062511E016
:1034400007250FE008250DE009250BE00A2509E016
:103450000B2507E00C2505E00D2503E00E2501E016
:103460000F2500BF00BF2746641CC75D303F172FE4
:103470002DD2DFE807F00C0E10121416181A1C1EBD
:103480002C2C2C2C2C2C2C20222426282A00002604
:103490001DE001261BE0022619E0032617E00426A2
:1034A00015E0052613E0062611E007260FE00826A2
:1034B0000DE009260BE00A2609E00B2607E00C26A2
:1034C00005E00D2603E00E2601E00F2600BF00BF39
:1034D00006EB05175F54491C02EBD27CB1EB6C0F75
:1034E0008CDBF0BD10B502F0CFFF10BD10B592B06F
:1034F00000BF002000903048006840F080502E4906
:1035000008600846006800F08050009000BF00BFCF
:1035100000BF002000902948006840F480402749FF
:1035200008600846006800F48040009000BF00BFBB
:10353000092006904FF48030079001200B90022064
:103540000C9041050D9104210E91A8210F910221AB
:1035500010910721119106A8FEF700FD18B1212155
:1035600017A000F033FC0F200190022002900020F1
:1035700003904FF4A05004904FF480500590052123
:1035800001A8FEF78BFB18B12F210DA000F01EFC47
:10359000FEF766FC4FF47A71B0FBF1F42046FEF7BB
:1035A00015FF0420FEF7FEFE00220F21501EFEF73D
:1035B00000FB12B010BD0000403802400070004017
:1035C0002E2E5C5372635C7379732E6300000000CF
:1035D0001448006840F470001249086012480068FE
:1035E00040F001001049086000200F4908310860D0
:1035F0000D4800680D4908400B4908600C48091D3A
:103600000860081F006820F48020091F086000205F
:1036100005490C3108604FF00060024980390860AC
:103620007047000088ED00E000380240FFFFF6FE22
:103630001030002410B50248FEF740FF10BD000016
:1036400064070020002202682C4B98420ED0B0F193
:10365000804F0BD02A4B984208D02A4B984205D075
:10366000294B984202D0294B984201D1012300E016
:1036700000231BB122F070024B681A431F4B984283
:1036800020D0B0F1804F1DD01D4B98421AD01D4B59
:10369000984217D01C4B984214D01C4B984211D022
:1036A0001B4B98420ED01B4B98420BD01A4B9842A2
:1036B00008D01A4B984205D0194B984202D0194BAA
:1036C000984201D1012300E000231BB122F4407293
:1036D000CB681A4302608B68C3620B688362074B36
:1036E000984202D0094B984201D1012300E0002307
:1036F0000BB10B6903630123436170470000014074
:103700000004004000080040000C0040000401409C
:1037100000400140004401400048014000180040C2
:10372000001C00400020004070B50546AC6B002036
:10373000E085E0842046FEF79CFF70BD0168C96803
:1037400021F490710268D1600168496921F001019A
:1037500002685161202180F83A10704710B5044684
:103760002068C06820F040002168C860202084F8EC
:1037700039002046FFF774F9002010BD70B50446EB
:1037800094F83A00222844D1A068B0F5805F13D1A4
:10379000A56A206940B920684068C0F30800288005
:1037A000A06A801CA06219E020684068C0B228802E
:1037B000A06A401CA06211E0206938B92068406806
:1037C000C1B2A26A501CA062117007E02068406874
:1037D00000F07F01A26A501CA0621170E08D401EB3
:1037E00080B2E08598B92068C06820F490702168A4
:1037F000C8602068406920F00100216848612020ED
:1038000084F83A002046FFF7BFF8002070BD002082
:10381000FCE70220FAE700002DE9F041044600250C
:103820002068056925F44055E06805432068056176
:103830002068C56849F20C6085432169A068084387
:1038400061690843E169084305432068C560206851
:10385000456925F44075A069054320684561E06924
:10386000B0F5004F7ED1C4492068884203D0C349D7
:10387000206888425DD1FEF709FB00EBC00101EB37
:10388000001061684900B0FBF1F06421B0FBF1F079
:103890000601FEF7FBFA00EBC00101EB00106168C6
:1038A0004900B0FBF1F7FEF7F1FA00EBC00101EBC4
:1038B000001061684900B0FBF1F06421B0FBF1F049
:1038C00000EBC00101EB0010A7EB8000322101EBFF
:1038D000C0006421B0FBF1F000F0F80006EB4006F8
:1038E000FEF7D4FA00EBC00101EB0010616849005B
:1038F000B0FBF1F7FEF7CAFA00EBC00101EB0010D4
:1039000061684900B0FBF1F06421B0FBF1F000EB1D
:10391000C00101EB0010A7EB8000322101EBC000D9
:103920006421B0FBF1F000F00700304421688860AA
:1039300020E1FEF79BFA00EBC00101EB001061688B
:103940004900B0FBF1F06421B0FBF1F00601FEF795
:103950008DFA00EBC00101EB001061684900B0FB7B
:10396000F1F700E045E0FEF781FA00EBC00101EB62
:10397000001061684900B0FBF1F06421B0FBF1F088
:1039800000EBC00101EB0010A7EB8000322101EB3E
:10399000C0006421B0FBF1F000F0F80006EB400637
:1039A000FEF764FA00EBC00101EB0010616849000A
:1039B000B0FBF1F7FEF75AFA00EBC00101EB001083
:1039C00061684900B0FBF1F06421B0FBF1F000EB5D
:1039D000C00101EB0010A7EB8000322101EBC00019
:1039E0006421B0FBF1F000F00700304421688860EA
:1039F000C0E061492068884203D06049206888425D
:103A00005CD1FEF743FA00EBC00101EB00106168E6
:103A10008900B0FBF1F6FEF739FA00EBC00101EBCB
:103A2000001061688900B0FBF1F06421B0FBF1F097
:103A300000EBC00101EB0010A6EB8000322101EB8E
:103A400000106421B0FBF1F000F0F006FEF71EFA62
:103A500000EBC00101EB001061688900B0FBF1F0E0
:103A60006421B0FBF1F006EB0016FEF70FFA00EB55
:103A7000C00101EB001061688900B0FBF1F7FEF7AF
:103A800005FA00EBC00101EB001061688900B0FB92
:103A9000F1F06421B0FBF1F000EBC00101EB00108C
:103AA000A7EB8000322101EB00106421B0FBF1F0A4
:103AB00000F00F003044216888605BE0FEF7D6F923
:103AC00000EBC00101EB001061688900B0FBF1F66A
:103AD000FEF7CCF900EBC00101EB00106168890032
:103AE000B0FBF1F06421B0FBF1F000EBC00101EBA1
:103AF0000010A6EB8000322101EB00106421B0FB26
:103B0000F1F000F0F006FEF7B1F900EBC00101EBB7
:103B1000001061688900B0FBF1F06421B0FBF1F0A6
:103B200006EB0016FEF7A2F900EBC00101EB001056
:103B300061688900B0FBF1F7FEF798F900EBC0016E
:103B400001EB001061688900B0FBF1F06421B0FB6B
:103B5000F1F000EBC00101EB0010A7EB8000322177
:103B600001EB00106421B0FBF1F000F00F003044D5
:103B700021688860BDE8F081001001400014014018
:103B8000014691F8390021282CD18868B0F5805F72
:103B90000FD10A6A1088C0F308000B6858600869E2
:103BA00018B9086A801C086209E0086A401C0862AB
:103BB00005E00B6A581C086218780B685860C88CBE
:103BC000401E80B2C88458B90868C06820F08000E0
:103BD0000B68D8600868C06840F040000B68D86087
:103BE000002070470220FCE72DE9F04104460D4615
:103BF00017469846069E21E0701CF8B12EB1FDF7DD
:103C000007FFA0EB0800B04218D92068C06820F474
:103C1000D0702168C8602068406920F001002168E8
:103C20004861202084F8390084F83A0000BF002061
:103C300084F8380000BF0320BDE8F08120680068E8
:103C40002840A84201D1012000E00020B842D3D092
:103C50000020F1E710B50248FEF70CFD10BD000092
:103C6000A402002038B51B4800680068C0F340106B
:103C700070B119480068C4B218490888411C174A35
:103C8000118017490C546FF0200012490968086030
:103C9000104800680068C0F30010B8B100BF0020F1
:103CA00000900C480068006800900A48006840686E
:103CB000009000BF00BF0A48FFF704F80020074942
:103CC00008804FF480610648FCF728FB0148FEF7A6
:103CD000D1FC38BDE4020020044400404001002033
:103CE0006403002010B50248FEF7C4FC10BD0000BC
:103CF0002403002008B51DE000235A1E19460E4873
:103D0000006805F045F90446012C04D103F0F2FFE8
:103D100004F026F90BE000BF702008A30C4A0DA1A7
:103D200000900EA000F054F800BF04F019FC3220FF
:103D300004F0B6FDE0E70000540100202E2E5C5395
:103D400072635C757067726164652E6300000000C9
:103D50007A9C00084552524F520000005B257320A8
:103D60007C202573204025732C25645D20676574B5
:103D700074696E6720436F6E666967206661696C5F
:103D800065642E20506C6561736520436865636BC4
:103D9000210D0A0000BFFEE770B504462046FCF77F
:103DA000E6FA054600200BE000BF0749096801F06C
:103DB00040010029F9D0215C034A121D1160401C0A
:103DC000A842F1DB70BD00000044004000BFFEE7E8
:103DD0000FB4054B10B503A9044A029800F0E8FFA0
:103DE00010BC5DF814FB00000D580008E001002035
:103DF0000FB4084B10B504A902AA039800F0D8FF2D
:103E0000044602A9002001F06AFB204610BC5DF8C0
:103E100014FB0000DF54000803B40198410000982F
:103E200050EAC12018BF04204A0D18BF40F001001D
:103E300040F2FF72B2EB515F08BF40F00200012870
:103E400008BF052002B070472DE9F04D2DED040BA1
:103E50002DED0C8B96B0DDE92350259CDDF888A074
:103E600025F0004624F00048BAF1000F14BF0121EC
:103E7000002101EB4502FE4953184A1093422AD310
:103E8000002814BF0123002303EB44030B44F9492A
:103E90008B4220D358EA00019FEDF78B6FD0DFF8FB
:103EA000E0B35D4503D1BAF1000F05D187E0BAF167
:103EB000000F08BF002100D0012101EB450111F5E1
:103EC000001F08D8002814BF0121002101EB440184
:103ED00011F5001F0BD99DED241B9DED220B16B093
:103EE000BDEC0C8B04B0BDE8F04D00F05DBE0027CA
:103EF000002DBCBFE349884521DAE3498845A8BFC6
:103F000002271CDAC3451ADCE04901EB28511429C9
:103F100008DDC1F1340220FA02F101FA02F2824214
:103F20000DD108E058B9C1F1140228FA02F101FAE2
:103F300002F2424503D101F00101C1F1020756EA44
:103F40000A011DD1002C1BDA002D18BF022F01D051
:103F5000012F0AD0022000F073FE16B0BDEC0C8BCE
:103F600004B0BDE8F04D00F007BE022000F068FE8E
:103F700000F002FE51EC100B81F0004183E01EE0E6
:103F80009FEDC39B9FEDC4AB002872D1BD48804517
:103F90002DD105F1804010F5801008BFBAF1000F57
:103FA0000DD0B34515DC002CA1BF9DED240B16B040
:103FB000BDEC0C8B04B0A8BFBDE8F08D12E0B0EEF4
:103FC000480AF0EE680A16B0BDEC0C8B04B0BDE8F0
:103FD000F08D002C06DA9DED240B51EC100B81F0D6
:103FE000004150E0AE48784490ED000BEBE7D84537
:103FF0004FD1002C4ADA2EB186423BD1BAF1000FE4
:1040000044D126E0BAF1000F13D0022000F018FED0
:1040100000F0E6FD8DED020B9DED220B8DED000B0A
:1040200010EE900A039961F31E0003909DED020BC0
:10403000C9E78DED029B9DED220B19EE901A10EE53
:10404000900A8DED000B61F31E0003909DED020BB5
:10405000B9E78DED02AB9DED220B1AEE901A10EE32
:10406000900A8DED000B61F31E0003909DED020B95
:10407000A9E729E00ADA9DED220B51EC180B53EC6D
:10408000102BFCF79EFC41EC100B9CE79DED220BE6
:1040900099E7864218DAB4F1804F0DD0A4F10050B0
:1040A000B0F1FF5010D1002D0EDB9DED220B51EC35
:1040B000100B04F01EFAE6E79DED220B53EC102BDB
:1040C00051EC100B00F0AEBC9DED220B51EC100B2F
:1040D00001F090FBBAF1000FCDE90C0134D19FED56
:1040E000720BDEB1A6F1E040B0F17F602CD1002D63
:1040F00001DD002C0DDA002D01DD002C1FDB002D71
:1041000016DA002C14DB012F08BF9FED690B3FF47A
:104110005AAFB0EE490AF0EE690A54E7022F18BF11
:10412000002D0CD0012F0AD1002DFFF64CAF06E078
:10413000002DB8BF002C07DA012F3FF444AFB0EEDA
:104140004A0AF0EE6A0A3EE7012000EBE57A5AEAF5
:1041500007000CD05848002580457CDD5749584859
:10416000884514DDB0420DDB002C19DB2BE001206B
:1041700000F066FD16B0BDEC0C8B04B0BDE8F04D50
:1041800000F01EBDB34502DC002C09DC1BE08642BA
:1041900002DA002C17DA03E05E4527DD002C12DD81
:1041A000022000F04DFD00F01BFD10EE901A19EEFC
:1041B000900A8DED020B8DED009B61F31E000390C4
:1041C0009DED020BFFE6022000F03AFD00F018FD25
:1041D00010EE901A18EE900A8DED020B8DED008B0B
:1041E00061F31E0003909DED020BECE69DED220BAA
:1041F00053EC182B51EC100BFCF73BFA9FED320BF4
:10420000CDE90A0153EC102B9DED0A0B51EC100B7C
:10421000FCF735FA9FED2E1B53EC112BFCF72CFA13
:104220009DED0A1B53EC112BFCF729FA9FED2A1B7D
:1042300053EC112BFCF720FA9DED0A0B41EC190B06
:1042400053EC102B51EC100BFCF719FA53EC192B13
:10425000FCF715FA00E07EE09FED210B41EC1A0B14
:1042600053EC102B9DED0A0B51EC100B3CE00000C1
:10427000FFFF1F00FFFF0F00000000000000F03FE5
:104280000000F03F0000F07F0000404301FCFFFF12
:10429000000000000000F07F0000000000000000AF
:1042A0003E5D0000000000000000000000000080F3
:1042B000000000000000F0FF0000E0410000F043BB
:1042C000FFFFEF3F00000000000000000000D03FB3
:1042D000555555555555D53F000000000000E03FAD
:1042E000000000604715F73FFCF7C9F941EC190BD6
:1042F0009FEDFD0B51EC1A0B53EC102BFCF7BFF9A3
:1043000041EC1A0B9FEDFA0B53EC102B9DED0A0BB1
:1043100051EC100BFCF7B3F953EC1A2BFCF7A9F98D
:1043200041EC1A0B51EC190B53EC1A2BFCF700F96A
:104330000690CDE906519DED060B53EC192B51EC7F
:10434000100BFCF796F953EC1A2BFCF795F941EC9E
:10435000100B00F09FB90020B6F5801F0EDA9FED1C
:10436000E60B53EC102B9DED0C0B51EC100BFCF7F6
:1043700086F9CDE90C016FF034000E4600EB2650B3
:10438000A0F2FF38C6F31300DD4940F07F6646F027
:1043900040568842D8BF002409DDDA498142C8BFAF
:1043A000012404DC0024A6F5801608F10108D64893
:1043B000784400EBC4000D9690ED00BB9DED0C0B16
:1043C00053EC1B2B51EC100BFCF753F99DED0C0B30
:1043D00041EC1A0B53EC1B2B51EC100BFCF7A8F81B
:1043E00041EC100B51EC180B53EC102BFCF7E9FAD5
:1043F00041EC1C0B51EC1A0B53EC1C2BFCF73FF956
:1044000041EC190BC1488DED109B7844109590ED4F
:10441000000B4FF0005040EA660000EB84408DED49
:104420000A0B00F500200B909DED0A0B53EC1B2BA3
:1044300051EC100BFCF71DF99DED0C1B53EC112BEF
:10444000FCF71AF941EC100B53EC102B9DED100BFF
:1044500051EC100BFCF713F99DED0A0B41EC1B0B13
:1044600053EC102B9DED100B51EC100BFCF707F9E2
:1044700053EC1A2BFCF700F953EC1B2BFCF7F9F863
:1044800053EC1C2BFCF7FBF841EC1B0B53EC192BEA
:1044900051EC190BFCF7F3F841EC1A0B9C48062180
:1044A000B0EE4A0AF0EE6A0A784400F0E9FAB0EE9B
:1044B00040CAF0EE60CA53EC1A2B51EC1A0BFCF711
:1044C000DEF853EC1C2BFCF7DAF89DED100B41ECF9
:1044D0001A0B53EC192B51EC100BFCF729F853EC89
:1044E0001B2BFCF7CCF853EC1A2BFCF721F89DEDB5
:1044F000100B41EC1A0B53EC102B51EC100BFCF78A
:10450000BEF841EC1C0B9FED84DB53EC1D2BFCF73C
:104510000FF853EC1A2BFCF70BF80A90CDE90A516F
:104520009DED0A0B53EC1D2B51EC100BFCF7A1F881
:1045300053EC1C2BFCF79DF853EC1A2BFCF79CF862
:104540009DED0A0B41EC1C0B53EC102B9DED100B59
:1045500051EC100BFCF793F841EC1A0B53EC192BB0
:1045600051EC1C0BFCF78BF89DED0A0B41EC190B81
:1045700053EC102B51EC1B0BFCF781F853EC192B6F
:10458000FBF7D6FF41EC190B51EC1A0B53EC192B2E
:10459000FBF7CEFF1090CDE910519DED100B53ECC1
:1045A0001A2B51EC100BFCF764F853EC192BFCF7A9
:1045B00063F841EC190B9FED5A0B53EC102B9DED5A
:1045C000100B51EC100BFCF75AF841EC1A0B9FED55
:1045D000560B51EC190B53EC102BFCF750F841EC37
:1045E000190B9FED530B53EC102B9DED100B51EC61
:1045F000100BFCF744F853EC192BFBF799FF41EC37
:10460000100B4D48784400EBC40090ED001B51ECBA
:10461000100B53EC112BFBF78BFF41EC190B4046B1
:10462000FCF79FF8CDE90A0153EC192B51EC1A0B5A
:10463000FBF77EFF41EC100B4048784400EBC400D0
:1046400090ED00BB51EC100B53EC1B2BFBF770FFF4
:104650009DED0A1B53EC112BFBF76AFF0690CDE989
:1046600006519DED0A0B53EC102B9DED060B51EC02
:10467000100BFBF7FEFF53EC1B2BFBF7FAFF53EC81
:104680001A2BFBF7F6FF53EC192BFBF7F5FF41EC68
:10469000100B00BF781EB0EE48AAF0EE68AA5AEAE6
:1046A000000008BF9FED268B9DED241B53EC102BC3
:1046B0008DED001B00959DED240B51EC100BFBF7CD
:1046C000DEFF9DED000B41EC190B53EC102B9DED23
:1046D000240B51EC100BFBF7CCFF9DED061B53ECAC
:1046E000112BFBF7CCFF2FE0FE822B654715F73F20
:1046F00044DF5DF80BAE543E000000000000404374
:104700008E9803007AB60B00EC5800001A5900008E
:1047100024580000000000000000000000000840D5
:10472000000000E009C7EE3FFD033ADC09C7EE3F99
:10473000F5015B14E02F3EBEB85600007256000033
:10474000000000000000F0BF53EC192BFBF7F0FE57
:104750009DED060B41EC190B53EC102B9DED000B5E
:1047600051EC100BFBF78BFFCDE910019DED100B09
:1047700051EC190B53EC102BFBF7DAFECDE90201DB
:104780000C46AB498C422FDB611A084318D19DEDD2
:10479000100B53EC102B9DED020B51EC100BFBF7A3
:1047A00068FF41EC1B0B9FEDA40B51EC190B53EC74
:1047B000102BFBF7BDFE53EC1B2BFCF703F82DD29F
:1047C000022000F03DFA00F00BFA10EE901A18EEFD
:1047D000900A8DED020B8DED008B61F31E000390AE
:1047E0009DED020BFFF7EFBB954A24F0004191428B
:1047F00014D39449214408437FF4E5AC9DED100B9C
:1048000053EC102B9DED020B51EC100BFBF731FF1D
:1048100053EC192BFBF7D6FF7FF6D5AC24F0004004
:1048200089498A4A002601EB205182422BDA481C32
:104830004FF4801121FA00F02044854AC0F30A5158
:104840007A44A1F2FF3192ED000B824A8DED0A0B02
:10485000CA4020EA0202C0F3130040F48010C1F104
:10486000140120FA01F60B92002CB8BF76429DEDA0
:104870000A0B53EC102B9DED100B51EC100BFBF7BA
:10488000F8FECDE910019DED100B51EC190B53EC26
:10489000102BFBF74DFE9FED700B0A90CDE90A51EE
:1048A00053EC102B9DED0A0B51EC100BFBF7E7FEC0
:1048B00041EC1B0B9FED6A0B53EC102B9DED0A0B8B
:1048C00051EC100BFBF7DBFE9DED100B41EC1C0BCC
:1048D00053EC102B9DED0A0B51EC100BFBF7C9FEAE
:1048E00053EC192BFBF7C8FE9FED5F1B53EC112B0C
:1048F000FBF7C5FE53EC1C2BFBF71AFE41EC190B22
:1049000051EC1B0B53EC192BFBF712FECDE9020106
:104910009DED020B53EC1B2B51EC100BFBF7A9FE8A
:1049200053EC192BFBF7A8FE9DED020B41EC190B84
:1049300053EC102B51EC100BFBF7A1FECDE90A0153
:104940004B489DED0A0B0521784400F099F89DED48
:104950000A1B51EC100B53EC112BFBF790FE9DED55
:10496000021B53EC112BFBF787FECDE906019DEDF1
:10497000020B53EC192B51EC100BFBF780FE53ECA0
:10498000192BFBF7D5FD9FED3C0B41EC190B53ECBC
:10499000102B9DED060B51EC100BFBF76AFE9DED05
:1049A000060B41EC1B0B53EC102B9DED020B51EC55
:1049B000100BFBF764FE53EC1B2BFCF702F853ECD7
:1049C000192BFBF756FE9DED021B53EC112BFBF749
:1049D00050FE53EC1A2BFBF74FFECDE9020101EB21
:1049E000065001150029C8BF039015DC9DED020B90
:1049F000324651EC100BFCF753F8FFF70DFA042880
:104A000008BF00F0FDF832469DED020B51EC100B93
:104A1000FCF746F8CDE902019DED020B51EC180BB5
:104A200053EC102BFBF72BFEFFF72DBB0000000013
:104A30000000904000000000FE822B654715973C67
:104A400000CC904000346F3F01FCFFFF0000E03FCE
:104A5000E4540000FFFF0F0000000000432EE63F7B
:104A6000396CA80C615C20BEEF39FAFE422EE63F9D
:104A7000B4530000000000000000000000000040EF
:104A800070B504462DED028B4D1E00EBC500B0EE57
:104A9000408AF0EE608A90ED000B35F0060017D0EA
:104AA00053EC182B51EC100BFBF7E9FD41EC100B0C
:104AB0006D1E04EBC50090ED001B51EC100B53EC88
:104AC000112BFBF735FD41EC100B35F00600E7D15B
:104AD000022D36D0042D1CD0062D1CBFBDEC028B40
:104AE00070BD53EC182B51EC100BFBF7C8FD94ED87
:104AF0000A1B53EC112BFBF71BFD53EC182BFBF798
:104B0000BEFD94ED081B53EC112BFBF711FD41EC9E
:104B1000100B53EC182B51EC100BFBF7B0FD94ED80
:104B2000061B53EC112BFBF703FD53EC182BFBF783
:104B3000A6FD94ED040B53EC102BFBF7F9FC41ECB4
:104B4000100B53EC182B51EC100BFBF798FD94ED68
:104B5000021B53EC112BFBF7EBFC53EC182BFBF770
:104B60008EFD94ED001B53EC112BFBF7E1FCBDEC2B
:104B7000028B41EC100B70BD9FED070B10B553EC91
:104B8000102B9FED070B51EC100BFBF71AFF41ECBC
:104B9000100B10BD0000000000000000000000002D
:104BA000000000000000F03F10B553EC112B51EC59
:104BB000100BFBF7BDFC41EC100B10BD000000001A
:104BC0009FED050B10B553EC102B51EC100BFBF7C0
:104BD000F8FE41EC100B10BD0000000000000000CA
:104BE0009FED050B10B553EC102B51EC100BFBF7A0
:104BF00046FD41EC100B10BD0000000000000070ED
:104C00009FED050B10B553EC102B51EC100BFBF77F
:104C100036FD41EC100B10BD00000000000000103C
:104C200002E008C8121F08C1002AFAD17047704775
:104C3000002001E001C1121F002AFBD170470000D3
:104C40000149086070470000E40100202DE9FF5F82
:104C5000DDE90220010DDDF838B0024318D044F63A
:104C60001050A1F2FF3141430D140F98012820D0BC
:104C7000A5EB0B00401C5FEA000A4FF00004474E12
:104C8000DFF81C91A046504616D5CAF1000728E06F
:104C90000F98012443A2012808D0002100980F9BFF
:104CA000C0E90021C0E90243BDE8FF9F6FEA0B01A4
:104CB000F4E7CBF10000DEE7074612E0F80707D083
:104CC0002246334640464946FBF7D9FC8046894692
:104CD0002246334610461946FBF7D1FC04460E46E1
:104CE0007F10002FEAD1DDE90201BAF1000F424640
:104CF0004B4602DAFBF7C3FC01E0FBF762FE044619
:104D00000E460022284BFBF75DFD03D84FF0FF3025
:104D1000014607E00022254B20463146FBF708FC00
:104D2000FBF7D5FE102409E0002C0ADB0A22002341
:104D3000FBF7A4FA019B30321A55641E50EA0102B7
:104D4000F2D1641C019AC4F1110314440F9A012A90
:104D500003D0012208430DD10AE0084304D000200B
:104D60004FF0110B0F9080E7A3EB0B056D1E0DE0CC
:104D70005B4504DD4FF0000205F1010504E003DAB4
:104D80004FF00002A5F10105002AECD000980F9920
:104D9000C0E90231C0E9004586E700000000244078
:104DA0000000F03F300000000000F0430000E03F52
:104DB0002DE9FF4F95B09B468946064600250FE238
:104DC000252877D100242746F84A0121059400E0E0
:104DD000044316F8013F203B01FA03F01042F7D1DB
:104DE00030782A2811D06FF02F033078A0F13002EC
:104DF000092A16D8059A44F0020402EB820203EB5A
:104E000042021044761C0590EFE759F8042B0592F6
:104E1000002A03DA504244F40054059044F002049E
:104E2000761C30782E2816D116F8010F44F00404B1
:104E30002A280DD06FF02F023078A0F13003092B13
:104E400009D807EB870302EB4303C718761CF3E787
:104E500059F8047B761C30786C280FD006DC4C287F
:104E600017D068280DD06A2814D104E0742810D017
:104E70007A280FD10DE044F400140AE044F48014C1
:104E800001E044F440147278824202D104F58014A7
:104E9000761C761C307866280BD013DC582877D027
:104EA00009DC002875D04528F6D04628F4D04728DC
:104EB0001AD19DE118E0632835D0642879D065289F
:104EC00012D195E1702873D008DC6728F1D06928E9
:104ED0006FD06E280DD06F2806D1B5E073282CD086
:104EE000752875D0782874D05A46179990476D1C4C
:104EF00075E1C4F30250022809D003280DD0D9F877
:104F0000001004280DD00D6009F1040967E1D9F8FB
:104F10000010EA17C1E90052F6E7D9F800100D8039
:104F2000F2E70D70F0E719F8041B8DF8001000206F
:104F30008DF80100EA46012003E059F804AB4FF078
:104F4000FF3061074FF0000102D40DE008F10101CC
:104F50008846B9420FDA8045F8DB1AF808100029B4
:104F6000F4D108E008F1010188468142FADB1AF821
:104F700008100029F6D105985B46A0EB08072146EA
:104F80003846179A00F094FA284400EB080507E029
:104F90004DE029E10DE01AF8010B5A4617999047A8
:104FA000B8F10108F7D25B4621463846179A13E15B
:104FB00042E00A220092C4F302524FF0000A022A91
:104FC00008D059F804CB032A4FEAEC710AD00DE05F
:104FD00029E02AE009F1070121F00702F2E802C105
:104FE000914609E00FFA8CFC4FEAEC71042A03D1D8
:104FF0004FFA8CFC4FEAEC71002907DA0A460021CF
:10500000DCF1000C61EB02012D2202E0220504D547
:105010002B228DF80420012203E0E20701D0202298
:10502000F7E7904659E00A2102E010220DE0102136
:105030004FF0000A00910BE010224FF0000A44F0FC
:1050400004040827009203E008224FF0000A0092AF
:10505000C4F30252022A05D059F804CB0021032AD6
:1050600008D009E009F1070121F00702F2E802C1C6
:10507000914605E01FFA8CFC042A01D10CF0FF0CCC
:105080004FF00008220728D5702806D0009B83F037
:10509000100353EA0A0305D00EE040228DF80420E5
:1050A000012208E05CEA010206D030228DF80420DB
:1050B0008DF8050002229046009B83F0080353EA16
:1050C0000A030AD15CEA010201D1620705D5302248
:1050D0008DF804204FF001087F1E582804D034A01A
:1050E00003900EA802900DE036A0F9E75346604603
:1050F000009AFBF7C3F884460398825C0298401E2E
:10510000029002705CEA0100F0D1029806A9081A28
:1051100000F1200A600702D524F4803400E0012762
:10512000574502DDA7EB0A0000E0002000EB0A0172
:10513000009005984144401A0590E00306D45B4670
:105140002146179A059800F0B3F90544002706E0B8
:1051500001A85A46C05D179990476D1C7F1C4745B2
:10516000F6DBE0030CD55B462146179A059800F064
:105170009FF9054404E030205A46179990476D1C6A
:105180000099481E00900029F5DC08E00298029979
:105190005A460078491C0291179990476D1CBAF144
:1051A0000001AAF1010AF1DC65E100000928010013
:1051B000303132333435363738396162636465668D
:1051C000000000003031323334353637383941424F
:1051D000434445460000000000F058F90544761CA1
:1051E000307800287FF4ECAD19B02846BDE8F08F88
:1051F000620700D4062709F1070222F0070CFCE839
:105200000223E14603F000485FEA080C02D00FF2E7
:10521000702C0DE05FEA045C02D50FF2682C07E009
:105220005FEAC47C02D00FF2602C01E0AFF2700C98
:105230004FF0FF3823F00043CDF850C065280CD064
:1052400006DC452809D046281DD047283DD13DE041
:10525000662818D067287ED138E00021112F01DBA5
:10526000112000E0781CCDE9000106A90EA8FFF787
:10527000EDFCDDE90F010E9A03910021009207F188
:10528000010A04914DE04FF000400097CDE9011074
:1052900006A90EA8FFF7DAFCDDE90F0203920E9BC8
:1052A00011990022DDF80CA00093049211B9791C29
:1052B00000EB010AB7EB0A0004D4C0F1FF3007F19C
:1052C000010A0490AAEB0700019044E0012F00DAE4
:1052D00001270021112F01DD112000E03846CDE922
:1052E000000106A90EA8FFF7B1FCDDE90F010E9A37
:1052F0000391002104910092BA4621070CD403992E
:10530000514500DA8A46BAF1010F05DD009AAAF18B
:105310000101515C302908D0B84202DA10F1040FC3
:1053200006DA0121CDE9011015E0AAF10101E9E752
:10533000002805DC049901440491AAEB000102E075
:10534000411C514500DD8A460499401A401C0190D9
:105350004FF000400290200704D40198504501DB33
:10536000CDF8048000208DF84F0002980DF14F0712
:10537000B0F1004F25D02B200E9002984FF002087C
:1053800000280CDA404202902D200E9007E00A21FE
:105390000298FBF72FFA3031029007F8011DB8F19F
:1053A0000001A8F10108F2DC02980028EFD1791E73
:1053B0000E980870307800F0200040F0450007F8A3
:1053C000020D12A8C01B00F107081498007800B164
:1053D000012000EB0A01019801EBE07105984144BE
:1053E000401A401E0590E00306D45B462146179AFA
:1053F000059800F05DF805441498007818B15A46F5
:10540000179990476D1CE00324D55B462146179AF7
:10541000059800F04DF805441CE00498002807DBCF
:10542000DDE90301884203DD0098405C179901E043
:10543000179930205A469047049805F10105401C01
:1054400004900198401E019004D12E205A461799CD
:1054500090476D1CBAF10001AAF1010ADDDC05E0FC
:1054600017F8010B5A46179990476D1CB8F10001C7
:10547000A8F10108F4DC5B462146179A0598ABE6D3
:105480002D0000002B000000200000002DE9F0415D
:10549000044600251E461746880404D405E0394614
:1054A0002020B0476D1C641EF9D52846BDE8F08168
:1054B0002DE9F041044600251E469046C80301D55B
:1054C000302700E02027880404D505E0414638460F
:1054D000B0476D1C641EF9D52846BDE8F0810A6806
:1054E000531C0B601070704770B504461EE02568B1
:1054F000A08900F4807020B9A06810B1A068FFF7FF
:10550000F3FFA08900F4807028B9206918B1094917
:10551000206909688847206A18B10649206A096825
:10552000884720460349096888472C46002CDED16D
:1055300070BD00004C01002070B505460E46AC68F9
:1055400000E024682CB13146206A00F04FF80028B2
:10555000F7D1204670BD000010B528200549096824
:10556000884704461CB128212046FAF7D7FE20467A
:1055700010BD00004801002010B50446002211466D
:10558000204600F001F810BD2DE9F04780460D4699
:1055900016460024FFF7E0FF074600201249086086
:1055A0000FB9BDE8F087404602F09AFF81464946B0
:1055B000384601F031FA044624B93846FFF794FF23
:1055C0000020EEE766B1204602F08AFF044620780C
:1055D00030B13846FFF788FF034804600020E0E759
:1055E00005B12C603846DCE74401002070B5044664
:1055F0000D462CB9AC4201D0012070BD0020FCE763
:105600000DB90120F9E705E0207808B90020F4E79A
:10561000641C6D1C2078FAF762FE06462878FAF7BB
:105620005EFE8642F0D02078FAF759FE06462878CA
:10563000FAF755FE301AE0E72DE9FF470646C82085
:1056400002F026F80446062002F022F80546C8209B
:1056500002F01EF80746002003908046039008F1F0
:1056600030008DF80C00012E4FD1C8212046FAF7EA
:1056700055FE00202860A880C8213846FAF74EFE63
:10568000324801683846FAF779FE30490868FAF777
:105690006EFE81464A462EA12846FEF7A9FB2DA1A3
:1056A0002046FAF76BFE29462046FAF742FE2DA166
:1056B0002046FAF73EFE00BF4FF498702AA3314A05
:1056C00031A1CDE9000432A0FEF782FB00BF2046E5
:1056D000FEF762FBC8212046FAF720FE642003F0A3
:1056E000DFF800BF3846FAF742FE81464FF49A7061
:1056F0001DA3244A24A18DE881022CA0FEF768FB9B
:1057000000BF3846FEF748FB17E0C8212046FAF7ED
:1057100005FE0E4801682046FAF730FE2046FEF7E7
:105720003BFB00BF4FF49E700FA3164A16A1CDE9B4
:10573000000427A0FEF74CFB00BF284602F0B0FF94
:10574000204602F0ADFFBDE8FF8700007802002090
:105750002564000041542B54435053454E443D3082
:105760002C0000000D0A00002E2E5C5372635C6D4D
:105770006573736167655C6D6573736167652E63DF
:1057800000000000769B0008444542554700000099
:105790005B2573207C202573204025732C25645DB8
:1057A0002061745F636D643A202573005B2573206C
:1057B0007C202573204025732C25645D2073656E45
:1057C000646D73673A2025732025640D0A0000007C
:1057D0005B2573207C202573204025732C25645D78
:1057E0002073656E64206D6573736167653A20256B
:1057F0007300000082B0CDE9000121F0004001906B
:105800009DED000B02B051EC100B704713B50C4628
:105810004FF6FF73012269460248FDF7B6F800987B
:105820001CBD0000A40200201CB5002038490870EF
:1058300048700871A02001F02BFF0446A0212046EB
:10584000FAF76CFD00BFBC2032A3374A37A10090A5
:1058500038A0FEF7BDFA00BF1E212D483430FAF7FC
:105860005DFD14223B492A483430FAF73EFD2848B2
:10587000523038494A690260098B818000BF1E3866
:10588000C12124A3284ACDE9001033A134A0FEF79A
:105890009FFA00BF00BF1E485230C2211DA3224AFA
:1058A000CDE900102CA138A0FEF792FA00BF032228
:1058B0000021012003F040FB1549C1F8DC00032260
:1058C0000021012003F038FB1149C1F8E000032258
:1058D0000021012003F030FB0D49C1F8E400002253
:1058E0001E21012003F028FB0949C1F8EC00002229
:1058F0007821012003F020FB0549C1F8E8000022CF
:105900000A21012003F018FB0149C1F8F0001CBD79
:10591000240000202E2E5C5372635C677072735CEF
:10592000677072732E630000D79B00084445425590
:10593000470000005B2573207C20257320402573E1
:105940002C25645D204750525320436F6E66696773
:105950000D0A000088020020494E464F5200000008
:105960005B2573207C202573204025732C25645DE6
:105970002067477072732E677072734950203A2007
:1059800025730D0A000000005B2573207C20257321
:10599000204025732C25645D2067477072732E6745
:1059A000707273506F7274203A2025730D0A0000D4
:1059B0001CB500BF1E202BA32F4A30A1009031A0A0
:1059C000FEF706FA00BF012038490870002436E0CF
:1059D00001F080F8002825DD00BF242021A3264AFD
:1059E00026A1009032A0FEF7F3F900BF00202F4956
:1059F000087001213C48006803F07FF901202B4921
:105A0000087100F0BBF800202849087100BF2A2067
:105A100014A3194A35A1009036A0FEF7D9F900BFAA
:105A200001201CBD00BF601C30210EA3124ACDE92D
:105A3000001012A13BA0FEF7CBF900BF641C052C9F
:105A4000C6DB00BF322007A30B4A0CA1009042A086
:105A5000FEF7BEF900BF03F0C7F802F081FD002099
:105A6000DFE700002E2E5C5372635C677072735C1C
:105A7000677072732E630000929B0008545241437A
:105A8000450000005B2573207C2025732040257392
:105A90002C25645D206770727320636F6E6E656382
:105AA000742073746172740D0A00000024000020D9
:105AB0005B2573207C202573204025732C25645D95
:105AC000204750525320436F6E6E65636574207497
:105AD0006F20636C6F7564207375636365737366A1
