:020000040800F2
:10000000C88600205902000885260008C31F000882
:10001000592100089B080008ED2F0008000000008F
:100020000000000000000000000000009D0100082A
:10003000B108000800000000F1010008DD270008F9
:1000400073020008730200087302000873020008BC
:1000500073020008730200087302000873020008AC
:10006000730200087302000873020008730200089C
:10007000730200087302000873020008730200088C
:10008000730200087302000873020008730200087C
:10009000A108000873020008730200087302000838
:1000A000730200087302000873020008730200085C
:1000B000730200087302000873020008730200084C
:1000C000730200087302000873020008730200083C
:1000D000730200084D2F00085D2F0008DD2F000877
:1000E000730200087302000873020008730200081C
:1000F000730200087302000873020008730200080C
:1001000073020008730200082D290008730200081A
:1001100073020008730200087302000873020008EB
:1001200073020008730200087302000873020008DB
:1001300073020008000000000000000073020008C5
:1001400073020008730200087302000873020008BB
:1001500073020008730200087302000873020008AB
:10016000730200087302000873020008730200089B
:100170007302000873020008000000000000000085
:100180007302000873020008DFF80CD000F056FB81
:100190000048004771460008C88600202B4B1968AC
:1001A0000868B0E8F04F80F30988BFF36F8F4FF015
:1001B000000080F3118870470000000006480068C6
:1001C000006880F3088862B661B6BFF34F8FBFF353
:1001D0006F8F00DF00BF00BF08ED00E0DFF80C000C
:1001E000016841F470010160704700BF88ED00E0D4
:1001F000EFF30980BFF36F8F144B1A681EF0100FD6
:1002000008BF20ED108A20E9F04F106008B44FF0CD
:10021000500080F31188BFF34F8FBFF36F8F06F04C
:1002200077F84FF0000080F3118808BC196808685F
:10023000B0E8F04F1EF0100F08BFB0EC108A80F34A
:100240000988BFF36F8F704700BF00BF70010020A7
:10025000EFF30580704700000648804706480047D6
:10026000FEE7FEE7FEE7FEE7FEE7FEE7FEE7FEE766
:10027000FEE7FEE7C9280008890100082DE9F05FC4
:100280000546002092469B46884606468146402405
:100290001BE0284641464746224600F0C8F953462F
:1002A0005A46C01A914110D311461846224600F012
:1002B000AFF92D1A67EB01084F46224601200021B5
:1002C00000F0A6F917EB00094E41201EA4F101042D
:1002D000DFDC484631462A464346BDE8F09F40EA07
:1002E00001039B0703D009E008C9121F08C0042AB4
:1002F000FAD203E011F8013B00F8013B521EF9D29B
:100300007047D2B201E000F8012B491EFBD27047C2
:100310000022F6E710B513460A4604461946FFF7D1
:10032000F0FF204610BD421E12F8013F002BFBD10A
:1003300011F8013B02F8013B002BF9D1704730B5B1
:1003400005462A460B4612F8010B13F8014B08B17B
:10035000A042F8D01CB1002802D06D1CF1E728465D
:1003600030BD421C10F8011B0029FBD1801A7047D8
:10037000034611F8012B00F8012B002AF9D1184689
:1003800070472DE9FE4F804681EA0300C00F0C46FE
:10039000009021F0004123F00045B8EB0200A94194
:1003A00005D24046214690461C460B46024623F0A5
:1003B0000040104347D0270DC7F30A00C3F30A518A
:1003C0000290401A019040286BDAC3F3130040F406
:1003D000801B0098924620B10023D2EB030A63EB06
:1003E0000B0B01985946C0F14002504600F010F93D
:1003F00006460D4650465946019A00F028F910EB82
:1004000008006141002487EA115284EAE7731A4325
:1004100040D0009A62B3019A012A4FEA075215DCD4
:10042000001B61EB02014FF0004202EA0752CDE9E6
:100430000042001C41F5801132462B4600F028F99D
:1004400003B0BDE8F08F40462146F9E7001B61EBA1
:100450000201001C41F5801300185B412018A2F531
:10046000001747EB030140EAD570B6196D4111E062
:100470006D084FEA360645EAC0754FEA0752001B81
:1004800061EB0201001C41F5801149084FEA300080
:100490000019514132462B4603B0BDE8F04F00F041
:1004A000E8B80098012240000023D0EB020263EB81
:1004B000E073009821464FEAE074B8EB000061EB6E
:1004C0000401E9E783F000435BE781F0004158E76E
:1004D0002DE9FE4F81EA030404F0004421F00041BD
:1004E00000944FF0000B23F0004350EA01045ED06B
:1004F00052EA03045BD0C3F30A54C1F30A552C44F7
:10050000A4F2F3340194A0FB0254C1F3130141F4AB
:100510008011C3F3130343F4801301FB024400FB77
:10052000034E840A970A44EA815447EA8357A4FB9E
:10053000076802958D0A05FB07854FEA932C04FB9B
:100540000C542705029D4FEA065847EA1637B5EBCB
:1005500008056EEB070C870E920E47EA811742EAF8
:100560008312A7FB0201B6EB0B0164EB00042B0D19
:1005700043EA0C335E1844EB1C50DA465146E7FB65
:100580000201C5F313044FEA0B3343EA14534FEA55
:100590000432019C43EA0603A4F10C040294009C7B
:1005A000CDE900B400F074F803B0BDE8F08F00208E
:1005B0000146F9E730B5041E71F1000404DB4FF089
:1005C0000044404264EB0101141E73F1000405DB9A
:1005D0001C464FF00043524263EB0403994208BFAC
:1005E000904230BD30B50B46014600202022012448
:1005F00009E021FA02F59D4205D303FA02F5491BF1
:1006000004FA02F52844151EA2F10102F1DC30BD06
:10061000202A04DB203A00FA02F1002070479140C2
:10062000C2F1200320FA03F3194390407047202AB7
:1006300004DB203A21FA02F00021704721FA02F38C
:10064000D040C2F120029140084319467047202A49
:1006500006DBCB17203A41FA02F043EAE07306E0EA
:1006600041FA02F3D040C2F12002914008431946FA
:10067000704710B5141E73F1000408DA401C41F1F4
:10068000000192185B411A4301D120F0010010BD16
:100690002DE9F04D92469B4611B1B1FA81F202E08C
:1006A000B0FA80F220329046FFF7B2FF04460F46C0
:1006B00040EA0A0041EA0B0153465A46084313D068
:1006C000114653EA010019D0C8F140025046FFF725
:1006D000AEFF05460E46504659464246FFF798FF84
:1006E000084305D0012004E020463946BDE8F08DDE
:1006F0000020054346EAE0762C4337430A98630519
:10070000E40AA0EB08000022FD0A44EA47540A303C
:1007100002D500200146E9E7010510196941DDE92C
:10072000084500196941BDE8F04DA2E72DE9F04DFB
:1007300081EA030404F0004B21F0004514464FF019
:10074000000A23F0004150EA050220D054EA0102D9
:100750001DD0C5F30A570246C5F31303C1F31300B6
:10076000C1F30A5640F4801543F48013A7EB060842
:10077000101BD64608F2FD3873EB050002D308F1D2
:10078000010801E092185B41B8F1000F03DA002084
:100790000146BDE8F08D00204FF4801106468446E6
:1007A0000EE0171B73EB050705D3121B63EB050364
:1007B00006434CEA010C49084FEA300092185B41AD
:1007C00050EA0107EDD152EA030012D082EA040098
:1007D00083EA0501084305D0101BAB4106D2012274
:1007E000002306E000224FF0004302E06FF0010218
:1007F00053101AEB06004CEB085110EB0A0041EBCA
:100800000B01BDE8F04DFFF734BFC1F30A52C1F34D
:10081000130140F2FF3341F480119A4202DA0020C2
:100820000146704740F233439A42A2F2334202DC5F
:100830005242FFF7FCBEFFF7EBBE0000064C074D2F
:1008400006E0E06840F0010394E8070098471034A0
:10085000AC42F6D3FFF79CFC4073000860730008BD
:1008600030B58C1810F8012B12F00F0301D110F8DD
:10087000013B120906D110F8012B03E010F8015BCF
:1008800001F8015B5B1EF9D101E001F8013B521E4A
:10089000FBD1A142E6D3002030BD00BFFEE700003F
:1008A00010B5024800F0CAF810BD00002C0200206C
:1008B0007047704730B5044694F82000012803D0F3
:1008C00094F8200002287DD151B92068C06800F05A
:1008D000030090B9606A40F400106062012030BDEE
:1008E00001290AD12068006900F0030028B9606A74
:1008F00040F4001060620120F1E7206800F5D87034
:1009000000EB0110006800F004009060906840B9AE
:10091000206800F5D87000EB01100068400D1060F1
:1009200007E0206800F5D87000EB01100068C008EF
:100930005060206800F5D87000EB0110006800F0EE
:1009400002004008D060206800F5D87000EB01106C
:10095000406800F00F001061206800F5D87000EBCF
:100960000110406800F47F40000A9061206800F5A3
:10097000D87000EB01104068000C5061206800F551
:10098000D87000EB011080681870206800F5D870EE
:1009900000EB0110806800F47F40000A5870206866
:1009A00000F5D87000EB0110806800F47F00000CA7
:1009B0009870206800F5D87000EB01108068000E78
:1009C000D87000E034E0206800F5D87000EB01102A
:1009D000C0681871206800F5D87000EB0110C0687D
:1009E00000F47F40000A5871206800F5D87000EBD1
:1009F0000110C06800F47F00000C9871206800F5B9
:100A0000D87000EB0110C068000ED87131B92068B1
:100A1000C06840F020002568E86007E0012905D1A2
:100A20002068006940F0200025682861002056E712
:100A3000606A40F480206062012050E72DE9F05F99
:100A400004460025206846692068D0F80490206894
:100A500087682068D0F80CA02068D0F810B0206813
:100A6000D0F8188006F00100002855D007F00100EA
:100A7000C0B101202168886007F0020018B120464B
:100A800000F03EF90EE007F0040010B145F40065F7
:100A900008E007F0080010B145F4805502E0204658
:100AA00000F02DF907F48070C8B14FF48070216810
:100AB000886007F4007018B1204600F023F90EE0BA
:100AC00007F4806010B145F4005508E007F40060B9
:100AD00010B145F4804502E0204600F012F907F419
:100AE0008030C8B14FF480302168886007F400304E
:100AF00018B1204600F008F90EE007F4802010B18C
:100B000045F4004508E007F4002010B145F48035B5
:100B100002E0204600F0F7F806F0080038B10AF0CD
:100B2000100020B145F4007510202168C86006F05F
:100B3000040040B10AF0080028B108202168C8600C
:100B4000204600F0A2F806F0020038B12068C06824
:100B500000F0030010B1204600F098F806F04000C5
:100B600038B10BF0100020B145F4806510202168E9
:100B7000086106F0200040B10BF0080028B1082001
:100B800021680861204600F0B7F806F0100038B17F
:100B90002068006900F0030010B1204600F0ADF8B5
:100BA00006F4003040B109F0100028B1102021688F
:100BB0004860204600F0A2F806F4803040B109F009
:100BC000080028B1082021684860204600F09DF800
:100BD00006F4004088B309F0040078B306F480708E
:100BE00020B108F0010008B145F0010506F40070DD
:100BF00020B108F0020008B145F0020506F480605B
:100C000020B108F0040008B145F0040506F40060C6
:100C1000A0B108F0700088B108F07000402817D02B
:100C200006DC10280BD020280CD0302819D10CE07D
:100C3000502810D0602814D110E01DE019E045F0D4
:100C400008050FE045F010050CE045F0200509E02F
:100C500045F0400506E045F0800503E045F4807569
:100C600000E000BF00BF2068806920F070002168AC
:100C700088610420216848602DB1606A2843606261
:100C80002046FFF716FEBDE8F09F704770B504469A
:100C90000F492068884210D10E4B0F4A0021204690
:100CA000FFF708FE002505E00A48415D0BA002F0B1
:100CB000BBF96D1C082DF7DB09E00C492068884260
:100CC00005D10B4B0B4A00212046FFF7F3FD70BD09
:100CD0000064004000000020F401002052784D65BF
:100CE0007373616765313A25780D0A00006800402A
:100CF00008000020100200207047704770477047BE
:100D0000704770477047704770477047014691F8C9
:100D10003500022803D08020486501207047052057
:100D200081F835000868006820F001000A6810604A
:100D30000020F3E770B5044600F01AF90646254690
:100D4000681C10B104480078054400BF00F010F999
:100D5000801BA842FAD370BD44010020F8B50246BA
:100D60000B460025002400200021DCE0012606FAC5
:100D700001F51E6806EA0504AC4273D15E68022ED6
:100D800002D05E68122E13D1CF0802F1200656F869
:100D900027004E07F70E0F26BE40B0434F07FF0E49
:100DA0001E69BE403043CF0802F1200646F82700F6
:100DB00010684F000326BE40B0431E7906F00306BC
:100DC0004F00BE40304310605E68012E08D05E6860
:100DD000022E05D05E68112E02D05E68122E13D14D
:100DE00090684F000326BE40B0434F00DE68BE400F
:100DF00030439060506801268E40B0431E79C6F3A0
:100E000000168E4030435060D0684F000326BE402D
:100E1000B0434F009E68BE403043D0605E6806F02D
:100E20008056B6F1805F7DD100BF00260096404E0F
:100E3000366846F480463E4F3E603E46366806F4CD
:100E40008046009600BF00BF3A4E8F0856F8270034
:100E50008E07370F0F26BE40B043374EB24202D145
:100E6000002624E05EE0354EB24201D101261EE0AC
:100E7000334EB24201D1022619E0324EB24201D1C4
:100E8000032614E0304EB24201D104260FE02F4E6B
:100E9000B24201D105260AE02D4EB24201D106260A
:100EA00005E02C4EB24201D1072600E008268F074C
:100EB0003F0FBE4030431F4E8F0846F82700264E96
:100EC0003068A0435E6806F48036B6F5803F00D1F6
:100ED0002043214E3060361D3068A0435E6806F422
:100EE0000036B6F5003F00D120431B4E361D306062
:100EF000361D3068A0435E6806F48016B6F5801F84
:100F000000D12043144E08363060361D3068A043AF
:100F10005E6806F40016B6F5001F00D120430E4EA1
:100F20000C363060491C1029FFF420AFF8BD0000DA
:100F300044380240083801400000024000040240EA
:100F400000080240000C0240001002400014024061
:100F500000180240001C0240003C014042694A4027
:100F6000426170470AB1816101E00B0483617047FF
:100F700001480068704700003C01002003480068F9
:100F80000349097808440149086070473C01002082
:100F90004401002010B50D48006840F400700B4972
:100FA00008600846006840F48060086008460068F1
:100FB00040F480700860032000F0EAF8002000F0A0
:100FC00007F800F04BF8002010BD0000003C024084
:100FD00070B588B004460025002600222146322044
:100FE00000F097F8322000F087F800BF0020019051
:100FF0001648006840F00800144908600846006878
:1010000000F00800019000BF00BF02A903A800F093
:10101000B5F900F0DBF945000D48B5FBF0F0461ED0
:101020000C480D49086040F2E7310B48C16046604A
:1010300000210161816000F095FC20B9064800F0B4
:10104000DDFC08B070BD0120FBE700004038024025
:1010500040420F00000C00404007002008B500BFD0
:10106000002000902348006840F480402149086037
:101070000846006800F48040009000BF00BF00BF39
:1010800000200090081F006840F08050091F086091
:101090000846006800F08050009000BF00BF0320A9
:1010A00000F076F8002211466FF00B0000F031F8E6
:1010B000002211466FF00A0000F02BF800221146C2
:1010C0006FF0090000F025F800221146501F00F0D3
:1010D00020F800221146101F00F01BF800220F21FB
:1010E000901E00F016F800220F21501E00F011F89B
:1010F00008BD00004438024000BF00F01F0201217B
:1011000091404209920002F1E022C2F8001100BFB2
:1011100070472DE9F05F80460D461646002701F026
:10112000B3FA074639462A46334601F00700C0F1B4
:10113000070ABAF1040F02D94FF0040A01E0C0F126
:10114000070AD14600F1040ABAF1070F02D24FF0A4
:10115000000A01E0A0F1030AD4464FF0010A0AFA9E
:1011600009FAAAF1010A0AEA020A0AFA0CFA4FF08D
:10117000010B0BFA0CFBABF1010B0BEA030B4AEA78
:101180000B042146404601F087FABDE8F09F0000BD
:1011900000BF00F00702064B19684FF6FF03194025
:1011A000044B0B4343EA0221014B196000BF704717
:1011B0000CED00E00000FA0500BF00BF00BF00BF5B
:1011C00000BFBFF34F8F00BF00BF00BF09480068DA
:1011D00000F4E06008490843001D0649086000BFAC
:1011E00000BF00BFBFF34F8F00BF00BF00BF00BFF5
:1011F00000BFFDE70CED00E00000FA0570B5044605
:101200000D460CB9012070BD5848006800F00F0071
:10121000A84209D255490D700846006800F00F0039
:10122000A84201D00120EEE7207800F00200022859
:101230001DD1207800F00400042805D14C48006836
:1012400040F4E0504A490860207800F0080008287F
:1012500005D14748006840F460404549086044486B
:10126000006820F0F000A168084341490860207838
:1012700000F00100A8B36068012807D13C48083895
:101280000068C0F34040B8B90120BCE7606802289C
:1012900002D06068032807D1354808380068C0F3D9
:1012A000406048B90120AEE7314808380068C0F313
:1012B000400008B90120A6E72D48006820F003008F
:1012C000616808432A490860FFF752FE064609E0B4
:1012D000FFF74EFE801B41F28831884202D903207D
:1012E00091E707E02248006800F00C006168B0EB6D
:1012F000810FEDD11D48006800F00F00A84209D908
:101300001A490D700846006800F00F00A84201D08D
:10131000012078E7207800F00400042807D1144861
:10132000006820F4E050E168084311490860207823
:1013300000F00800082808D10D48006820F460403B
:10134000216940EAC1000A49086000F05FF80849D5
:101350000968C1F30311074A515CC8400649086097
:101360000020FFF735FE00204DE70000003C024062
:101370000838024028730008480100200F2202604C
:101380000D4A126802F0030242600B4A126802F032
:10139000F0028260084A126802F4E052C260064A13
:1013A000126802F46042D2080261044A126802F034
:1013B0000F020A607047000008380240003C0240FB
:1013C00001480068704700004801002000B5FFF7A1
:1013D000F7FF04490968C1F38221034A515CC84000
:1013E00000BD0000083802403873000800B5FFF760
:1013F000E7FF04490968C1F34231034A515CC84020
:1014000000BD000008380240387300082DE9F0479D
:10141000002400250026A1462548006800F00C00A5
:1014200020B1042805D008283AD105E0DFF88490DF
:1014300039E0DFF8849036E01D48001F006800F0B6
:101440003F041B48001F006800F4800078B11A4870
:101450001749091F0968C1F38811A0FB01700146F3
:10146000224600233846FEF709FF05460EE01148E4
:101470000F49091F0968C1F38811A0FB01700146DB
:10148000224600233846FEF7F9FE05460848001FAD
:101490000068C0F30140401C4600B5FBF6F902E0CD
:1014A000DFF8109000BF00BF4846BDE8F08700009D
:1014B000083802400024F40000127A00F8B504460F
:1014C0000CB90120F8BD207800F00100002874D08C
:1014D000F948006800F00C0004280DD0F6480068B8
:1014E00000F00C00082813D1F348001F006800F436
:1014F0008000B0F5800F0BD1EF4808380068C0F3CA
:101500004040002859D06068002856D10120D9E712
:1015100000BF6068B0F5803F08D1E7480838006830
:1015200040F48030E449083908601EE06068B0F596
:10153000A02F0DD1E0480838006840F48020DE4933
:10154000083908600846006840F4803008600CE004
:10155000D9480838006820F48030D7490839086035
:101560000846006820F48020086000BF606890B1E1
:10157000FFF7FEFC054606E0FFF7FAFC401B642877
:1015800001D903209EE7CC4808380068C0F34040EA
:101590000028F1D011E0FFF7EBFC054606E0FFF76D
:1015A000E7FC401B642801D903208BE7C2480838B8
:1015B0000068C0F340400028F1D1207800F002001C
:1015C00002285FD1BC48006800F00C0058B1BA484E
:1015D000006800F00C0008281CD1B748001F006804
:1015E00000F48000B0B9B44808380068C0F3400087
:1015F00020B1E068012801D0012063E7AE48083837
:10160000006820F0F800216940EAC100AA490839C1
:10161000086037E0E06800B30120A8490860FFF7E0
:10162000A7FC054606E0FFF7A3FC401B022801D9F2
:10163000032047E7A04808380068C0F340000028AE
:10164000F1D09D480838006820F0F800216940EA90
:10165000C10099490839086014E0002097490860E2
:10166000FFF786FC054606E0FFF782FC401B0228D8
:1016700001D9032026E7904808380068C0F34000ED
:101680000028F1D1207800F0080008282CD16069EA
:10169000A8B101208A490860FFF76AFC054606E008
:1016A000FFF766FC401B022801D903200AE78248A5
:1016B0006C300068C0F340000028F1D014E0002036
:1016C0007F490860FFF754FC054606E0FFF750FC31
:1016D000401B022801D90320F4E677486C300068EB
:1016E000C0F340000028F1D1207800F00400042865
:1016F00070D1002670483830006800F0805090B9F2
:1017000000BF002000906C483830006840F08050E6
:101710006949383108600846006800F08050009040
:1017200000BF00BF01266748006800F48070B0B9B0
:101730006448006840F4807062490860FFF718FC54
:10174000054606E0FFF714FC401B022801D90320E0
:10175000B8E65C48006800F480700028F2D000BF52
:10176000A068012808D154486830006840F00100A2
:101770005149683108601DE0A06805280DD14E4828
:101780006830006840F004004B4968310860084642
:10179000006840F0010008600CE0474868300068CD
:1017A00020F001004449683108600846006820F0D4
:1017B0000400086000BFA068A8B1FFF7D9FB054688
:1017C00009E0FFF7D5FB401B41F28831884202D97E
:1017D000032077E626E0384868300068C0F3400010
:1017E0000028EED013E0FFF7C3FB054608E0FFF743
:1017F000BFFB401B41F28831884201D9032061E6DA
:101800002D4868300068C0F340000028EFD1012E59
:1018100007D129483830006820F0805026493831F7
:10182000086000BFA069B8B32348006800F00C004E
:1018300008285ED0A069022846D100201F4908660A
:10184000FFF796FB054606E0FFF792FB401B0228D8
:1018500001D9032036E6184808380068C0F3406014
:101860000028F1D1D4E907010843616A40EA8111F7
:101870000122A06AC2EB500041EA00412C20005D29
:1018800041EA00600C49091F086001200B49086605
:10189000FFF76EFB054607E02DE0FFF769FB401BF5
:1018A000022801D903200DE6034808380068C0F378
:1018B00040600028F1D01EE0083802400000474296
:1018C000800E47420070004000200C490866FFF778
:1018D0004FFB054606E0FFF74BFB401B022801D9F2
:1018E0000320EFE506480068C0F340600028F2D10D
:1018F00001E00120E6E50020E4E5000000004742A9
:1019000000380240042808D14FF0E021096941F075
:1019100004014FF0E022116107E04FF0E021096976
:1019200021F004014FF0E0221161704770B50446C8
:101930002546681EB0F1807F01D301200FE0681EAC
:101940004FF0E02148610F214FF0FF3000F0A4FE7E
:1019500000204FF0E021886107200861002070BD61
:101960007047704710B504460CB9012010BD94F8BB
:10197000390028B9002084F83800204600F00CF81F
:10198000022084F83900211D206800F0D7FF0120D3
:1019900084F839000020E9E708B5154A016891424A
:1019A0000FD100BF002100911249096841F00101E7
:1019B000104A11601146096801F00101009100BF51
:1019C00015E00D4A0168914211D100BF002100913C
:1019D0000849091F096841F00201064A121F1160F7
:1019E0001146096801F00201009100BF00BF08BD67
:1019F00000000140443802400004004001460868ED
:101A0000C06840F001000A68D0600868006840F0D3
:101A100001000A68106000207047704710B5044646
:101A200020680069C0F34000D8B12068C068C0F3E6
:101A30004000B0B16FF002002168086101202076FB
:101A40002068806900F0030018B12046FFF7E5FF29
:101A500005E0204600F0ADF8204600F0ABF800208D
:101A6000207620680069C0F38000D8B12068C06883
:101A7000C0F38000B0B16FF004002168086102205B
:101A800020762068806900F4407018B12046FFF786
:101A9000C4FF05E0204600F08CF8204600F08AF8EC
:101AA0000020207620680069C0F3C000D8B120680B
:101AB000C068C0F3C000B0B16FF0080021680861D1
:101AC000042020762068C06900F0030018B1204689
:101AD000FFF7A3FF05E0204600F06BF8204600F07A
:101AE00069F80020207620680069C0F30010D8B1A2
:101AF0002068C068C0F30010B0B16FF0100021681A
:101B00000861082020762068C06900F4407018B190
:101B10002046FFF782FF05E0204600F04AF8204605
:101B200000F048F8002020762068006900F00100ED
:101B300058B12068C06800F0010030B16FF00100BA
:101B400021680861204600F037F820680069C0F37A
:101B5000C01058B12068C068C0F3C01030B16FF039
:101B60008000216808612046FFF7FAFE20680069BE
:101B7000C0F3801058B12068C068C0F3801030B145
:101B80006FF0400021680861204600F021F82068CD
:101B90000069C0F3401058B12068C068C0F340101D
:101BA00030B16FF02000216808612046FFF7D9FEB0
:101BB00010BD70477047000010B504460349206807
:101BC000884201D1FFF7DAF910BD0000000C004097
:101BD000704770472DE9F047044620680568206883
:101BE000C668206847694FF00008C14605F00F0835
:101BF000B8F1000F0AD105F0200038B106F020003E
:101C000020B1204600F036FFBDE8F087B8F1000FA4
:101C10006DD007F0010018B906F49070002866D066
:101C200005F0010030B106F4807018B1E06B40F0AF
:101C30000100E06305F0040030B107F0010018B1C5
:101C4000E06B40F00200E06305F0020030B107F005
:101C5000010018B1E06B40F00400E06305F00800FB
:101C600030B107F0010018B1E06B40F00800E0630C
:101C7000E06B68B305F0200028B106F0200010B139
:101C8000204600F0F7FE20684069C0F38019E06B41
:101C900000F0080010B9B9F1000F22D0204600F082
:101CA000C9FE2068406900F04000B0B1206840697A
:101CB00020F0400021684861606B50B11748616BAB
:101CC0000865606BFFF722F810B1606B016D884703
:101CD0000CE02046FFF77DFF08E02046FFF779FF84
:101CE00004E02046FFF775FF0020E0638CE705F075
:101CF000800030B106F0800018B1204601F0BCF839
:101D000082E705F0400030B106F0400018B12046EF
:101D100000F0A0FE78E700BF76E70000212A000867
:101D200010B504460CB9012010BDA06900B100E057
:101D300000BF94F8390028B9002084F83800204604
:101D400000F028F8242084F839002068C06820F4C6
:101D500000502168C860204600F0DAFE2068006963
:101D600020F49040216808612068406920F02A0032
:101D7000216848612068C06840F400502168C8604C
:101D80000020E063202084F8390084F83A00002025
:101D9000CAE7000010B586B004464C492068884266
:101DA00027D100BF002000904948006840F0100093
:101DB000474908600846006800F01000009000BF26
:101DC00000BF4FF4C06001900220029001200390F8
:101DD000032004900720059001A93E48FEF7BEFFAE
:101DE000002205212520FFF794F92520FFF784F92B
:101DF00069E039492068884238D100BF002000904E
:101E00003348001F006840F400303149091F086062
:101E10000846006800F40030009000BF00BF0C20AE
:101E200001900220029001200390032004900720DB
:101E3000059001A92748FEF791FF002206212620E0
:101E4000FFF767F92620FFF757F924480068C068B4
:101E500040F0200021490968C86020480068C06837
:101E600040F010001D490968C8602CE01C4920683A
:101E7000884228D100BF002000901548001F00684C
:101E800040F480201249091F08600846006800F4E9
:101E90008020009000BF00BF4FF4406001900220FE
:101EA000029001200390032004900720059001A9CF
:101EB0000C48FEF753FF002205212720FFF729F9E0
:101EC0002720FFF719F906B010BD000000100140EF
:101ED000443802400000024000440040C00200209C
:101EE000004800400004024070472DE9F8430446D2
:101EF0000D4616461F464FF0000994F83900202879
:101F00005CD105B116B90120BDE8F88300BF94F893
:101F10003800012801D10220F6E7012084F83800BA
:101F200000BF0020E063212084F83900FFF720F88B
:101F30008146A684E6842BE0E08C401EE084A06805
:101F4000B0F5805F16D14B460022802120460097D5
:101F500000F0C6FF08B10320D6E7A846B8F8000095
:101F6000C0F3080021684860206908B9AD1C0FE083
:101F70006D1C0DE04B46002280212046009700F0AA
:101F8000AFFF08B10320BFE715F8010B21684860D7
:101F9000E08C0028D0D14B460022402120460097FB
:101FA00000F09EFF08B10320AEE7202084F839003E
:101FB00000BF002084F8380000BFA5E70220A3E797
:101FC000704700BFFEE7000044E023480068002897
:101FD0003DD000212048006804F0E0F9044604F0F8
:101FE000010028B1002210211C48FEF7BBFF04E0CD
:101FF000012210211948FEF7B5FF04F0020040B19C
:1020000020211648FEF7AAFF4FF47A70FEF792FEE1
:1020100004E0012220211148FEF7A4FF04F008008B
:1020200050B1012204210D48FEF79CFF002202213D
:102030000B48FEF797FF09E0002204210748FEF74E
:1020400091FF012202210648FEF78CFF0024322076
:1020500003F0B2FFB9E700002001002000080240B1
:102060000004024010B504460A480B4908600846BF
:10207000446000218160C16001610C214161002147
:102080008161C161FFF74CFE18B1222103A000F06D
:10209000C9FF10BD00100140800200202E2E2F53DA
:1020A00072632F75736172742E63000008B500BFF0
:1020B000002000901548006840F080001349086037
:1020C0000846006800F08000009000BF00BF00BF1D
:1020D000002000900846006840F0010008600846B3
:1020E000006800F00100009000BF00BF00BF0020AA
:1020F00000900846006840F002000860084600684A
:1021000000F00200009000BF00BF08BD3038024060
:1021100010B504460A480B4908600846446000218F
:102120008160C16001610C21416100218161C16157
:10213000FFF7F6FD18B1342103A000F073FF10BDC6
:1021400000440040C00200202E2E2F5372632F75D2
:10215000736172742E63000000BFFEE77CB5054614
:102160001748006800281FD0002301AA29461448F8
:10217000006804F09BFC0446012C09D000BF172026
:1021800010A3174A17A1009018A000F04DFF00BF40
:10219000019838B14FF0805020490860BFF34F8F4D
:1021A000BFF36F8F01207CBD00BF1E2005A30C4A2A
:1021B0000CA100901AA000F037FF00BF0020F2E74A
:1021C000100000202E2E5C5372635C6D657373618A
:1021D00067655C6D6573736167652E630000000061
:1021E000207200084552524F520000005B257320B8
:1021F0007C202573204025732C25645D2075736138
:102200007274206964656C20616464207175657501
:1022100065206661696C65640D0A000004ED00E0EC
:102220005B2573207C202573204025732C25645D5D
:1022300020746869732069732077726F6E67202E2F
:102240000D0A00001CB5782002F0E6FF04463C2091
:1022500002F0E2FF0546BDE000235A1E21465E481B
:10226000006804F021FA00BF47205CA3624A63A122
:10227000CDE9000463A000F0D7FE00BF69A12046AD
:10228000FEF75DF878B1694900231A46D1F8EC00F1
:10229000294604F009FA654900231A46D1F8DC0002
:1022A000194604F02FFB61480078012821D15F48CE
:1022B0004078F0B95D4901230022D1F8EC002946AD
:1022C00004F0F2F9012814D129462046FEF737F828
:1022D00078B1564900231A46D1F8EC00294604F09B
:1022E000E3F9524900231A46D1F8DC00194604F0FC
:1022F00009FB4E48407801282AD14C49012300228D
:10230000D1F8EC00294604F0CFF9012820D1294664
:102310002046FEF714F8D8B1444900231A46D1F8F4
:10232000EC00294604F0C0F94048D0F8EC0038B180
:102330003E4902230022D1F8E800214604F0E2FAE7
:102340003A4900231A46D1F8E000194604F0DAFAB7
:1023500036488078012815D135A12046FDF7EFFFDA
:1023600080B13548006868B100231A4619463248E2
:10237000006804F0C7FA314900231A4688681946F4
:1023800004F0C0FA29480079012814D12C480068CB
:1023900088B12CA12046FDF7D2FF60B12CA000F03F
:1023A00043FE2748006830B100231A4619462448E6
:1023B000006804F0A7FA29A12046FDF7C0FF30B15C
:1023C0001E4900231A468868194604F09BFA6420C7
:1023D00003F0F2FD40E70000100000202E2E5C53B9
:1023E00072635C6D6573736167655C6D6573736162
:1023F00067652E63000000004272000844454255A4
:10240000470000005B2573207C2025732040257346
:102410002C25645D20476574206275662025730D48
:102420000A00000050425245414459001C0000205F
:10243000434F4E4E454354001800002054020020E4
:10244000380100207265677265706F6B00000000D4
:10245000726573206765740D0A0000004F4B000021
:10246000F8B506460C46C82002F0D6FE0746C8213D
:102470003846FDF74DFF44B916A13846FDF778FF01
:1024800031463846FDF74FFF05E0012C03D13146B8
:102490003846FDF76DFF10480068B0B100235A1EA2
:1024A00039460D48006804F02DFA0546012D0CD080
:1024B00000BF372009A3104A10A1009011A000F01E
:1024C000B3FD00BF4FF0FF30F8BD384603F074FC99
:1024D0000120F9E741542D00140000202E2E5C53FA
:1024E00072635C6D6573736167655C6D6573736161
:1024F00067652E6300000000367200084552524F97
:10250000520000005B2573207C202573204025733A
:102510002C25645D204D6573736167652066616974
:102520006C65640D0A0000001CB5C82002F074FE42
:102530000446002553E0C8212046FDF7E9FE0023AC
:102540005A1E21462648006804F0AEF825A1204610
:10255000FDF7F5FE90B123A12046FDF7F0FE0746FA
:10256000FF1C2148076001460868FDF7FAFE1E4976
:1025700088800846C168002088470BE01A4804603C
:1025800001460868FDF7EDFE174988800846C168D6
:1025900001208847002600251EE0681CC5B21248AD
:1025A0008068B0B1104900234FF47A7288681946E8
:1025B00004F07AF80646012E00D10EE000BFB520E7
:1025C0000AA3114A11A1CDE9000512A000F02CFDCB
:1025D00000BF032D00DB00E0DFE700BF00BFAAE77C
:1025E0001400002041542D00540200202E2E5C5374
:1025F00072635C6D6573736167655C6D6573736150
:1026000067652E630000000055720008444542557E
:10261000470000005B2573207C2025732040257334
:102620002C25645D204F4B42696E61727953656D54
:102630006170686F7265203A25640D0A0000000021
:1026400010B500224FF416710A2004F001F8094970
:1026500008600022C821082003F0FAFF064908603C
:1026600003220021012003F0F3FF0449886004489D
:10267000C86010BD1000002014000020540200208B
:102680002D3900087047000002480068C0F302209E
:10269000704700000CED00E010B5002807DA0A07CB
:1026A000140E054A00F00F031B1FD45403E00A0761
:1026B000130E024A135410BD18ED00E000E400E0D0
:1026C0007CB5054603F030FBFFF7BAFF26A128A032
:1026D00001F0B6FE2A49D1F8D000804703F08CFE05
:1026E000284908602648D0F8C800012300224FF48A
:1026F000FA61009024A004F00FFD274908602748E4
:10270000072100234FF40072CDE9001024A12948CD
:1027100004F08EFA2848052100234FF40072CDE919
:10272000001026A1294804F083FA29480A21002331
:102730004FF48072CDE9001019A1264804F078FA10
:1027400004F0B6FA04464FF0FF3000232246012180
:1027500000901148006804F021FD1F48006803F054
:1027600059FC03F00BFB7CBD363830300000000014
:102770003131322E3132342E362E3331000000000A
:102780001C000020200100204F6E6553686F7454B8
:10279000696D6572000000002C01002024010020FA
:1027A0004D657373616765526563656976655461EC
:1027B000736B000045220008280100204D657373EB
:1027C00061676553656E645461736B002925000869
:1027D0001C010020C91F00081801002010B501F0DD
:1027E00063FF10BD10B592B000BF002000903048CC
:1027F000006840F080502E4908600846006800F0EC
:102800008050009000BF00BF00BF0020009029480A
:10281000006840F48040274908600846006800F4DA
:102820008040009000BF00BF092006904FF4803028
:10283000079001200B9002200C9041050D9104217E
:102840000E91A8210F91022110910721119106A844
:10285000FEF734FE18B1212117A000F0E3FB0F2092
:10286000019002200290002003904FF4A0500490A9
:102870004FF480500590052101A8FEF7BFFC18B168
:102880002F210DA000F0CEFBFEF79AFD4FF47A71D8
:10289000B0FBF1F42046FFF749F80420FFF732F8C7
:1028A00000220F21501EFEF734FC12B010BD0000B4
:1028B00040380240007000402E2E5C5372635C73FF
:1028C00079732E63000000001448006840F4700023
:1028D000124908601248006840F001001049086081
:1028E00000200F49083108600D4800680D49084074
:1028F0000B4908600C48091D0860081F006820F497
:102900008020091F0860002005490C3108604FF045
:1029100000600249803908607047000088ED00E0DF
:1029200000380240FFFFF6FE1030002410B50248C8
:10293000FFF774F810BD0000400700200022026875
:102940002C4B98420ED0B0F1804F0BD02A4B9842BE
:1029500008D02A4B984205D0294B984202D0294BE7
:10296000984201D1012300E000231BB122F0700244
:102970004B681A431F4B984220D0B0F1804F1DD0B6
:102980001D4B98421AD01D4B984217D01C4B9842B1
:1029900014D01C4B984211D01B4B98420ED01B4BAD
:1029A00098420BD01A4B984208D01A4B984205D047
:1029B000194B984202D0194B984201D1012300E0F3
:1029C00000231BB122F44072CB681A4302608B686B
:1029D000C3620B688362074B984202D0094B98424E
:1029E00001D1012300E000230BB10B690363012334
:1029F00043617047000001400004004000080040AF
:102A0000000C00400004014000400140004401402F
:102A10000048014000180040001C00400020004019
:102A200070B50546AC6B0020E085E0842046FFF7DA
:102A3000D0F870BD0168C96821F490710268D16056
:102A40000168496921F0010102685161202180F883
:102A50003A10704710B504462068C06820F0400066
:102A60002168C860202084F839002046FFF7A8FAC2
:102A7000002010BD70B5044694F83A00222844D1D5
:102A8000A068B0F5805F13D1A56A206940B92068BD
:102A90004068C0F308002880A06A801CA06219E08A
:102AA00020684068C0B22880A06A401CA06211E083
:102AB000206938B920684068C1B2A26A501CA0627F
:102AC000117007E02068406800F07F01A26A501C86
:102AD000A0621170E08D401E80B2E08598B9206838
:102AE000C06820F490702168C8602068406920F0B8
:102AF000010021684861202084F83A002046FFF751
:102B0000F3F9002070BD0020FCE70220FAE7000086
:102B10002DE9F041044600252068056925F440555B
:102B2000E0680543206805612068C56849F20C60CB
:102B300085432169A068084361690843E169084346
:102B400005432068C5602068456925F44075A06983
:102B5000054320684561E069B0F5004F7ED1C44966
:102B60002068884203D0C349206888425DD1FEF7BF
:102B70003DFC00EBC00101EB001061684900B0FBB7
:102B8000F1F06421B0FBF1F00601FEF72FFC00EB41
:102B9000C00101EB001061684900B0FBF1F7FEF7DE
:102BA00025FC00EBC00101EB001061684900B0FB9F
:102BB000F1F06421B0FBF1F000EBC00101EB00107B
:102BC000A7EB8000322101EBC0006421B0FBF1F0E3
:102BD00000F0F80006EB4006FEF708FC00EBC00131
:102BE00001EB001061684900B0FBF1F7FEF7FEFB56
:102BF00000EBC00101EB001061684900B0FBF1F08F
:102C00006421B0FBF1F000EBC00101EB0010A7EB79
:102C10008000322101EBC0006421B0FBF1F000F034
:102C2000070030442168886020E1FEF7CFFB00EB0D
:102C3000C00101EB001061684900B0FBF1F06421B4
:102C4000B0FBF1F00601FEF7C1FB00EBC00101EBA8
:102C5000001061684900B0FBF1F700E045E0FEF7C5
:102C6000B5FB00EBC00101EB001061684900B0FB4F
:102C7000F1F06421B0FBF1F000EBC00101EB0010BA
:102C8000A7EB8000322101EBC0006421B0FBF1F022
:102C900000F0F80006EB4006FEF798FB00EBC001E1
:102CA00001EB001061684900B0FBF1F7FEF78EFB05
:102CB00000EBC00101EB001061684900B0FBF1F0CE
:102CC0006421B0FBF1F000EBC00101EB0010A7EBB9
:102CD0008000322101EBC0006421B0FBF1F000F074
:102CE0000700304421688860C0E06149206888425C
:102CF00003D06049206888425CD1FEF777FB00EB87
:102D0000C00101EB001061688900B0FBF1F6FEF72D
:102D10006DFB00EBC00101EB001061688900B0FBA6
:102D2000F1F06421B0FBF1F000EBC00101EB001009
:102D3000A6EB8000322101EB00106421B0FBF1F022
:102D400000F0F006FEF752FB00EBC00101EB0010B3
:102D500061688900B0FBF1F06421B0FBF1F006EB93
:102D60000016FEF743FB00EBC00101EB00106168A9
:102D70008900B0FBF1F7FEF739FB00EBC00101EB76
:102D8000001061688900B0FBF1F06421B0FBF1F044
:102D900000EBC00101EB0010A7EB8000322101EB3A
:102DA00000106421B0FBF1F000F00F003044216806
:102DB00088605BE0FEF70AFB00EBC00101EB00104E
:102DC00061688900B0FBF1F6FEF700FB00EBC00183
:102DD00001EB001061688900B0FBF1F06421B0FBE9
:102DE000F1F000EBC00101EB0010A6EB80003221F6
:102DF00001EB00106421B0FBF1F000F0F006FEF7EB
:102E0000E5FA00EBC00101EB001061688900B0FB3E
:102E1000F1F06421B0FBF1F006EB0016FEF7D6FAF4
:102E200000EBC00101EB001061688900B0FBF1F715
:102E3000FEF7CCFA00EBC00101EB001061688900DD
:102E4000B0FBF1F06421B0FBF1F000EBC00101EB4D
:102E50000010A7EB8000322101EB00106421B0FBD1
:102E6000F1F000F00F00304421688860BDE8F08187
:102E70000010014000140140014691F8390021285A
:102E80002CD18868B0F5805F0FD10A6A1088C0F332
:102E900008000B685860086918B9086A801C086245
:102EA00009E0086A401C086205E00B6A581C0862C9
:102EB00018780B685860C88C401E80B2C88458B916
:102EC0000868C06820F080000B68D8600868C06897
:102ED00040F040000B68D860002070470220FCE7FB
:102EE0002DE9F04104460D4617469846069E21E01E
:102EF000701CF8B12EB1FEF73BF8A0EB0800B04211
:102F000018D92068C06820F4D0702168C860206893
:102F1000406920F0010021684861202084F83900D0
:102F200084F83A0000BF002084F8380000BF032076
:102F3000BDE8F081206800682840A84201D1012046
:102F400000E00020B842D3D00020F1E710B50248DD
:102F5000FEF740FE10BD00008002002038B51B487F
:102F600000680068C0F3401070B119480068C4B22E
:102F700018490888411C174A118017490C546FF0F2
:102F80002000124909680860104800680068C0F312
:102F90000010B8B100BF002000900C480068006825
:102FA00000900A4800684068009000BF00BF0A48CF
:102FB000FFF7D4F80020074908804FF480610648E5
:102FC000FDF7A6F90148FEF705FE38BDC002002056
:102FD00004440040340100204003002010B50248A2
:102FE000FEF7F8FD10BD00000003002000BFFEE763
:102FF00070B504462046FDF7B4F9054600200BE005
:1030000000BF0749096801F040010029F9D0215C9F
:10301000034A121D1160401CA842F1DB70BD000084
:103020000044004000BFFEE70FB4054B10B503A9F4
:10303000044A029800F0DEF810BC5DF814FB0000B2
:103040005D3B0008C00100200FB4084B10B504A977
:1030500002AA039800F0CEF8044602A9002000F06E
:1030600060FC204610BC5DF814FB0000233900080A
:1030700002E008C8121F08C1002AFAD17047704741
:10308000002001E001C1121F002AFBD1704700009F
:103090002DE9FF5FDDE90220010DDDF838B00243C4
:1030A00018D044F61050A1F2FF3141430D140F988F
:1030B000012820D0A5EB0B00401C5FEA000A4FF06E
:1030C0000004474EDFF81C91A046504616D5CAF1C1
:1030D000000728E00F98012443A2012808D000210E
:1030E00000980F9BC0E90021C0E90243BDE8FF9FA3
:1030F0006FEA0B01F4E7CBF10000DEE7074612E0D0
:10310000F80707D02246334640464946FDF7E0F926
:10311000804689462246334610461946FDF7D8F9BF
:1031200004460E467F10002FEAD1DDE90201BAF114
:10313000000F42464B4602DAFDF7CAF901E0FDF7FF
:10314000F5FA04460E460022284BFDF733FA03D861
:103150004FF0FF30014607E00022254B2046314664
:10316000FDF70FF9FDF751FB102409E0002C0ADBF5
:103170000A220023FDF782F8019B30321A55641EA3
:1031800050EA0102F2D1641C019AC4F11103144403
:103190000F9A012A03D0012208430DD10AE0084307
:1031A00004D000204FF0110B0F9080E7A3EB0B052C
:1031B0006D1E0DE05B4504DD4FF0000205F10105D9
:1031C00004E003DA4FF00002A5F10105002AECD07B
:1031D00000980F99C0E90231C0E9004586E7000078
:1031E000000024400000F03F300000000000F043E9
:1031F0000000E03F2DE9FF4F95B09B46894606460B
:1032000000250FE2252877D100242746F84A01211E
:10321000059400E0044316F8013F203B01FA03F057
:103220001042F7D130782A2811D06FF02F03307870
:10323000A0F13002092A16D8059A44F0020402EBE4
:10324000820203EB42021044761C0590EFE759F826
:10325000042B0592002A03DA504244F400540590EE
:1032600044F00204761C30782E2816D116F8010F8F
:1032700044F004042A280DD06FF02F023078A0F11A
:103280003003092B09D807EB870302EB4303C71868
:10329000761CF3E759F8047B761C30786C280FD045
:1032A00006DC4C2817D068280DD06A2814D104E019
:1032B000742810D07A280FD10DE044F400140AE0ED
:1032C00044F4801401E044F440147278824202D144
:1032D00004F58014761C761C307866280BD013DC3D
:1032E000582877D009DC002875D04528F6D0462824
:1032F000F4D047281AD19DE118E0632835D064281E
:1033000079D0652812D195E1702873D008DC672840
:10331000F1D069286FD06E280DD06F2806D1B5E0A6
:1033200073282CD0752875D0782874D05A461799F0
:1033300090476D1C75E1C4F30250022809D00328A0
:103340000DD0D9F8001004280DD00D6009F1040942
:1033500067E1D9F80010EA17C1E90052F6E7D9F899
:1033600000100D80F2E70D70F0E719F8041B8DF8DE
:10337000001000208DF80100EA46012003E059F812
:1033800004AB4FF0FF3061074FF0000102D40DE0B5
:1033900008F101018846B9420FDA8045F8DB1AF8D6
:1033A00008100029F4D108E008F1010188468142A3
:1033B000FADB1AF808100029F6D105985B46A0EB55
:1033C000080721463846179A00F094FA284400EB83
:1033D000080507E04DE029E10DE01AF8010B5A4617
:1033E00017999047B8F10108F7D25B462146384655
:1033F000179A13E142E00A220092C4F302524FF0FE
:10340000000A022A08D059F804CB032A4FEAEC71CB
:103410000AD00DE029E02AE009F1070121F00702B6
:10342000F2E802C1914609E00FFA8CFC4FEAEC7118
:10343000042A03D14FFA8CFC4FEAEC71002907DA19
:103440000A460021DCF1000C61EB02012D2202E0B2
:10345000220504D52B228DF80420012203E0E20787
:1034600001D02022F7E7904659E00A2102E010221D
:103470000DE010214FF0000A00910BE010224FF0F8
:10348000000A44F004040827009203E008224FF0E9
:10349000000A0092C4F30252022A05D059F804CB64
:1034A0000021032A08D009E009F1070121F00702F1
:1034B000F2E802C1914605E01FFA8CFC042A01D112
:1034C0000CF0FF0C4FF00008220728D5702806D01A
:1034D000009B83F0100353EA0A0305D00EE040225C
:1034E0008DF80420012208E05CEA010206D03022B7
:1034F0008DF804208DF8050002229046009B83F091
:10350000080353EA0A030AD15CEA010201D1620707
:1035100005D530228DF804204FF001087F1E582871
:1035200004D034A003900EA802900DE036A0F9E775
:1035300053466046009AFCF7A1FE84460398825CDD
:103540000298401E029002705CEA0100F0D10298DD
:1035500006A9081A00F1200A600702D524F4803475
:1035600000E00127574502DDA7EB0A0000E000203C
:1035700000EB0A01009005984144401A0590E003D1
:1035800006D45B462146179A059800F0B3F9054426
:10359000002706E001A85A46C05D179990476D1CA8
:1035A0007F1C4745F6DBE0030CD55B462146179AA6
:1035B000059800F09FF9054404E030205A46179919
:1035C00090476D1C0099481E00900029F5DC08E02A
:1035D000029802995A460078491C0291179990471F
:1035E0006D1CBAF10001AAF1010AF1DC65E10000ED
:1035F00009280100303132333435363738396162C9
:10360000636465660000000030313233343536378C
:1036100038394142434445460000000000F058F963
:103620000544761C307800287FF4ECAD19B02846AC
:10363000BDE8F08F620700D4062709F1070222F0E7
:10364000070CFCE80223E14603F000485FEA080C9F
:1036500002D00FF2702C0DE05FEA045C02D50FF28D
:10366000682C07E05FEAC47C02D00FF2602C01E016
:10367000AFF2700C4FF0FF3823F00043CDF850C08C
:1036800065280CD006DC452809D046281DD04728DF
:103690003DD13DE0662818D067287ED138E0002172
:1036A000112F01DB112000E0781CCDE9000106A9F3
:1036B0000EA8FFF7EDFCDDE90F010E9A0391002142
:1036C000009207F1010A04914DE04FF0004000978D
:1036D000CDE9011006A90EA8FFF7DAFCDDE90F021B
:1036E00003920E9B11990022DDF80CA00093049226
:1036F00011B9791C00EB010AB7EB0A0004D4C0F140
:10370000FF3007F1010A0490AAEB0700019044E0A2
:10371000012F00DA01270021112F01DD112000E027
:103720003846CDE9000106A90EA8FFF7B1FCDDE996
:103730000F010E9A0391002104910092BA462107CD
:103740000CD40399514500DA8A46BAF1010F05DD20
:10375000009AAAF10101515C302908D0B84202DA7E
:1037600010F1040F06DA0121CDE9011015E0AAF1EC
:103770000101E9E7002805DC049901440491AAEB62
:10378000000102E0411C514500DD8A460499401ABF
:10379000401C01904FF000400290200704D4019893
:1037A000504501DBCDF8048000208DF84F000298D1
:1037B0000DF14F07B0F1004F25D02B200E9002984D
:1037C0004FF0020800280CDA404202902D200E90A3
:1037D00007E00A210298FCF705FF3031029007F854
:1037E000011DB8F10001A8F10108F2DC02980028DF
:1037F000EFD1791E0E980870307800F0200040F06C
:10380000450007F8020D12A8C01B00F10708149824
:10381000007800B1012000EB0A01019801EBE07192
:1038200005984144401A401E0590E00306D45B46CB
:103830002146179A059800F05DF805441498007821
:1038400018B15A46179990476D1CE00324D55B4682
:103850002146179A059800F04DF805441CE004989D
:10386000002807DBDDE90301884203DD0098405CA6
:10387000179901E0179930205A469047049805F1AE
:103880000105401C04900198401E019004D12E2097
:103890005A46179990476D1CBAF10001AAF1010A26
:1038A000DDDC05E017F8010B5A46179990476D1CAF
:1038B000B8F10001A8F10108F4DC5B462146179A33
:1038C0000598ABE62D0000002B0000002000000052
:1038D0002DE9F041044600251E461746880404D40D
:1038E00005E039462020B0476D1C641EF9D52846F6
:1038F000BDE8F0812DE9F041044600251E469046C2
:10390000C80301D5302700E02027880404D505E04E
:1039100041463846B0476D1C641EF9D52846BDE8BF
:10392000F0810A68531C0B60107070472DE9FF4747
:103930000646C82001F070FC0446062001F06CFC2D
:103940000546C82001F068FC074600200390804629
:10395000039008F130008DF80C00012E6ED1C821C3
:103960002046FCF7D5FC00202860A880C8213846F6
:10397000FCF7CEFC414801683846FCF7F9FC3F49AA
:103980000868FCF7EEFC81464A463DA12846FFF751
:103990005BFB3CA12046FCF7EBFC29462046FCF7EC
:1039A000C2FC3CA12046FCF7BEFC00BFDF203AA3CE
:1039B000404A41A1CDE9000441A0FFF735FB00BF1B
:1039C0002046FFF715FBC8212046FCF7A1FC00BFED
:1039D0002A490868FCF7C5FC814628480068E221AE
:1039E0002DA3344ACDE90109009133A13DA0FFF791
:1039F0001BFB00BF642002F0DFFA00BF3846FCF773
:103A0000B0FC8146E42024A32A4A2BA18DE8810240
:103A10003FA0FFF709FB00BF3846FFF7E9FA00BFF8
:103A20002046FCF79EFC8146E6201BA3214A22A1EA
:103A30008DE811023FA0FFF7F7FA16E0C8212046F3
:103A4000FCF766FC0D4801682046FCF791FC204617
:103A5000FFF7CEFA00BFED200FA3164A16A1CDE95D
:103A6000000417A0FFF7E0FA00BF284602F0A4F90F
:103A7000204602F0A1F9BDE8FF87000054020020B3
:103A80002564000041542B54435053454E443D306F
:103A90002C0000000D0A00002E2E5C5372635C6D3A
:103AA0006573736167655C6D6573736167652E63CC
:103AB00000000000657200084445425547000000C0
:103AC0005B2573207C202573204025732C25645DA5
:103AD0002073656E64206D6573736167653A202598
:103AE000730000005B2573207C2025732040257324
:103AF0002C25645D204D6573736167652E70617957
:103B00006C6F61643A2025732025640D0A00000063
:103B10005B2573207C202573204025732C25645D54
:103B20002073656E646D73673A2025732025640DDC
:103B30000A0000005B2573207C202573204025733C
:103B40002C25645D2073656E64206D6573736167F9
:103B5000653A2025732025640D0A000013B50C4634
:103B60004FF6FF73012269460248FEF7BEF900983E
:103B70001CBD0000800200201CB5002038490870E0
:103B800048700871A02001F047FB0446A0212046A0
:103B9000FCF7BEFB00BFBC2032A3374A37A1009020
:103BA00038A0FFF741FA00BF1E212D483430FCF742
:103BB000AFFB14223B492A483430FCF790FB2848DD
:103BC000523038494A690260098B818000BF1E3833
:103BD000C12124A3284ACDE9001033A134A0FFF766
:103BE00023FA00BF00BF1E485230C2211DA3224A43
:103BF000CDE900102CA138A0FFF716FA00BF032270
:103C00000021012002F024FD1549C1F8DC00032247
:103C10000021012002F01CFD1149C1F8E00003223F
:103C20000021012002F014FD0D49C1F8E40000223A
:103C30001E21012002F00CFD0949C1F8EC00002210
:103C40007821012002F004FD0549C1F8E8000022B6
:103C50000A21012002F0FCFC0149C1F8F0001CBD62
:103C60001C0000202E2E5C5372635C677072735CC4
:103C7000677072732E630000B572000844454255A8
:103C8000470000005B2573207C20257320402573AE
:103C90002C25645D204750525320436F6E66696740
:103CA0000D0A000064020020494E464F52000000F9
:103CB0005B2573207C202573204025732C25645DB3
:103CC0002067477072732E677072734950203A20D4
:103CD00025730D0A000000005B2573207C202573EE
:103CE000204025732C25645D2067477072732E6712
:103CF000707273506F7274203A2025730D0A0000A1
:103D00001CB500BF1E202BA32F4A30A1009031A06C
:103D1000FFF78AF900BF012038490870002436E017
:103D200000F0CAFC002825DD00BF242021A3264A7C
:103D300026A1009032A0FFF777F900BF00202F499D
:103D4000087001213C48006802F063FB01202B4908
:103D5000087100F0BBF800202849087100BF2A2034
:103D600014A3194A35A1009036A0FFF75DF900BFF2
:103D700001201CBD00BF601C30210EA3124ACDE9FA
:103D8000001012A13BA0FFF74FF900BF641C052CE7
:103D9000C6DB00BF322007A30B4A0CA1009042A053
:103DA000FFF742F900BF02F0ABFA01F065FF002017
:103DB000DFE700002E2E5C5372635C677072735CE9
:103DC000677072732E630000707200085452414392
:103DD000450000005B2573207C202573204025735F
:103DE0002C25645D206770727320636F6E6E65634F
:103DF000742073746172740D0A0000001C000020AE
:103E00005B2573207C202573204025732C25645D61
:103E1000204750525320436F6E6E65636574207463
:103E20006F20636C6F75642073756363657373666D
:103E3000756C0D0A00000000200100204445425529
:103E4000470000005B2573207C20257320402573EC
:103E50002C25645D2073746172742074696D6572C1
:103E6000204E657454696D657248616E646C65724C
:103E70000D0A00005B2573207C20257320402573EC
:103E80002C25645D20436F6E6E65637420746F2013
:103E9000636C6F7564206661696C65642025642EAF
:103EA0002E2E2E2E0D0A00005B2573207C202573FC
:103EB000204025732C25645D204465766963652068
:103EC0005265626F6F74696E670D0A007CB51421CC
:103ED0005648FCF71DFA142154481430FCF718FA20
:103EE0005248401F52A1D0F8D82053A090474F48C5
:103EF000401F54A1D0F8D82055A090474B48401FF0
:103F000056A1D0F8D82056A0904701F00DFF03220B
:103F10000021012002F09CFB54490860C82001F0F8
:103F20007BF90646C8213046FCF7F2F93F48401FAE
:103F3000006B3E4B03F114024DA100903046FFF799
:103F400083F800BF232058A35E4A5FA1CDE9000695
:103F50005FA0FFF769F800BF01F010FF00252DE01A
:103F600001213046FEF77CFA002342F21072194616
:103F70003E48006802F098FB0446012C12D13046FE
:103F800001F01AFF3948006801F0C2FF00BF31207C
:103F900045A34C4A55A1009056A0FFF745F800BF35
:103FA00001207CBD00BF34203FA3464A59A1CDE982
:103FB00000055AA0FFF738F800BF6D1C032DCFDBBA
:103FC000304601F0F9FE00BF382037A33D4A51A129
:103FD00000905CA0FFF728F800BF00BF392032A393
:103FE000384A4CA1009060A0FFF71EF800BF00BF48
:103FF00000BF00BF00BF00BFBFF34F8F00BF00BFB7
:1040000000BF6248006800F4E06061490843001D99
:104010005E49086000BF00BF00BFBFF34F8F00BF05
:1040200000BF00BF00BF00BFFDE70000210000206F
:104030002B4353513A20000041542B4353510D0A56
:10404000000000002B4347534E3A2022000000009E
:1040500041542B4347534E0D0A00000034363000C4
:1040600041542B43494D490D0A00000038010020FE
:104070007B2274797065223A227265676973746570
:1040800072222C22696D7369223A222573222C2216
:10409000696D6569223A222573222C22637371228D
:1040A0003A222564227D00002E2E5C5372635C72DE
:1040B000656769737465725C72656769737465724C
:1040C0002E63000018730008494E464F520000004E
:1040D0005B2573207C202573204025732C25645D8F
:1040E000207374723A2573200D0A0000444542552E
:1040F000470000005B2573207C202573204025733A
:104100002C25645D207265676973746572206F6B1E
:104110000D0A00004552524F520000005B257320EB
:104120007C202573204025732C25645D20726567F3
:1041300069737465722025642074696D65730D0A56
:10414000000000005B2573207C2025732040257330
:104150002C25645D207265676973746572206661E1
:10416000696C65640D0A00005B2573207C20257353
:10417000204025732C25645D2053797374656D2070
:104180005265626F6F74696E670D0A000CED00E096
:104190000000FA057CB505460E4601201849487016
:1041A000002418E03146284601F0EAF9002804DD31
:1041B00000201349487001207CBD00BF601C40F204
:1041C000851110A3144ACDE9001014A115A0FEF723
:1041D0002BFF00BF641C052CE4DB00BF40F28710FE
:1041E00008A30D4A1CA100901DA0FEF71DFF00BFF3
:1041F00002F086F801F040FD4FF0FF30DCE70000F0
:104200001C0000202E2E5C5372635C677072735C1E
:10421000677072732E6300000973000844454255AD
:10422000470000005B2573207C2025732040257308
:104230002C25645D2047657420446576696365209C
:10424000696E666F206661696C65642025642E2E38
:104250002E2E2E0D0A0000004552524F5200000033
:104260005B2573207C202573204025732C25645DFD
:1042700020446576696365205265626F6F74696E6C
:10428000670D0A002DE9FC4100273D48002101800F
:1042900007F130003A49087003220021012002F0A2
:1042A000D7F9384908600120374988701E2000F08E
:1042B000B3FF06461E213046FCF72AF833A00168FA
:1042C0003160416871608068B0602D493046FCF70C
:1042D0002AF832A13046FCF726F8002533E0002109
:1042E0003046FEF7BDF8002342F210721946254809
:1042F000006802F0D9F90446012C17D100202249A8
:1043000088702048006801F003FE00BF40F20B10E7
:1043100023A3284A28A1009029A0FEF785FE00BF0C
:10432000304601F049FD0120BDE8FC8100BF40F2AC
:104330000F101BA31F4A2AA1CDE900052AA0FEF7F2
:1043400073FE00BF6D1C032DC9DB00BF40F21110CE
:1043500013A3184A2EA100902FA0FEF765FE00BF00
:1043600002F0A6FC054642F2107000232A46012105
:1043700000903248006802F011FF4FF0FF30D3E7A1
:1043800010010020180000201C00002041542B497F
:10439000505354415455533D000000000D0A000095
:1043A0002E2E5C5372635C677072735C67707273FD
:1043B0002E630000E47200084445425547000000A7
:1043C0005B2573207C202573204025732C25645D9C
:1043D000204E657420436865636B206F6B0D0A0087
:1043E00054524143450000005B2573207C20257317
:1043F000204025732C25645D204E657443686563F9
:104400006B2025642074696D65730D0A000000003F
:104410004552524F520000005B2573207C202573CB
:10442000204025732C25645D204E6574204368650B
:10443000636B206661696C65640D0A002C010020C5
:10444000FEB504460D4614212148FBF761FF2048C4
:104450000021416101832946204601F0DFF900284F
:104460000BDA00BFE8201BA31F4A20A18DE8310012
:1044700020A0FEF7D9FD00BFFEBD2046FBF771FF6F
:104480000646324621461248FBF729FF2846FBF72D
:1044900068FF0646324629460D481430FBF71FFFD9
:1044A00000BFED200BA3104A10A1CDE900041DA010
:1044B000FEF7BAFD00BF00BFEE2006A30A4A0BA11B
:1044C000CDE9000520A0FEF7AFFD00BF00BFD3E798
:1044D000640200202E2E5C5372635C677072735C02
:1044E000677072732E630000D0720008494E464F09
:1044F000520000005B2573207C202573204025732B
:104500002C25645D207468652072656D6F7465206C
:1045100069702069732077726F6E673A2025732067
:10452000257300005B2573207C20257320402573B4
:104530002C25645D2072656D6F74654970203A208A
:1045400025732020000000005B2573207C2025734C
:10455000204025732C25645D2072656D6F74725048
:104560006F7274203A20257320200D0A000000008D
:104570000EB50020029002902348002101600171D5
:1045800000202149BC3981F8BC00084690F8BC00E5
:104590003030C0B28DF8080064211B486438FBF746
:1045A000B7FE1948BC3819A30ECB8165C2650366F6
:1045B00002A95830FBF7B7FE18A113486438FBF77F
:1045C000B2FE1149883901F12400FBF7ACFE13A1BA
:1045D0000D486438FBF7A7FE0B496A39881DFBF7C5
:1045E000A2FE0FA108486438FBF79DFE00BF0648F5
:1045F0006438B0210BA3104ACDE900100FA111A01F
:10460000FEF712FD00BF0EBDD800002041542B5410
:10461000435053455455503D000000002C0000000D
:104620000D0A00002E2E5C5372635C677072735C1F
:10463000677072732E630000A872000844454255EB
:10464000470000005B2573207C20257320402573E4
:104650002C25645D2067477072732E674750525354
:10466000436F6E6E6563743A2025730D0A00000077
:104670001CB500F0DFF80748062100238022CDE9B1
:10468000001005A1074802F0D3FA01F0EFFD002069
:104690001CBD0000180100205374617274546173D2
:1046A0006B000000C126000810B502F0F1FA0128E5
:1046B00001D001F0B3FF10BD08B500BF82201DA3DB
:1046C000214A22A1009023A0FEF7AEFC00BF2CA13E
:1046D0002CA001F015F92AA12CA001F011F928A1B4
:1046E0002CA001F00DF92EA131A001F009F933A1A0
:1046F00035A001F005F922A136A001F001F901F081
:1047000011FA1FA136A001F0FBF81DA13BA001F09A
:10471000F7F83DA13FA001F0F3F8FFF729FF40A112
:10472000434801F0EDF8012802D04FF0FF3008BDFA
:104730000120FCE72E2E5C5372635C677072735C21
:10474000677072732E6300009972000854524143DF
:10475000450000005B2573207C20257320402573D5
:104760002C25645D205369676E616C2053747261FF
:104770006E6774682054657374696E670D0A000073
:104780004F4B000041540D0A0000000041544530D9
:104790000D0A000041542B434D45453D320D0A00A2
:1047A0002B4350494E3A20524541445900000000E5
:1047B00041542B4350494E3F0D0A00002B434752B2
:1047C00045473A20302C310041542B43475245474E
:1047D0003F0D0A0041542B434F50533F0D0A000038
:1047E00041542B434744434F4E543D312C224950B2
:1047F000222C22434D4E4554220D0A0041542B5881
:104800004949433D310D0A002B584949433A20207C
:104810002020310041542B584949433F0D0A0000E4
:1048200054435053455455503A20302C4F4B0000C0
:104830007400002010B5FCF7ADFBFDF7D3FFFDF7CA
:1048400035FC00F0A3FF4FF4E130FDF761FC4FF4BD
:10485000E130FDF707FC10BD2DE9F04105460E469D
:104860001C4807681C480068001D01F013FA50B985
:104870001948006890F82C100120884017490968F1
:10488000814316480160681C38B936B11248016886
:10489000091D134801F03CFA1AE07C190E48006823
:1048A0004460BC4207D20C480168091D0D480068ED
:1048B00001F014FA0CE008480168091D0A48006874
:1048C00001F00CFA09480068844201D207480460EC
:1048D000BDE8F081840100207001002088010020E3
:1048E0008C8200207801002074010020A0010020AB
:1048F00010B5044601F018FA23480068401C22490C
:1049000008602248006840B92048046008460068F2
:1049100001280DD100F0FCF90AE01D48006838B903
:104920001A480068C06AE16A884201D817480460E2
:1049300018480068401C1749086094F82C100120A2
:10494000884015490968084313490860E16A01EB8A
:104950008101124A02EB8100211D01F0D9F901F019
:104960000DFA0B48006868B108480068C06AE16A3F
:10497000884207D24FF0805009490860BFF34F8F3B
:10498000BFF36F8F10BD0000800100207001002078
:104990008C0100209C01002088010020BC7F0020A9
:1049A00004ED00E010B501F0BFF910480068D0B97F
:1049B0000F4801F083F90F4801F080F90C480E49C7
:1049C00008600C480D49086000220C210A2001F003
:1049D0003FFE064908600846006820B108A1034868
:1049E000006801F07FFA01F0C9F910BDB4010020A0
:1049F000A0820020B4820020AC010020B001002081
:104A0000546D72510000000070B523E001F078FC95
:104A10001348006808B9012000E00020054602F0B4
:104A2000F9FABDB901F080F90D48C068C468201DCD
:104A300001F030F90B480068401E0A4908600A4836
:104A40000068401E0849086001F098F9204600F00F
:104A500060F800BF044800680028D7D170BD00008E
:104A600078820020800100207C01002070B504467F
:104A70000D46206C70B1216CE0680844E06061680C
:104A8000E068884201D32068E0602846226CE16833
:104A9000FBF725FC70BD2DE9F04104460F46154695
:104AA0004FF00008A66B206C40B9206860BB6068BE
:104AB00002F0A8F980460020606025E07DB9394603
:104AC000226CA068FBF70BFC216CA0680844A06076
:104AD000D4E90110884217D32068A06014E0394659
:104AE000226CE068FBF7FBFB216CE068401AE06099
:104AF0002168E068884203D2216C6068401AE06057
:104B0000022D01D106B1761E701CA0634046BDE89F
:104B1000F08110B50446206B01F04EF9204601F0FB
:104B20004BF910BD0146084A126812680AB9012201
:104B300000E000220A600A6822B9034A1268D268BB
:104B4000106800E000207047AC01002030B54FF441
:104B5000F043174800F007042CB1C01D20F00700F7
:104B6000134C041B1B1B0246124C22600024114DE7
:104B70006C60D018083820F007000F4C206000242B
:104B80000D4D2D686C600C4D2D682C601146441A3B
:104B90004C60094C24680C60084D4C682C60084D32
:104BA0004C682C604FF00044064D2C6030BD000076
:104BB0007C0700204C010020540100205C010020F3
:104BC000580100206001002000BFFFF71DFF0648CC
:104BD00000680128F9D94FF0805004490860BFF3FC
:104BE0004F8FBFF36F8FF0E7BC7F002004ED00E034
:104BF0002DE9F04106460D4617469846069C0DB92C
:104C0000246000E02760E66325640121204601F06E
:104C10002DFEBDE8F0812DE9FF5F81460F469246EB
:104C2000DDE90E6B109CAAF10100216B01EB8008FD
:104C300028F0070808F0070008B9012000E000206C
:104C400050B900BF502080F31188BFF34F8FBFF3DE
:104C50006F8F00BF00BFFEE7002507E0795D04F11C
:104C600034004155785D00B902E06D1C102DF5D37C
:104C700000BF002143200155202E00D31F26E662ED
:104C800066640020A064201D01F025F804F11800DE
:104C900001F021F82461C6F12000A06164620020C7
:104CA000E06484F8500049464046039A00F062FBF5
:104CB0002060BBF1000F01D0CBF80040BDE8FF9FA2
:104CC0002DE9F04706460D4617469846DDE908945B
:104CD0000DB1012000E0002050B900BF502080F34A
:104CE0001188BFF34F8FBFF36F8F00BF00BFFEE788
:104CF0005CB1FFF757FE2660A561E761C4F820802C
:104D0000C4F82490201D00F0E6FFBDE8F087000005
:104D100010B5002407E004EB84010F4A02EB810088
:104D200000F0CCFF641C202CF5D30C4800F0C6FF2B
:104D30000B4800F0C3FF0B4800F0C0FF0A4800F02A
:104D4000BDFF0A4800F0BAFF04480949086004485A
:104D50000849086010BD0000BC7F00203C82002094
:104D60005082002064820020788200208C82002003
:104D7000740100207801002010B50146164800E0BB
:104D8000006803688B42FBD30246436813448B429E
:104D900004D143684C682344436001460A464B688B
:104DA00013440468A34211D10C4C03682468A34245
:104DB00008D04B680468646823444B6003681B6830
:104DC0000B6005E0054B1B680B6001E003680B609E
:104DD000884200D0016010BD4C0100205401002029
:104DE0002DE9F04104460D4616461F464FF00008D7
:104DF00065602461B5420CD8F01BA169884202D3DA
:104E00004FF0010811E0211D0948006800F066FF1D
:104E10000BE0BE4204D2BD4202D34FF0010804E0D1
:104E2000211D0448006800F059FF4046BDE8F081AC
:104E3000B0010020AC01002070B5054600F074FF01
:104E4000A86B08B9012400E0002400F097FF204679
:104E500070BD70B5054600F067FFA86BE96B88422E
:104E600001D1012400E0002400F088FF204670BD3D
:104E7000F8B505460F4616480068C068C468201D8E
:104E800000F008FFE06901281DD1A06941192B46F7
:104E90003A462046FFF7A4FFA8B1002003462A4661
:104EA00001460090204602F079F9064656B900BF47
:104EB000502080F31188BFF34F8FBFF36F8F00BF77
:104EC00000BFFEE700BF2046616A8847F8BD0000CA
:104ED000AC01002070B586B06AE00398002867DB5B
:104EE000059C606908B9012000E0002010B9201D70
:104EF00000F0D0FE02A800F0BDF8054603980A288D
:104F000054D2DFE800F009050731334F0608323488
:104F100000BF00BF00BF00BF0498A269811803460C
:104F20002A462046FFF75CFFE8B12046616A8847C1
:104F3000E069012817D1002000900498A169421867
:104F400000231946204602F029F9064656B900BF4B
:104F5000502080F31188BFF34F8FBFF36F8F00BFD6
:104F600000BFFEE700BF22E000BF20E000BF0498C2
:104F7000A061A06908B1012000E0002050B900BF85
:104F8000502080F31188BFF34F8FBFF36F8F00BFA6
:104F900000BFFEE7A06941192B462A462046FFF7CD
:104FA0001FFF04E0204600F007FF00E000BF00BF45
:104FB00000231A4603A90448006801F075FB002885
:104FC0008BD106B070BD0000B4010020F8B50546D5
:104FD0000C4601F095F9684600F04CF8064600983A
:104FE00020BB44B9B54206D802F014F83146284631
:104FF000FFF73EFF1CE03CB10E480068006808B9AE
:10500000012000E000200446A91B22460A4800684F
:1050100000F0ACFF01F0FEFF50B94FF0805007499F
:105020000860BFF34F8FBFF36F8F01E001F0F2FF15
:10503000F8BD0000B0010020B401002004ED00E044
:105040000A490968096809B9012100E0002121B174
:105050004FF0FF31064A116006E004490968C9684B
:10506000C868034A4168116070470000740100205D
:10507000A001002070B5044601F01AFE054607485D
:105080000068854204D200F00BF80120206001E0A6
:105090000020206001480560284670BDBC0100204A
:1050A0002DE9F84332E024480068C06805682248CA
:1050B0000068C068C468201D00F0ECFD2046616AED
:1050C0008847E069012821D1A0694619AE4207D975
:1050D00066602461211D1848006800F0FFFD15E09E
:1050E000002003462A4601460090204602F056F86A
:1050F000074657B900BF502080F31188BFF34F8F88
:10510000BFF36F8F00BF00BFFEE700BF0A48006813
:10511000006808B9012000E000200028C3D006483C
:10512000D0F8008005480068034908600348C0F8CB
:105130000080BDE8F8830000AC010020B001002031
:105140000E480068401C08B9012000E0002050B95A
:1051500000BF502080F31188BFF34F8FBFF36F8FD4
:1051600000BF00BFFEE700BF502080F31188BFF3EF
:105170004F8FBFF36F8F00BF00BFFEE764010020B9
:1051800008B500BF6846FFF7CDFC044620460099ED
:10519000FFF71CFFFFF79EFEF4E770B5044600F032
:1051A000C3FD94F9455010E0606A08B9012000E0A1
:1051B000002038B904F1240001F088FE18B100F095
:1051C000A3FF00E003E0681E45B2002DECDC00BF49
:1051D000FF2084F8450000F0D1FD00F0A5FD94F912
:1051E000445010E0206908B9012000E0002048B9CF
:1051F00004F1100001F06AFE08B100F085FF681E9E
:1052000045B200E001E0002DECDC00BFFF2084F897
:10521000440000F0B3FD70BD2DE9F04104464FF0AD
:10522000000801F06DF84648006808B9FFF78EFCE9
:1052300044480068204000286BD1D4B1083404F001
:105240000700B0B104F00700C0F10800044404F006
:10525000070008B9012000E0002050B900BF50202D
:1052600080F31188BFF34F8FBFF36F8F00BF00BF74
:10527000FEE7002C4DD034480068844249D8334EB4
:105280003046056801E02E462D686868A04202D2CB
:1052900028680028F7D12A480068854239D030684C
:1052A00000F10808286830606868001B102819D9C8
:1052B0002F1907F0070008B9012000E0002050B9BD
:1052C00000BF502080F31188BFF34F8FBFF36F8F63
:1052D00000BF00BFFEE76868001B78606C6038465E
:1052E000FFF74AFD184968680968081A16490860F6
:1052F0000846006816490968884203D212480068C7
:10530000134908600F49686809680843686000200D
:10531000286001F07FFE08F0070008B9012000E0D6
:10532000002050B900BF502080F31188BFF34F8F89
:10533000BFF36F8F00BF00BFFEE74046BDE8F081BE
:105340005401002060010020580100204C01002081
:105350005C0100200648006830B10549096801F188
:105360004800896C491C01600148006870470000D2
:1053700070010020001F4FF080730360001F21F0B8
:1053800001030360001F054B036014380260001F17
:105390006FF002030360203870470000415100089D
:1053A0007CB506460D4641A13046FAF7C8FF0028F5
:1053B0002AD029463046FAF7C2FF04462846FAF7B3
:1053C000D0FF044460782C280AD0617820783038E7
:1053D00000EB800001EB400030383549086303E002
:1053E000207830383249086300BF3148006B40F202
:1053F000251130A3344ACDE9001034A135A0FDF7C2
:1054000013FE00BF01207CBD3CA13046FAF797FF98
:10541000F0B129463046FAF792FF04462846FAF7DB
:10542000A0FF04440F2221462148401DFAF757FFF0
:1054300000BF1F48401D4FF497711EA3224ACDE9BB
:10544000001022A12FA0FDF7EFFD00BF0120DAE739
:1054500029463046FAF773FFD0B129463046FAF7AD
:105460006EFF04460F22214611481930FAF737FF24
:1054700000BF0F4819304FF49B710EA3124ACDE9BB
:10548000001012A128A0FDF7CFFD00BF0120BAE750
:1054900000BF40F23B1007A30B4A2CA100902DA0A7
:1054A000FDF7C2FD00BF4FF0FF30ACE743535100A2
:1054B0001C0000202E2E5C5372635C677072735C5C
:1054C000677072732E630000ED720008494E464FFC
:1054D000520000005B2573207C202573204025733B
:1054E0002C25645D20475052532043535120566170
:1054F0006C7565203A25640D0A0000004347534E41
:10550000000000005B2573207C202573204025735C
:105510002C25645D204750525320494D45493A207F
:1055200025730D0A000000005B2573207C20257385
:10553000204025732C25645D204750525320494D4F
:1055400053493A2025730D0A000000004552524F7E
:10555000520000005B2573207C20257320402573BA
:105560002C25645D207468652072737020627566F6
:105570002069732077726F6E672E0D0A000000009D
:105580002DE9FC4106460F4600254948D0F8EC00BD
:10559000C0B1474902230022D1F8EC00394601F09E
:1055A000B1F90446012C0DD000BF40F2491041A3CF
:1055B000454A46A1009047A0FDF736FD00BF681E92
:1055C000BDE8FC8100213046FCF74AFF6EE0681C14
:1055D000C5B23748D0F8E00000284CD03449002349
:1055E00041F28832D1F8E000194601F05DF8044636
:1055F000012C1AD17820FFF70FFE80462C4900239A
:105600000A22D1F8E800414601F04EF839464046FA
:10561000FFF7C6FE012804D1404600F0CDFB012073
:10562000CEE7404600F0C8FB30E000BF40F261101A
:1056300020A3254A30A1CDE9000531A0FDF7F4FCF7
:1056400000BF00213046FCF70BFF1948D0F8EC00F2
:1056500000281BD0164902230022D1F8EC0039465D
:1056600001F050F90446012C10D02EA0FDF7DCFC0F
:105670004FF0FF30A4E700BF4FF4B8700DA3124AFB
:1056800012A100902CA0FDF7CFFC00BF052D0DDB73
:1056900000BF4FF4BA7007A30B4A0CA1009030A0D2
:1056A000FDF7C2FC00BF4FF0FF3089E78FE7000035
:1056B0001C0000202E2E5C5372635C677072735C5A
:1056C000677072732E630000FA7200084552524FE1
:1056D000520000005B2573207C2025732040257339
:1056E0002C25645D205265702053656E64206661D0
:1056F000696C65640D0A000044454255470000008E
:105700005B2573207C202573204025732C25645D48
:10571000204D65737361676553656E64203A256437
:105720000D0A00005265702053656E206661696C39
:1057300065640D0A000000005B2573207C20257342
:10574000204025732C25645D204E6F204750525316
:105750002073656D6170686F7265200D0A0000002E
:105760005B2573207C202573204025732C25645DE8
:105770002067657474696E67206770727320666154
:10578000696C65642E200D0A0000000000B585B02C
:1057900014216846FAF7BCFD3020009001200190EA
:1057A00000200290039069461948FBF7D7FA0122BE
:1057B00030211748FBF7D6FB032000900120019011
:1057C00000200290039069461248FBF7C7FA0122B5
:1057D00003211048FBF7C6FBF02000900020019049
:1057E0000290039069460C48FBF7B8FA0420009039
:1057F0000120019000200290039069460448FBF7C5
:10580000ADFA002204210248FBF7ACFB05B000BD55
:1058100000080240000402400000024038B505467E
:105820000C462846FAF79DFD072804D32846FAF7C8
:1058300098FD10280CD900BFD62011A3154A16A137
:10584000009017A0FDF7F0FB00BF4FF0FF3038BD10
:105850002046FAF786FD20B12046FAF782FD05289A
:105860000CD900BFDB2006A30A4A0BA1009018A0A8
:10587000FDF7DAFB00BF4FF0FF30E8E70120E6E775
:105880002E2E5C5372635C677072735C6770727308
:105890002E630000C37200084552524F52000000B0
:1058A0005B2573207C202573204025732C25645DA7
:1058B0002049502069732077726F6E67202E506CDC
:1058C0006561736520436865636B0D0A0000000025
:1058D0005B2573207C202573204025732C25645D77
:1058E00020506F72742069732077726F6E67202E5C
:1058F000506C6561736520436865636B0D0A000039
:105900002DE9FC4106460F4600254548D0F8EC003D
:10591000B8B1434902230022D1F8EC00394600F027
:10592000F1FF0446012C0CD000BF42203DA3424AA7
:1059300042A1009043A0FDF777FB00BF681EBDE8C1
:10594000FC8100213046FCF78BFD65E0681CC5B288
:105950003348D0F8DC00002838D0314900234FF418
:10596000FA62D1F8DC00194600F09EFE0446012CD4
:1059700000D152E000BF53202AA32F4A3AA1CDE91B
:1059800000053BA0FDF750FB00BF00213046FCF7AF
:1059900067FD2348D0F8EC00002821D020490223DD
:1059A0000022D1F8EC00394600F0ACFF0446012C8F
:1059B00016D000BF5A201BA31F4A20A1009037A079
:1059C000FDF732FB00BF4FF0FF30B8E700BF6220A9
:1059D00014A3194A19A1009039A0FDF725FB00BFB7
:1059E000032D19DB00BF67200EA3134A13A10090FB
:1059F0003DA0FDF719FB00BF01F05AF9804642F2C5
:105A0000107000234246022100904548006801F0D2
:105A1000C5FB4FF0FF3092E798E700BF01208EE70B
:105A20001C0000202E2E5C5372635C677072735CE6
:105A3000677072732E6300007F7200084552524FE8
:105A4000520000005B2573207C20257320402573C5
:105A50002C25645D205265702053656E642066615C
:105A6000696C65640D0A000044454255470000001A
:105A70005B2573207C202573204025732C25645DD5
:105A8000204D65737361676553656E6420636F7540
:105A90006E74203A25640D0A000000005B25732017
:105AA0007C202573204025732C25645D2052657071
:105AB0002053656E206661696C65640D0A00000004
:105AC0005B2573207C202573204025732C25645D85
:105AD000204E6F20475052532073656D6170686F80
