:020000040800F2
:1000000030C6012059020008916B000863520008B5
:1000100085630008C1100008858C000800000000FE
:100020000000000000000000000000009D0100082A
:100030001B1F000800000000F10100087982000881
:1000400073020008730200087302000873020008BC
:1000500073020008730200087302000873020008AC
:1000600073020008730200081D1F000873020008D5
:10007000730200087302000873020008730200088C
:10008000730200087302000873020008730200087C
:10009000B11300087302000873020008730200081D
:1000A000730200087302000873020008730200085C
:1000B0007302000873020008C98300087302000875
:1000C000730200087302000873020008730200083C
:1000D000730200086D8A00087D8A0008FD8A000806
:1000E000730200087302000873020008730200081C
:1000F000730200087302000873020008730200080C
:10010000730200082D6C0008D983000873020008F0
:1001100073020008730200087302000873020008EB
:10012000730200087302000873020008F11D000842
:1001300073020008000000000000000073020008C5
:10014000ED1500087302000873020008730200082E
:1001500073020008011E0008730200087302000801
:10016000730200087302000873020008730200089B
:100170007302000873020008000000000000000085
:100180007302000873020008DFF80CD000F0D4FC02
:1001900000480047B1D2000830C601202B4B196837
:1001A0000868B0E8F04F80F30988BFF36F8F4FF015
:1001B000000080F3118870470000000006480068C6
:1001C000006880F3088862B661B6BFF34F8FBFF353
:1001D0006F8F00DF00BF00BF08ED00E0DFF80C000C
:1001E000016841F470010160704700BF88ED00E0D4
:1001F000EFF30980BFF36F8F144B1A681EF0100FD6
:1002000008BF20ED108A20E9F04F106008B44FF0CD
:10021000500080F31188BFF34F8FBFF36F8F11F041
:10022000DDFA4FF0000080F3118808BC19680868F7
:10023000B0E8F04F1EF0100F08BFB0EC108A80F34A
:100240000988BFF36F8F704700BF00BF5C020020BA
:10025000EFF30580704700000648804706480047D6
:10026000FEE7FEE7FEE7FEE7FEE7FEE7FEE7FEE766
:10027000FEE7FEE765830008890100082DE9F05FCD
:100280000546002092469B46884606468146402405
:100290001BE0284641464746224600F0ECFA53460A
:1002A0005A46C01A914110D311461846224600F012
:1002B000D3FA2D1A67EB01084F4622460120002190
:1002C00000F0CAFA17EB00094E41201EA4F1010408
:1002D000DFDC484631462A464346BDE8F09FA0F1A0
:1002E0004101192900D82030704740EA01039B07DB
:1002F00003D009E008C9121F08C0042AFAD203E09B
:1003000011F8013B00F8013B521EF9D27047D2B2FE
:1003100001E000F8012B491EFBD270470022F6E7EE
:1003200010B513460A4604461946FFF7F0FF20466B
:1003300010BD421E12F8013F002BFBD111F8013B0A
:1003400002F8013B002BF9D1704730B505462A462B
:100350000B4612F8010B13F8014B08B1A042F8D07C
:100360001CB1002802D06D1CF1E7284630BD421CAC
:1003700010F8011B0029FBD1801A704710B500222C
:1003800000E0521C835C8C5CA34201D1002BF8D1AD
:10039000D8B2E1B2401A10BD30B504460020034681
:1003A00000E05B1C934203D2E05CCD5C401BF8D0C4
:1003B00030BD034611F8012B00F8012B002AF9D1BA
:1003C0001846704730B505460020034600E05B1C28
:1003D000934205D2EC5CC85C201A01D1002CF6D106
:1003E00030BD00000FB400B58DB010A909900B907E
:1003F00000914FF0FF300A9000200C9005480690C5
:10040000054807906A4609A80F9900F06BFA0DB0ED
:100410005DF814FB010900081F0900082DE9FF5FC2
:100420001D464FF0FF3BD5E9014691465F464FF030
:100430000008A9697F1C01988847296A8246884775
:100440000028F6D1BAF1FF3F0CD024F4C064002E8E
:1004500019DD600614D5BAF12B0F09D0BAF12D0FB2
:100460000ED103E0584604B0BDE8F09F44F4806428
:10047000A9697F1C01988847761E8246002E02DDFE
:10048000BAF1300F03D0B9F1000F26D032E0A969DC
:10049000761E44F400747F1C019888478246002E23
:1004A00005DDBAF1780F06D0BAF1580F03D0B9F1D3
:1004B000000F10D01EE0B9F1000F02D0B9F1100FFB
:1004C00018D1A969761E24F400747F1C019888470E
:1004D0008246102002E0082000E00A20814609E060
:1004E00008FB0908A969761E44F400747F1C019872
:1004F00088478246002E05DD4946504600F0DDF96A
:100500000028EDDAE96901988847A00502D46FF068
:100510000100A8E7E00725D1600613D5600502D5E4
:10052000C8F1000000E0404629680A1D2A600968F9
:10053000220501D5087015E0220701D5088011E0D9
:1005400008600FE02868011D29600068210502D5B8
:1005500080F8008006E0210702D5A0F8008001E0C5
:10056000C0F8008038467EE72DE9FE4F804681EADC
:100570000300C00F0C46009021F0004123F000451D
:10058000B8EB0200A94105D24046214690461C46E0
:100590000B46024623F00040104347D0270DC7F317
:1005A0000A00C3F30A510290401A019040286BDA06
:1005B000C3F3130040F4801B0098924620B100233F
:1005C000D2EB030A63EB0B0B01985946C0F14002D2
:1005D000504600F041F906460D4650465946019AEC
:1005E00000F059F910EB08006141002487EA11522C
:1005F00084EAE7731A4340D0009A62B3019A012A51
:100600004FEA075215DC001B61EB02014FF000427C
:1006100002EA0752CDE90042001C41F58011324642
:100620002B4600F09CF903B0BDE8F08F4046214610
:10063000F9E7001B61EB0201001C41F58013001873
:100640005B412018A2F5001747EB030140EAD57083
:10065000B6196D4111E06D084FEA360645EAC075DE
:100660004FEA0752001B61EB0201001C41F58011AB
:1006700049084FEA30000019514132462B4603B079
:10068000BDE8F04F00F05CB9009801224000002363
:10069000D0EB020263EBE073009821464FEAE0746E
:1006A000B8EB000061EB0401E9E783F000435BE78E
:1006B00081F0004158E72DE9FE4F81EA030404F080
:1006C000004421F0004100944FF0000B23F0004360
:1006D00050EA01045ED052EA03045BD0C3F30A542B
:1006E000C1F30A552C44A4F2F3340194A0FB025444
:1006F000C1F3130141F48011C3F3130343F48013D6
:1007000001FB024400FB034E840A970A44EA815429
:1007100047EA8357A4FB076802958D0A05FB078506
:100720004FEA932C04FB0C542705029D4FEA065810
:1007300047EA1637B5EB08056EEB070C870E920EED
:1007400047EA811742EA8312A7FB0201B6EB0B01CD
:1007500064EB00042B0D43EA0C335E1844EB1C5091
:10076000DA465146E7FB0201C5F313044FEA0B33A7
:1007700043EA14534FEA0432019C43EA0603A4F10E
:100780000C040294009CCDE900B400F0E8F803B03A
:10079000BDE8F08F00200146F9E70EB5C10F80EAF1
:1007A000E0700844CA07002140F233438DE80E0090
:1007B0000A460B4600F0D3F803B000BD70B5C1F394
:1007C0000A5201F000450024C1F3130140F2FF3347
:1007D00041F480119A4201DA002070BD40F23343A7
:1007E0009A42A2F2334203DC524200F044F800E0A5
:1007F00090402C43F1D0404270BD000030B5041E43
:1008000071F1000404DB4FF00044404264EB01014D
:10081000141E73F1000405DB1C464FF000435242E6
:1008200063EB0403994208BF904230BD30B50B46DC
:10083000014600202022012409E021FA02F59D4210
:1008400005D303FA02F5491B04FA02F52844151EE4
:10085000A2F10102F1DC30BD202A04DB203A00FACB
:1008600002F1002070479140C2F1200320FA03F307
:10087000194390407047202A04DB203A21FA02F005
:100880000021704721FA02F3D040C2F120029140CA
:10089000084319467047202A06DBCB17203A41FA55
:1008A00002F043EAE07306E041FA02F3D040C2F1FD
:1008B000200291400843194670473A2800D2303848
:1008C00020F02002412A01D3A2F13700884201D34F
:1008D0004FF0FF3070470000026811441378016048
:1008E00018467047D16004495161044911620021E2
:1008F0001161114600F038B9D90800085D0B0008F5
:10090000426842B1016811F8013B23B1521EC0E9AF
:100910000012184670470121C160881E7047426866
:100920005AB1C368016843B983688B4205D0491E38
:10093000521CC0E90012002070474FF0FF30704792
:1009400010B5141E73F1000408DA401C41F10001D7
:1009500092185B411A4301D120F0010010BD2DE92E
:10096000F04D92469B4611B1B1FA81F202E0B0FA25
:1009700080F220329046FFF76FFF04460F4640EAB0
:100980000A0041EA0B0153465A46084313D0114668
:1009900053EA010019D0C8F140025046FFF76BFF3F
:1009A00005460E46504659464246FFF755FF084356
:1009B00005D0012004E020463946BDE8F08D002036
:1009C000054346EAE0762C4337430A986305E40A78
:1009D000A0EB08000022FD0A44EA47540A3002D581
:1009E00000200146E9E7010510196941DDE90845E4
:1009F00000196941BDE8F04DA2E72DE9F04D81EA0B
:100A0000030404F0004B21F0004514464FF0000AA7
:100A100023F0004150EA050220D054EA01021DD023
:100A2000C5F30A570246C5F31303C1F31300C1F31C
:100A30000A5640F4801543F48013A7EB0608101BF8
:100A4000D64608F2FD3873EB050002D308F1010821
:100A500001E092185B41B8F1000F03DA0020014673
:100A6000BDE8F08D00204FF48011064684460EE06C
:100A7000171B73EB050705D3121B63EB0503064336
:100A80004CEA010C49084FEA300092185B4150EAE9
:100A90000107EDD152EA030012D082EA040083EA92
:100AA0000501084305D0101BAB4106D201220023EB
:100AB00006E000224FF0004302E06FF00102531005
:100AC0001AEB06004CEB085110EB0A0041EB0B014E
:100AD000BDE8F04DFFF734BF70B521F0004303438C
:100AE0000CD0C1F30A550024D5EB040564EB0403D4
:100AF000D617AD1AB34102DB0020014670BD2018A5
:100B000041EB025170BDC1F30A52C1F3130140F22F
:100B1000FF3341F480119A4202DA00200146704707
:100B200040F233439A42A2F2334202DC5242FFF7D0
:100B3000A2BEFFF791BE0000064C074D06E0E0683C
:100B400040F0010394E8070098471034AC42F6D314
:100B5000FFF71EFBB8DA0308D8DA0308C0B24FF477
:100B6000F05100F0E9B900002DE9F34F8BB04FF0E0
:100B7000000801F10C000C464FF0010B46460DF148
:100B8000080A0190626901210198904705002DD063
:100B9000252D2CD0216A8847C0B1626901210198B6
:100BA0009047216A88470028F7D1411E6269019861
:100BB000904700E0761CA1690B988847216A884716
:100BC0000028F7D1E1690B988847DBE7A1690B980A
:100BD00088470746A84201D1761CD3E7E1690B9804
:100BE00088477F1C02D1B8F1000F6FD046E1002783
:100BF00062693D463946019890472A2804D16269C6
:100C00000121019890470125DFF884926269012152
:100C100001989047A0F130010A290AD24F45E5DC3E
:100C200007EB870100EB4107303FDFD445F01005AB
:100C3000ECE7E90601D46FF000476C280AD04C2895
:100C400014D0682815D06A280DD074281CD07A28B2
:100C50001AD01DE062690121019890476C2802D0EA
:100C600045F0040514E045F002050DE045F02005CF
:100C70000AE06269012101989047682802D045F096
:100C8000080505E045F40065626901210198904777
:100C9000C4E9015765283DD019DC58287AD00CDC0E
:100CA000452837D004DC252826D0412831D131E031
:100CB00046282FD047282CD12CE05B2877D06128FC
:100CC00028D063287CD0642823D15AE0D0E06F2854
:100CD00048D008DC66281DD067281BD0692821D0A1
:100CE0006E2816D127E0702845D0732868D0752863
:100CF00047D078280DD14DE0A1690B98884705466B
:100D000025283FF469AFE1690B9888476D1C3FF4D3
:100D10006AAFB3E023466A466FF001000B99AFF368
:100D200000809EE045F040006060A80723464FF039
:100D3000000236D43EE0E8077FF447AF2068011D8B
:100D400021600068290501D506701BE7290701D538
:100D5000068017E7A90703D5F117C0E9006111E77D
:100D600006600FE745F040006060A80723464FF09B
:100D7000080216D41EE040F60E0125EA010060606C
:100D800016E045F040006060A80723464FF00A02D5
:100D900007D40FE045F040006060A80708D523465F
:100DA00010226FF001000B99AFF3008059E007E0CB
:100DB000234610226FF001000B99FFF72FFB50E044
:100DC0004FF000094F464B46632802D05B2806D0FF
:100DD00040E0E80601D40120A06001273AE0626902
:100DE0000121019890475E2805D14FF00109626901
:100DF000494601989047216939B900210A4653466E
:100E000043F82120491C0829FADBB0B3216969B9EC
:100E1000C11700EBD16253110AEB830122F01F02CC
:100E2000821A01200B68904003430B606269012124
:100E3000019890475D28E8D1B9F1000F09D0002052
:100E4000514651F82020D24341F82020401C082868
:100E5000F7DB02AB224600976FF001000B99AFF36E
:100E6000008000280CDA401C08D1BBF1000F05D02F
:100E70004FF0FF300DB0BDE8F08FFFE74046F9E7D7
:100E8000E90701D108F1010806444FF0000B79E6AB
:100E9000CCCCCC0C2DE9F04D00231A461B1A8A410C
:100EA00003DB00200146BDE8F08DC1F30A52C1F317
:100EB000130141F480154FF0000BD10702D1001847
:100EC0006D41521E0027044640F2FF11384601EBE7
:100ED000620A3E468046024600204FF48011FFF72A
:100EE000CAFCC2197141BB1846EB0100B4EB030CFC
:100EF00075EB000C04D3E41A65EB000517460E46AB
:100F0000241908F101006D4180463428E3DDF91908
:100F100046EB0600091BA84103D24FF0FF321346EF
:100F200001E0002213461BEB070046EB0A51BDE827
:100F3000F04DFFF705BD00007F2801D9002208E031
:100F4000064A02EB5002C007127800D1120902F0E3
:100F50000F0201209040084070470000E0D80308CD
:100F600070B58C1810F8015B15F0070301D110F86B
:100F7000013B2A1106D110F8012B03E010F8016B98
:100F800001F8016B5B1EF9D12B0705D40023521E1B
:100F90000DD401F8013BFAE710F8013BCB1A921C83
:100FA00003E013F8015B01F8015B521EF9D5A14281
:100FB000D8D3002070BD0000054A116800E0C96C5C
:100FC0000029FCD1024A1268C264014A10607047CD
:100FD000240200207047000010B504462146024854
:100FE00003F08CF910BD00008C09002010B50448F6
:100FF00003F097F9042801D0012010BD0020FCE780
:101000008C09002010B5002400F014F8012801D04C
:10101000012010BD064803F099FA044634B94FF494
:101020000061034803F01DF800B101242046F0E7F9
:101030008C09002008B5012000909DF8000008BD33
:101040002DE9F04104460D461646002733462A4650
:101050002146044803F0AAFB00B101273846BDE849
:10106000F08100008C09002010B54FF0FF32012103
:10107000024800680CF0E4F910BD00003C000020BC
:101080002DE9F04104460D461646002733462A4610
:101090002146044803F028FC00B101273846BDE88A
:1010A000F08100008C09002010B54FF0FF320221C2
:1010B000024800680CF0C4F910BD00003C0000209C
:1010C00000BFFEE770B504460D46164614B90AA0E7
:1010D00007F0F6FD072D0AD1002005E004F12801F4
:1010E00041F82060411CC8B20728F7DB03E004F197
:1010F000280040F8256070BD7374727563742062B7
:101100007574746F6E206973206E756C6C210000AD
:101110002DE9F04105460C4616461F4614B91AA0A3
:1011200007F0CEFD50212046FFF7F8F8202229468F
:10113000201D07F087F814F8240F20F00F00093065
:101140002070207820F0F000903020700920A070EE
:1011500044F8246C607867F30100607054F8240C44
:101160008047617860F383016170002084F8260075
:10117000243C0BA007F0A4FD2046FFF71DFF2046EE
:1011800005F008FDBDE8F081737472756374206228
:101190007574746F6E206973206E756C6C2100001D
:1011A000627574746F6E2063726561746520737507
:1011B0006363657373210D0A0000000070B5044677
:1011C00020688047054694F82500C0F38100A842B6
:1011D0002ED094F84A00401CC0B284F84A0002287D
:1011E00026DB2434607865F383006070002084F887
:1011F000260014F8240900F00F00092805D094F8FF
:10120000240000F00F00022806D194F8240020F0FA
:101210000F0084F824000BE094F8240000F00F0085
:1012200030B994F8240020F00F00401C84F824000A
:1012300094F8240000F00F0020B1012826D00228E5
:1012400074D174E094F82500C0F3810094F825105F
:1012500001F00301884218D194F82600032802D037
:10126000002084F8260094F84B00401CC0B284F89B
:101270004B00322809DB032084F8260094F84B0049
:10128000FF2802D1322084F84B0081E094F8260038
:1012900080BB94F849000F281ADC94F8240002213E
:1012A000B1EB101F14D1022084F82600206B10B17E
:1012B0002046216B884714F8240F20F00F000930D6
:1012C0002070207820F0F000903004F824092CE001
:1012D0000020243484F8250084F82700207820F0AA
:1012E0000F00801C2070207820F0F000203004F8DF
:1012F00024091AE0FFE794F82600032815D1606B53
:1013000010B12046616B88470020243484F8270000
:10131000207820F00F0009302070207820F0F000B5
:10132000303020700020A070243C31E02FE014F811
:10133000490F401C207014F849090F280BDB14F8E2
:10134000240F20F00F0009302070207820F0F000EA
:10135000903004F8240994F849000F2816DB94F81B
:101360002400000990B1002084F84900A06A10B15F
:101370002046A16A884714F8240F20F00F00093096
:101380002070207820F0F00004F8240900E000BF6D
:1013900000BF70BD10B50548046803E02046FFF7A4
:1013A0000DFFE46C002CF9D110BD000024020020D8
:1013B00010B5024801F04AFA10BD00003C030020BD
:1013C0002DE9F84304460D4616464FF0FF374148D5
:1013D0000021016041604049009648882346002270
:1013E00011460AF079FC002344F6206219463B4876
:1013F000006810F0E9FB8046B8F1010F5AD10822CD
:1014000034492846FEF7C8FF08B900275EE0207877
:1014100004281FD108222F493148FEF7BDFF60B9CB
:1014200000BF4FF4FB702FA3324A33A1009034A0C9
:1014300007F046FC00BF042748E000BF4FF4FD70F2
:1014400028A32C4A2CA1009036A007F039FC00BF3D
:1014500003273BE0A078FE281FD108221D493B4806
:10146000FEF79AFF60B900BF40F2FF101DA3214AAA
:1014700021A1009036A007F023FC00BF052725E03E
:1014800000BF4FF4017017A31A4A1BA1009039A0A6
:1014900007F016FC00BF032718E000BF40F2092048
:1014A00010A3144A14A100903CA007F009FC00BF4F
:1014B00003270BE000BF40F20E200AA30D4A0EA145
:1014C00000903FA007F0FCFB00BF0327F8B2BDE887
:1014D000F88300002A0000201C00002018000020D3
:1014E000612901082E2E2F5372632F63616E2E63C4
:1014F00000000000C62901084552524F520000006A
:101500005B2573207C202573204025732C25645D8A
:1015100020446563727970745F505F4641494C0D99
:101520000A0000005B2573207C2025732040257372
:101530002C25645D20446563727970745F50207758
:10154000726F6E67204641494C0D0A0089290108D7
:101550005B2573207C202573204025732C25645D3A
:10156000204C696E65456E645F505F4641494C0D85
:101570000A0000005B2573207C2025732040257322
:101580002C25645D204C696E65456E642077726F12
:101590006E67204641494C0D0A0000005B25732010
:1015A0007C202573204025732C25645D2043414E0B
:1015B0002077726F6E67204641494C0D0A0000008B
:1015C0005B2573207C202573204025732C25645DCA
:1015D0002063616E206973206E6F74207265737072
:1015E0006F6E64696E672E0D0A00000010B5024828
:1015F00001F02CF910BD0000640300202DE9F84330
:1016000004460D4616464FF0FF3741480021016061
:1016100041604049009648882346002211460AF05E
:1016200065FC002344F6206219463B48006810F030
:10163000CBFA8046B8F1010F5AD108223449284626
:10164000FEF7AAFE08B900275EE0207804281FD123
:1016500008222F493148FEF79FFE60B900BF4FF4C2
:10166000E2702FA3324A33A1009034A007F028FB88
:1016700000BF042748E000BF4FF4E47028A32C4AC1
:101680002CA1009036A007F01BFB00BF03273BE016
:10169000A078FE281FD108221D493B48FEF77CFE9A
:1016A00060B900BF40F2CD101DA3214A21A10090D6
:1016B00036A007F005FB00BF052725E000BF4FF46B
:1016C000E97017A31A4A1BA1009039A007F0F8FA95
:1016D00000BF032718E000BF40F2D71010A3144A40
:1016E00014A100903CA007F0EBFA00BF03270BE029
:1016F00000BF4FF4EE700AA30D4A0EA100903FA068
:1017000007F0DEFA00BF0327F8B2BDE8F883000057
:10171000220000201C000020140000206129010884
:101720002E2E2F5372632F63616E2E630000000014
:10173000BE2901084552524F520000005B2573201C
:101740007C202573204025732C25645D204465632F
:10175000727970745F505F4641494C0D0A00000079
:101760005B2573207C202573204025732C25645D28
:1017700020446563727970745F502077726F6E6772
:10178000204641494C0D0A00892901085B25732038
:101790007C202573204025732C25645D204C696EC8
:1017A00065456E645F505F4641494C0D0A0000007C
:1017B0005B2573207C202573204025732C25645DD8
:1017C000204C696E65456E642077726F6E672046A7
:1017D00041494C0D0A0000005B2573207C202573D5
:1017E000204025732C25645D2043414E2077726F85
:1017F0006E67204641494C0D0A0000005B257320AE
:101800007C202573204025732C25645D2063616E48
:10181000206973206E6F7420726573706F6E6469D7
:101820006E672E0D0A0000002DE9F8434FF0FF35DA
:1018300000240026A046A146A748007901287DD1B2
:10184000A549088804F092FB00BF4FF41870A3A3C9
:10185000A64AA7A10090A8A007F032FA00BF08226C
:10186000B049B148FFF7CAFE054675B1012500BF72
:101870004FF4197099A39D4AACA10090ADA007F058
:101880001FFA00BFE8B2BDE8F883B8480021016044
:1018900041600820904900904888B54B00221146CD
:1018A0000AF024FB002344F620621946B148006880
:1018B00010F08AF90746012F39D1AC480078042886
:1018C00007D1AA484078672803D1A8488078FB2828
:1018D0000DD0012500BF40F2712080A3834A93A15F
:1018E0000090A5A007F0ECF900BFE8B2CBE79F4855
:1018F000C478067906EB042044F22151484006EBF7
:10190000042143F2214211400844C0F3072806EBAA
:1019100004202121484006EB0421212211400844E3
:1019200000F0FF09A44880F8038080F804900822A2
:10193000A249A148FFF762FE054600E025E06DB12F
:10194000012500BF40F27E2064A3684A77A1009081
:101950009BA007F0B5F900BFE8B294E70822A749B9
:10196000A748FFF74BFE05466DB1012500BF40F2C9
:1019700085205AA35D4A6DA1009091A007F0A0F9BF
:1019800000BFE8B27FE70025A4E0534800790228B1
:10199000FAD15149088804F055FB00BF4FF4237079
:1019A0004EA3524A52A1009053A007F089F900BFFC
:1019B00008225C495C48FFF703FD05466DB101252F
:1019C00000BF40F2912045A3484A58A1009059A079
:1019D00007F076F900BFE8B255E78A4800210160B8
:1019E000416008203C4900904888614B0022114624
:1019F0000AF072F9002344F6206219468248006812
:101A000010F0E2F80746012F39D17E48007804280B
:101A100007D17C484078672803D17A488078FB2832
:101A20000DD0012500BF40F29E202CA32F4A3FA1DC
:101A3000009051A007F044F900BFE8B223E77148D5
:101A4000C478067906EB042044F22151484006EBA5
:101A5000042143F2214211400844C0F3072806EB59
:101A600004202121484006EB042121221140084492
:101A700000F0FF09504880F8038080F804900822A5
:101A80004E494D48FFF79CFC05466DB1012500BF4E
:101A900040F2AB2011A3154A24A1009048A007F002
:101AA0000FF900BFE8B2EEE6082254495448FFF7A8
:101AB00087FC05466DB1012500BF40F2B22007A3A7
:101AC0000A4A1AA100903EA007F0FAF800BFE8B257
:101AD000D9E60025E8B2D6E61C0000202E2E2F53B2
:101AE00072632F63616E2E6300000000CF2901082E
:101AF000494E464F520000005B2573207C20257321
:101B0000204025732C25645D2073746172742073EA
:101B1000656E64696E6720436F6E6E6563745F50B7
:101B20000D0A000049290108412901084552524F78
:101B3000520000005B2573207C2025732040257314
:101B40002C25645D2043414E2053454E442069734B
:101B50002077726F6E672E2120506C65617365204F
:101B6000636865636B210D0A0000000022000020FD
:101B700051290108140000205B2573207C20257367
:101B8000204025732C25645D2043414E205361661F
:101B900065436F6E6E6563745F5020697320777262
:101BA0006F6E672E2120506C6561736520636865D8
:101BB000636B210D0A00000008000020592901086C
:101BC0005B2573207C202573204025732C25645DC4
:101BD0002043414E20446563727970745F502069E0
:101BE000732077726F6E672E2120506C656173656C
:101BF00020636865636B210D0A00000071290108EC
:101C0000692901082A0000201800002038B54FF08B
:101C1000FF341B480079012816D1082219491A48B7
:101C2000FFF7ECFC04466CB1012400BF40F22E30FB
:101C300016A31A4A1AA100901BA007F041F800BF92
:101C4000E0B238BD002419E00D480079022815D112
:101C500008220C490C48FFF7B3FB04466CB1012481
:101C600000BF40F2373009A30C4A0DA100900EA02E
:101C700007F026F800BFE0B2E3E70024E0B2E0E7B7
:101C80001C00002099290108912901082E2E2F53AC
:101C900072632F63616E2E6300000000E629010865
:101CA0004552524F520000005B2573207C20257363
:101CB000204025732C25645D2043616E53656E645E
:101CC0004C696E655061636B2069732077726F6E2B
:101CD000672E2120506C6561736520636865636BB6
:101CE000210D0A00F8B505464FF0FF34274800796A
:101CF000012822D12846FEF73AFB86B223490096F6
:101D000048882B46002211460AF0F0F808222049A4
:101D10002048FFF773FC04466CB1012400BF40F279
:101D20000F301DA3204A21A1009022A006F0C8FF79
:101D300000BFE0B2F8BD002425E014480079022875
:101D400021D12846FEF713FB86B210490096488839
:101D50002B460022114609F0BFFF08220C490D480E
:101D6000FFF72EFB04466CB1012400BF40F21A308D
:101D700009A30D4A0DA100900EA006F0A1FF00BF1F
:101D8000E0B2D7E70024E0B2D4E700001C00002056
:101D900081290108792901082E2E2F5372632F63A0
:101DA000616E2E6300000000D62901084552524F93
:101DB000520000005B2573207C2025732040257392
:101DC0002C25645D2043616E53656E644C696E65BD
:101DD0005061636B2069732077726F6E672E2120CC
:101DE000506C6561736520636865636B210D0A0043
:101DF00010B5024801F03AF810BD0000100A0020AA
:101E000010B5024801F032F810BD0000700A002041
:101E10000146087810381823B0FBF3F20848805CBC
:101E2000C865032A05D908686FF30900001D886595
:101E300003E008686FF309008865886D704700004B
:101E40004C2C0108014600208A6A8B69CBB932B15B
:101E5000012A0DD0022A03D0032A10D10EE000BFC0
:101E6000CB6A03F08073B3F1807F00D1012007E0DB
:101E7000CB6AB3F1C07F00D1012001E000E000BFD8
:101E800034E08B69B3F5005F1AD132B1012A07D073
:101E9000022A03D0032A11D10AE000BF01200EE07C
:101EA000CB6A03F08073B3F1807F00D1012006E09C
:101EB000CB6AB3F1C07F00D1012000E000BF15E084
:101EC00032B1012A05D0022A04D0032A0CD103E042
:101ED00000BF00BF012008E0CB6A03F08073B3F1BC
:101EE000807F00D1012000E000BF00BF704730B507
:101EF0000468246824F4802405682C600468636006
:101F00008468402C04D10468A2600468E16003E0A6
:101F10000468A1600468E26030BD704710B510200D
:101F200001F078FA10BD30B504460D46002229466E
:101F3000204600F001F830BDF0B50346012500242D
:101F40001148407A01281CDA00200F4E767A0E4F95
:101F5000B8553846467A001D40F82630001F467AAC
:101F6000083082553E46707A461C7E72044604F163
:101F7000300008703A2048702F2088700020C87008
:101F800000252846F0BD000024B6012010B500222F
:101F900001B909E0012901D10A0205E0022901D1B4
:101FA0000A0201E04FF440720E4B1B6823F44073A9
:101FB0000C4C236023461B681343236023461B6895
:101FC00023F0F803236023461B68022444EAC0047C
:101FD0002343044C236023461B6843F4803323606F
:101FE00010BD0000103C02401C48006800F4007066
:101FF000B0B11A48006820F400701849086000BFAA
:102000000846006840F4006008600846006820F454
:102010000060086000BF0846006840F40070086077
:102020000E48006800F48060B0B10C48006820F4ED
:1020300080600A49086000BF0846006840F480508C
:1020400008600846006820F48050086000BF084619
:10205000006840F48060086070470000003C024067
:102060000A4A126822F44072084B1A601A46126833
:1020700042F004021A601A4612684FF4803343EAB1
:1020800000231A43014B1A6070470000103C0240C5
:10209000074A126822F44072054B1A601A46126809
:1020A0001A601A46126842F001021A600170704705
:1020B000103C024010B50949096821F44071074CF1
:1020C00021602146096841F4407121602146096878
:1020D00041F0010121600260436010BD103C0240EC
:1020E000084A126822F44072064B1A601A461268B7
:1020F00042F480721A601A46126842F001021A60B5
:1021000001807047103C0240084A126822F4407275
:10211000064B1A601A46126842F400721A601A4698
:10212000126842F001021A6001607047103C0240E0
:102130002348006800F0100040B12248C06940F018
:1021400010002049C86110201D4908601C48006823
:1021500000F0200040B11B48C06940F00800194958
:10216000C8612020164908601548006800F040004A
:1021700040B11448C06940F004001249C8614020D1
:102180000F4908600E48006800F0800040B10D481B
:10219000C06940F002000B49C8618020084908600E
:1021A0000748006800F0020040B10648C06940F0EE
:1021B00020000449C86102200149086070470000FE
:1021C0000C3C024098EA002070B50446002500202F
:1021D0001449C86101F044FA054609E0601C38B1B1
:1021E00024B101F03DFA401BA04201D9032070BD8B
:1021F0000D48006800F480300028EFD10A480068DC
:1022000000F0010010B1012007490860064800688D
:1022100000F0F20018B1FFF78BFF0120E7E7002084
:10222000E5E7000098EA00200C3C0240014600204F
:102230002C4A914203D2B1F1006F00D350E02A4AF8
:10224000914204D2274A914201D3012048E0274A13
:10225000914204D2244A914201D3022040E0244A10
:10226000914204D2214A914201D3032038E0214A0D
:10227000914204D21E4A914201D3042030E01E4A0A
:10228000914204D21B4A914201D3052028E01B4A07
:10229000914204D2184A914201D3062020E0184A04
:1022A000914204D2154A914201D3072018E0154A01
:1022B000914204D2124A914201D3082010E0124AFE
:1022C000914204D20F4A914201D3092008E00F4AFB
:1022D000914204D20C4A914201D30A2000E00B2023
:1022E00070470000004000080080000800C000089F
:1022F00000000108000002080000040800000608B1
:102300000000080800000A0800000C0800000E0881
:10231000014600202C4A914204D2B1F1006F01D352
:10232000500350E0294A914204D2274A914201D3F6
:10233000104648E0264A914204D2244A914201D3F1
:10234000104640E0234A914204D2214A914201D3EF
:10235000104638E0204A914204D21E4A914201D3ED
:10236000104630E01D4A914204D21B4A914201D3EB
:10237000104628E01A4A914204D2184A914201D3E9
:10238000104620E0174A914204D2154A914201D3E7
:10239000104618E0144A914204D2124A914201D3E5
:1023A000104610E0114A914204D20F4A914201D3E3
:1023B000104608E00E4A914204D20C4A914201D3E1
:1023C000104600E00A4870470040000800800008FE
:1023D00000C0000800000108000002080000040816
:1023E000000006080000080800000A0800000C08A9
:1023F00000000E0810B5024692F82030012B01D0E3
:10240000022B06D1106840690843146860610020FF
:1024100010BD506A40F4802050620120F8E7F0B50A
:1024200004460D461E4694F8207020688368A8680C
:1024300000B900E000BF012F01D0022F7CD103F0D2
:10244000806030B903F0006018B903F080500028B4
:1024500073D0C3F30161022905D9606A40F400001A
:1024600060620120F0BD012088403060A86860B93A
:10247000B5F800C0E86840EA4C5C206800F5C07020
:1024800000EB0110C0F800C00FE0D5E901C040EA40
:10249000CC00D5F80CC040EA0C00D4F800C00CF514
:1024A000C07C0CEB011CCCF80000D5F810C02068F3
:1024B00000F5C07000EB0110C0F804C0287D0128B1
:1024C0000ED1206800F5C07000EB0110406840F4A8
:1024D000807C206800F5C07000EB0110C0F804C0DB
:1024E000D079000692F806C040EA0C4092F805C088
:1024F00040EA0C2C10794CEA000C206800F5C07002
:1025000000EB0110C0F80CC0D078000692F802C0B1
:1025100040EA0C4092F801C040EA0C2092F800C05A
:1025200040EA0C00D4F800C00CF5C07C0CEB011C98
:10253000CCF80800206801E016E00FE000F5C0705C
:1025400000EB0110006840F0010C206800F5C0703D
:1025500000EB0110C0F800C0002083E7606A40F47F
:102560000010606201207DE7606A40F480206062B4
:10257000012077E7F0B504460A46216894F8205018
:10258000012D01D0022D7ED1424901F5007108686C
:1025900040F001000860086820F47C50086008687A
:1025A000566A40EA06200860107D00F01F060120F0
:1025B00000FA06F3C8699843C861A1F50071D069B3
:1025C000C8B9D1F80C029843C1F80C02908880B2C7
:1025D000968940EA064601F51070576940F8376061
:1025E000108880B2168940EA064601F510705769D6
:1025F00000EBC7004660D069012819D1D1F80C0260
:102600001843C1F80C02908880B2168840EA06464A
:1026100001F51070576940F83760908980B21689CB
:1026200040EA064601F51070576900EBC7004660A6
:10263000906928B9D1F804029843C1F8040204E073
:10264000D1F804021843C1F80402106928B9D1F87E
:1026500014029843C1F8140204E0D1F8140218439C
:10266000C1F81402106A012804D1D1F81C021843E1
:10267000C1F81C02D1F8000220F00100C1F80002EC
:102680000020F0BDFFE7606A40F480206062012016
:10269000F7E7000000640040704770B5044694F806
:1026A0002050012D01D0022D7CD151B92068C06885
:1026B00000F0030080B9606A40F4001060620120FD
:1026C00070BD2068006900F0030028B9606A40F41A
:1026D000001060620120F3E7206800F5D87000EB7D
:1026E0000110006800F004009060906840B9206814
:1026F00000F5D87000EB01100068400D106007E095
:10270000206800F5D87000EB01100068C008506028
:10271000206800F5D87000EB0110006800F002009E
:102720004008D060206800F5D87000EB01104068C8
:1027300000F00F001061206800F5D87000EB011068
:10274000406800F47F40000A9061206800F5D8706E
:1027500000EB01104068000C5061206800F5D87053
:1027600000EB011080681870206800F5D87000EB4D
:102770000110806800F47F40000A5870206800F55E
:10278000D87000EB0110806800F47F00000C987096
:10279000206800F5D87000EB01108068000ED8703A
:1027A000206800E031E000F5D87000EB0110C0684F
:1027B0001871206800F5D87000EB0110C06800F4B3
:1027C0007F40000A5871206800F5D87000EB0110B6
:1027D000C06800F47F00000C9871206800F5D87084
:1027E00000EB0110C068000ED87131B92068C068D4
:1027F00040F020002668F06005E02068006940F0A5
:1028000020002668306100205AE7606A40F480208A
:102810006062012054E70146002091F82020012A3F
:1028200001D0022A11D10B689B6803F0806303B1C9
:10283000401C0B689B6803F0006303B1401C0B68ED
:102840009B6803F0805303B1401C70472DE9F05F93
:1028500004460025206846692068D0F80490206866
:1028600087682068D0F80CA02068D0F810B02068E5
:10287000D0F8188006F00100002855D007F00100BC
:10288000C0B101202168886007F0020018B120461D
:1028900000F0D1FA0EE007F0040010B145F4006535
:1028A00008E007F0080010B145F4805502E020462A
:1028B00000F0C0FA07F48070C8B14FF4807021684E
:1028C000886007F4007018B1204600F0B6FA0EE0F8
:1028D00007F4806010B145F4005508E007F400608B
:1028E00010B145F4804502E0204600F0A5FA07F457
:1028F0008030C8B14FF480302168886007F4003020
:1029000018B1204600F09BFA0EE007F4802010B1C9
:1029100045F4004508E007F4002010B145F4803587
:1029200002E0204600F08AFA06F0080038B10AF00A
:10293000100020B145F4007510202168C86006F031
:10294000040040B10AF0080028B108202168C860DE
:10295000204600F009FA06F0020038B12068C0688D
:1029600000F0030010B1204600F000FA06F040002D
:1029700038B10BF0100020B145F4806510202168BB
:10298000086106F0200040B10BF0080028B10820D3
:1029900021680861204600F01BFA06F0100038B1EB
:1029A0002068006900F0030010B1204600F011FA21
:1029B00006F4003040B109F0100028B11020216861
:1029C0004860204600F006FA06F4803040B109F075
:1029D000080028B1082021684860204600F030FA3D
:1029E00006F4004088B309F0040078B306F4807060
:1029F00020B108F0010008B145F0010506F40070AF
:102A000020B108F0020008B145F0020506F480602C
:102A100020B108F0040008B145F0040506F4006098
:102A2000A0B108F0700088B108F07000402817D0FD
:102A300006DC10280BD020280CD0302819D10CE04F
:102A4000502810D0602814D110E01DE019E045F0A6
:102A500008050FE045F010050CE045F0200509E001
:102A600045F0400506E045F0800503E045F480753B
:102A700000E000BF00BF2068806920F0700021687E
:102A800088610420216848602DB1606A2843606233
:102A90002046FFF701FEBDE8F09F70B504460CB973
:102AA000012070BD94F8200010B9204600F0C2F853
:102AB0002068006820F002002168086000F0D0FD66
:102AC00005460DE000F0CCFD401B0A2808D9606ADD
:102AD00040F400306062052084F820000120E0E727
:102AE0002068406800F002000028EBD120680068F0
:102AF00040F001002168086000F0B2FD05460DE0DD
:102B000000F0AEFD401B0A2808D9606A40F400308E
:102B10006062052084F820000120C2E72068406838
:102B200000F001000028EBD0207E012806D12068AB
:102B3000006840F080002168086005E020680068B7
:102B400020F0800021680860607E012806D120689E
:102B5000006840F040002168086005E020680068D7
:102B600020F0400021680860A07E012806D120687E
:102B7000006840F020002168086005E020680068D7
:102B800020F0200021680860E07E012806D120683E
:102B9000006820F010002168086005E020680068E7
:102BA00040F0100021680860207F012806D12068CD
:102BB000006840F008002168086005E020680068AF
:102BC00020F0080021680860607F012806D1206895
:102BD000006840F004002168086005E02068006893
:102BE00020F0040021680860D4E90201084321694B
:102BF0000843616908436168491E08432168C86148
:102C000000206062012084F82000002049E710B510
:102C10000246002092F82030012B01D0022B07D170
:102C20001468A46804EA8164B4EB816F00D00120C9
:102C300010BD000010B586B00446464920688842A1
:102C400039D100BF002000904348006840F0007078
:102C5000414908600846006800F00070009000BF1D
:102C600000BF00BF002000903B481038006840F0D3
:102C700001003949103908600846006800F0010079
:102C8000009000BF00BF4FF4C0500190022002909E
:102C900001200390032004900920059001A92F48EA
:102CA00000F0C6FB00220521142000F0DDFD1420F9
:102CB00000F0CAFD4BE02A492068884247D100BF96
:102CC000002000902448006840F08060224908609D
:102CD0000846006800F08060009000BF00BF00BFA1
:102CE000002000900846006840F000700860084628
:102CF000006800F00070009000BF00BF00BF00201F
:102D0000009015481038006840F002001249103950
:102D100008600846006800F00200009000BF00BF95
:102D20004FF44050019002200290002003900320B5
:102D300004900920059001A90A4800F079FB0022BF
:102D40000521402000F090FD402000F07DFD06B000
:102D500010BD000000640040403802400000024006
:102D600000680040000402407047000010B50446AF
:102D70000F49206888420BD10E4B0F4A0021204694
:102D8000FFF78BFC00210D4800680FF09BF90EE067
:102D90000B49206888420AD10A4B0B4A0021204681
:102DA000FFF77BFC0021094800680FF08BF910BD8C
:102DB00000640040220000200403002014000020D2
:102DC000006800402A000020200300201800002096
:102DD00070477047704770B5044694F8200001288A
:102DE00022D1022084F820002068006820F0010031
:102DF0002168086000F034FC05460DE000F030FC6E
:102E0000401B0A2808D9606A40F40030606205203F
:102E100084F82000012070BD2068406800F00100A7
:102E20000028EBD16062F6E7606A40F4002060623F
:102E30000120F0E770477047704770477047704750
:102E40007047014691F83500022803D0802048657C
:102E500001207047052081F835000868006820F0DF
:102E600001000A6810600020F3E70000F8B504468E
:102E7000002000908C4800684FF41651B0FBF1F729
:102E8000A56D2E6894F85C1008208840304098B1F9
:102E90002068006800F0040070B12068006820F02D
:102EA00004002168086094F85C1008208840A8603D
:102EB000606D40F00100606594F85C10012088406E
:102EC000304068B12068406900F0800040B194F85B
:102ED0005C1001208840A860606D40F002006065D1
:102EE00094F85C1004208840304068B12068006885
:102EF00000F0020040B194F85C1004208840A86003
:102F0000606D40F00400606594F85C10102088400B
:102F1000304078B32068006800F0080050B394F89F
:102F20005C1010208840A8602068006800F48020B1
:102F300080B12068006800F4002028B9206CC8B176
:102F40002046216C884715E0A06C98B12046A16C02
:102F500088470FE02068006800F4807028B9206876
:102F6000006820F0080021680860206C10B120463D
:102F7000216C884794F85C1020208840304000285D
:102F800065D02068006800F0100000285FD094F839
:102F90005C1020208840A86094F83500052828D1CE
:102FA0002068006820F016002168086020684069E9
:102FB00020F0800021684861206C08B9A06C28B11D
:102FC0002068006820F008002168086094F85C1010
:102FD0003F208840A86000BF002084F8340000BF74
:102FE000012084F83500206D10B12046216D8847FE
:102FF000F8BD2068006800F4802080B12068006877
:1030000000F4002028B9606C10B12046616C88473C
:103010001DE0E06BD8B12046E16B884717E02068DF
:10302000006800F4807068B92068006820F0100023
:103030002168086000BF002084F8340000BF012030
:1030400084F83500E06B10B12046E16B8847606D75
:1030500038B3606D00F00100F0B1052084F8350050
:103060002068006820F001002168086000BF009817
:10307000401C0090B84200D905E02068006800F0CC
:1030800001000028F3D100BF00BF002084F8340005
:1030900000BF012084F83500E06C10B12046E16CDF
:1030A000884700BFA4E70000340200202DE9F0416A
:1030B0000446002500F0D4FA074614B90120BDE803
:1030C000F081606A00B100BF00BF002084F83400C6
:1030D00000BF022084F835002068006820F001005D
:1030E000216808600AE000F0BBFAC01B052805D97A
:1030F00020206065032084F83500E0E72068006840
:1031000000F001000028EED1206805682148054044
:10311000D4E901010843E168084321690843616972
:103120000843A1690843E1690843216A084305434C
:10313000606A042803D1D4E90B01084305432068E1
:1031400005602068456925F00705606A0543606AE7
:1031500004280DD1A06A0543E06A48B12046FEF775
:1031600071FE28B140206065012084F83500A6E793
:10317000206845612046FEF74BFE064694F85C1039
:103180003F208840B06000206065012084F8350051
:10319000002094E73F8010F02DE9F04704460D46EB
:1031A00016461F464FF00008D4F8589000BF94F818
:1031B0003400012802D10220BDE8F087012084F804
:1031C000340000BF94F8350001282BD1022084F888
:1031D0003500002060653B46324629462046FEF712
:1031E00086FE94F85C103F208840C9F808002068EB
:1031F000006840F01600216808602068406940F0CF
:10320000800021684861206C28B12068006840F087
:103210000800216808602068006840F0010021680B
:10322000086006E000BF002084F8340000BF4FF0C3
:1032300002084046C0E7000070B5044600F010FAEE
:1032400006462546681C10B104480078054400BFB6
:1032500000F006FA801BA842FAD370BD30020020AD
:103260002DE9F04104460E460127002500BF254800
:10327000007E012802D10220BDE8F0810120214911
:10328000087600BF4CF25030FEF79EFF0746002F35
:1032900031D1401E3060206801280FD1207C616848
:1032A000FEF7DEFE4CF25030FEF78EFF0746164862
:1032B000006820F00400144908601AE0A56812E0D4
:1032C000217C2846FEF762FE4CF25030FEF77CFF70
:1032D00007460D48006820F0FA000B4908600FB15E
:1032E000356005E06D1CD4E902100844A842E7D817
:1032F00000BFFEF779FE00BF00200249087600BF3C
:103300003846B9E798EA0020103C024003480068BC
:1033100040F000400149086000207047103C024026
:103320002DE9F04106460F4614461D464FF00108B0
:1033300000BF1F48007E012802D10220BDE8F081B5
:1033400001201B49087600BF4CF25030FEF73CFFCD
:103350008046B8F1000F23D126B9E1B23846FEF716
:1033600097FE12E0012E04D1A1B23846FEF7B8FE56
:103370000BE0022E04D121463846FEF7C5FE04E0DC
:1033800022462B463846FEF795FE4CF25030FEF7AB
:103390001BFF80460748006820F0010005490860CF
:1033A00000BF00200249087600BF4046C6E7000083
:1033B00098EA0020103C024000200949096801F009
:1033C000004159B10749064A0C3A1160064911609B
:1033D0000349096801F0004101B101207047000074
:1033E000103C024023016745AB89EFCD10B5044680
:1033F00001220421044800F02CF9044801F0A0FB4C
:103400000348046010BD000000080240D00A0020FC
:10341000143C014010B5044604480068204020B127
:10342000024804602046FFF7E1FF10BD143C014054
:10343000F8B502460B460025002400200021DCE000
:10344000012606FA01F51E6806EA0504AC4273D1AE
:103450005E68022E02D05E68122E13D1CF0802F1F0
:10346000200656F827004E07F70E0F26BE40B04341
:103470004F07FF0E1E69BE403043CF0802F1200601
:1034800046F8270010684F000326BE40B0431E795F
:1034900006F003064F00BE40304310605E68012E08
:1034A00008D05E68022E05D05E68112E02D05E68DC
:1034B000122E13D190684F000326BE40B0434F0038
:1034C000DE68BE4030439060506801268E40B043B5
:1034D0001E79C6F300168E4030435060D0684F000E
:1034E0000326BE40B0434F009E68BE403043D060CC
:1034F0005E6806F08056B6F1805F7DD100BF002681
:103500000096404E366846F480463E4F3E603E464A
:10351000366806F48046009600BF00BF3A4E8F081A
:1035200056F827008E07370F0F26BE40B043374EA0
:10353000B24202D1002624E05EE0354EB24201D113
:1035400001261EE0334EB24201D1022619E0324E6E
:10355000B24201D1032614E0304EB24201D104261A
:103560000FE02F4EB24201D105260AE02D4EB242A5
:1035700001D1062605E02C4EB24201D1072600E01B
:1035800008268F073F0FBE4030431F4E8F0846F876
:103590002700264E3068A0435E6806F48036B6F5F4
:1035A000803F00D12043214E3060361D3068A0435B
:1035B0005E6806F40036B6F5003F00D120431B4E8E
:1035C000361D3060361D3068A0435E6806F48016F4
:1035D000B6F5801F00D12043144E08363060361DEA
:1035E0003068A0435E6806F40016B6F5001F00D1EF
:1035F00020430E4E0C363060491C1029FFF420AFDA
:10360000F8BD000044380240083801400000024084
:103610000004024000080240000C0240001002407A
:103620000014024000180240001C0240003C01400F
:10363000024613690B400BB1012000E000207047E7
:1036400042690A408A4202D10A04826100E0816133
:1036500070470AB1816101E00B048361704700008B
:1036600001480068704700002802002070B5044639
:103670000CB9012070BD4CF6CC402168086045F2C1
:10368000555021680860D4E9001048602168A0689E
:103690008860FFF7E5FF054606E0FFF7E1FF401B06
:1036A000302801D90320E5E72068C0680028F4D15C
:1036B0004AF6AA20216808600020DBE701464AF6A6
:1036C000AA200A68106000207047000003480068C4
:1036D000034909780844014908607047280200201E
:1036E0003002002010B50D48006840F400700B490E
:1036F00008600846006840F480600860084600687A
:1037000040F480700860032000F0ECF8002000F026
:1037100007F800F04BF8002010BD0000003C02400C
:1037200070B588B0044600250026002221463220CC
:1037300000F09AF8322000F087F800BF00200190D6
:103740001648006840F00800144908600846006800
:1037500000F00800019000BF00BF02A903A800F01C
:10376000B7F900F0DDF945000D48B5FBF0F0461E55
:103770000C480D49086040F2E7310B48C1604660D3
:1037800000210161816001F09DF920B9064801F036
:10379000D7F908B070BD0120FBE7000040380240B7
:1037A00040420F00000C0040A017002008B500BFE9
:1037B000002000902348006840F4804021490860C0
:1037C0000846006800F48040009000BF00BF00BFC2
:1037D00000200090081F006840F08050091F08601A
:1037E0000846006800F08050009000BF00BF032032
:1037F00000F078F8002211466FF00B0000F034F86A
:10380000002211466FF00A0000F02EF80022114647
:103810006FF0090000F028F800221146501F00F058
:1038200023F800221146101F00F01EF800220F217D
:10383000901E00F019F800220F21501E00F014F81D
:1038400008BD00004438024001460846002809DB54
:1038500000F01F0301229A4043099B0003F1E0237B
:10386000C3F8002100BF70472DE9F05F80460D4688
:103870001646002705F060FA074639462A463346C1
:1038800001F00700C0F1070ABAF1040F02D94FF0A6
:10389000040A01E0C0F1070AD14600F1040ABAF1B6
:1038A000070F02D24FF0000A01E0A0F1030AD4464C
:1038B0004FF0010A0AFA09FAAAF1010A0AEA020A11
:1038C0000AFA0CFA4FF0010B0BFA0CFBABF1010BEF
:1038D0000BEA030B4AEA0B042146404605F034FA92
:1038E000BDE8F09F00BF00F00702064B19684FF6D5
:1038F000FF031940044B0B4343EA0221014B1960BB
:1039000000BF70470CED00E00000FA0500BF00BFEB
:1039100000BF00BF00BFBFF34F8F00BF00BF00BF9D
:103920000948006800F4E06008490843001D0649A2
:10393000086000BF00BF00BFBFF34F8F00BF00BFD4
:1039400000BF00BF00BFFDE70CED00E00000FA057E
:1039500070B504460D460CB9012070BD584800688A
:1039600000F00F00A84209D255490D7008460068C2
:1039700000F00F00A84201D00120EEE7207800F00F
:10398000020002281DD1207800F00400042805D18F
:103990004C48006840F4E0504A490860207800F044
:1039A0000800082805D14748006840F460404549B0
:1039B00008604448006820F0F000A16808434149CD
:1039C0000860207800F00100A8B36068012807D1E2
:1039D0003C4808380068C0F34040B8B90120BCE753
:1039E0006068022802D06068032807D1354808388B
:1039F0000068C0F3406048B90120AEE7314808389C
:103A00000068C0F3400008B90120A6E72D4800680F
:103A100020F00300616808432A490860FFF720FE90
:103A2000064609E0FFF71CFE801B41F28831884200
:103A300002D9032091E707E02248006800F00C005B
:103A40006168B0EB810FEDD11D48006800F00F00F8
:103A5000A84209D91A490D700846006800F00F0005
:103A6000A84201D0012078E7207800F00400042863
:103A700007D11448006820F4E050E1680843114978
:103A80000860207800F00800082808D10D48006878
:103A900020F46040216940EAC1000A49086000F052
:103AA0005FF808490968C1F30311074A515CC8402F
:103AB000064908600020FFF733FE00204DE70000B4
:103AC000003C024008380240542C01083402002017
:103AD0000F2202600D4A126802F0030242600B4A94
:103AE000126802F0F0028260084A126802F4E052A2
:103AF000C260064A126802F46042D2080261044AB7
:103B0000126802F00F020A60704700000838024095
:103B1000003C024001480068704700003402002069
:103B200000B5FFF7F7FF04490968C1F38221034A92
:103B3000515CC84000BD000008380240642C0108F8
:103B400000B5FFF7E7FF04490968C1F34231034AB2
:103B5000515CC84000BD000008380240642C0108D8
:103B60002DE9F047002400250026A14625480068DD
:103B700000F00C0020B1042805D008283AD105E057
:103B8000DFF8849039E0DFF8849036E01D48001FAC
:103B9000006800F03F041B48001F006800F480002C
:103BA00078B11A481749091F0968C1F38811A0FBA9
:103BB00001700146224600233846FCF75FFB0546AC
:103BC0000EE011480F49091F0968C1F38811A0FBD5
:103BD00001700146224600233846FCF74FFB05469C
:103BE0000848001F0068C0F30140401C4600B5FBB8
:103BF000F6F902E0DFF8109000BF00BF4846BDE8CC
:103C0000F0870000083802400024F40000127A0017
:103C1000F8B504460CB90120F8BD207800F0010089
:103C2000002874D0F948006800F00C0004280DD07A
:103C3000F648006800F00C00082813D1F348001F74
:103C4000006800F48000B0F5800F0BD1EF48083811
:103C50000068C0F34040002859D06068002856D161
:103C60000120D9E700BF6068B0F5803F08D1E74880
:103C70000838006840F48030E449083908601EE0E4
:103C80006068B0F5A02F0DD1E0480838006840F416
:103C90008020DE49083908600846006840F480301A
:103CA00008600CE0D9480838006820F48030D74913
:103CB000083908600846006820F48020086000BFCA
:103CC000606890B1FFF7CCFC054606E0FFF7C8FC42
:103CD000401B642801D903209EE7CC4808380068BF
:103CE000C0F340400028F1D011E0FFF7B9FC0546D1
:103CF00006E0FFF7B5FC401B642801D903208BE7E1
:103D0000C24808380068C0F340400028F1D120784C
:103D100000F0020002285FD1BC48006800F00C00EF
:103D200058B1BA48006800F00C0008281CD1B74808
:103D3000001F006800F48000B0B9B448083800687B
:103D4000C0F3400020B1E068012801D0012063E702
:103D5000AE480838006820F0F800216940EAC10048
:103D6000AA490839086037E0E06800B30120A84993
:103D70000860FFF775FC054606E0FFF771FC401B85
:103D8000022801D9032047E7A04808380068C0F39B
:103D900040000028F1D09D480838006820F0F80065
:103DA000216940EAC10099490839086014E00020FF
:103DB00097490860FFF754FC054606E0FFF750FC02
:103DC000401B022801D9032026E7904808380068E4
:103DD000C0F340000028F1D1207800F00800082846
:103DE0002CD16069A8B101208A490860FFF738FC2E
:103DF000054606E0FFF734FC401B022801D90320EA
:103E00000AE782486C300068C0F340000028F1D017
:103E100014E000207F490860FFF722FC054606E019
:103E2000FFF71EFC401B022801D90320F4E6774867
:103E30006C300068C0F340000028F1D1207800F019
:103E40000400042870D1002670483830006800F063
:103E5000805090B900BF002000906C483830006856
:103E600040F080506949383108600846006800F029
:103E70008050009000BF00BF01266748006800F432
:103E80008070B0B96448006840F48070624908608E
:103E9000FFF7E6FB054606E0FFF7E2FB401B0228C2
:103EA00001D90320B8E65C48006800F4807000285F
:103EB000F2D000BFA068012808D1544868300068DB
:103EC00040F001005149683108601DE0A0680528F4
:103ED0000DD14E486830006840F004004B4968310D
:103EE00008600846006840F0010008600CE04748A0
:103EF0006830006820F001004449683108600846D5
:103F0000006820F00400086000BFA068A8B1FFF7B7
:103F1000A7FB054609E0FFF7A3FB401B41F28831F0
:103F2000884202D9032077E626E0384868300068E6
:103F3000C0F340000028EED013E0FFF791FB0546E8
:103F400008E0FFF78DFB401B41F28831884201D920
:103F5000032061E62D4868300068C0F34000002867
:103F6000EFD1012E07D129483830006820F0805069
:103F700026493831086000BFA069B8B323480068FB
:103F800000F00C0008285ED0A069022846D100206D
:103F90001F490866FFF764FB054606E0FFF760FB74
:103FA000401B022801D9032036E61848083800686B
:103FB000C0F340600028F1D1D4E907010843616AE9
:103FC00040EA81110122A06AC2EB500041EA00419F
:103FD0002C20005D41EA00600C49091F08600120A7
:103FE0000B490866FFF73CFB054607E02DE0FFF7AD
:103FF00037FB401B022801D903200DE6034808388F
:104000000068C0F340600028F1D01EE0083802408C
:1040100000004742800E47420070004000200C49DB
:104020000866FFF71DFB054606E0FFF719FB401B7E
:10403000022801D90320EFE506480068C0F340607C
:104040000028F2D101E00120E6E50020E4E50000CF
:10405000000047420038024010B50446FCF7BAFFA2
:1040600010BD70B58AB004460D460026032084F8C2
:104070003400606C032820D0B5F5805F04D1A06BBC
:1040800040F08050A0631CE0B5F5006F07D12046DA
:1040900003F079FC0646A06B3043A06311E03DB904
:1040A000204603F03BFC0646A06B3043A06308E0CB
:1040B000A06B40F00060A06303E0A06B40F0805074
:1040C000A063A06B40B140F2FF50216888630120DB
:1040D00084F834000AB070BD60680490A068059050
:1040E000E0680690079560690890A069099007A8A4
:1040F00007C88DE80700206804A90EC902F09EFDDC
:10410000012084F834000020E4E7704730B503460E
:104110000022586E020E90090870C2F383004870A6
:1041200002F003008870586EC0F30742CA70B3F8FB
:104130006400C0F307220A7193F864204A71986EF4
:10414000020E4FF6FF7000EA0210C880986EC0F3AE
:104150000742C88840EA1210C88002F00F000872B7
:104160006820C05AC0F30722D0094872C2F38010F9
:104170008872C2F34010C872C2F3001008730020A6
:104180004873586C00283ED19007000D08616820E4
:10419000C25C086940EA82000861D86E020E0869B4
:1041A00040EA92100861C2F3C200087502F00700ED
:1041B0004875D86EC0F3074250098875C2F3820073
:1041C000C8759007400F08766C20C05AC0F30722CC
:1041D000087E40EAD21008760869401C58650C7EBB
:1041E000586DA41C0125A540684358650C7A012030
:1041F000A0409865D3E91504640A6043D8654FF47C
:1042000000741C6630E0586C012821D16820C25C23
:104210009006800A0861D86E020E086940EA022002
:104220000861D86EC0F307420869104308616C202A
:10423000C05AC0F307220869441C4FF48060A4FBF5
:1042400000045865D8654FF400749C651C660BE04B
:1042500040F2FF501C68A063986B40F08050986358
:10426000012083F8340030BDC2F3801001F8190F2B
:104270009006400E48706C20C25C487840EAD2102C
:10428000487002F07F008870186F020ED009C87065
:10429000C2F341100871C2F3820048719007000F09
:1042A0008871186FC0F30742887940EA92108871CC
:1042B000C2F34010C8710020087202F00100487279
:1042C0007020C05AC0F30722D0098872C2F3801050
:1042D000C872C2F340100873C2F300104873C2F3EF
:1042E0008100887302F00300C8737020C25C50081C
:1042F00008740120487419390020B4E70246506C54
:104300000860906C4860D06C8860106DC860506D1B
:104310000861906D4861D06D8861106EC8610020A1
:104320007047F8B504460426002500200090694631
:10433000204603F0DAFA054615B1A06B2843A063C6
:104340000098C0F343263046F8BD000070B504461F
:1043500000252068406BC0F30020002863D04FF494
:104360008070216888632068C06B40F23A318843CE
:104370002168C863206B00F0080048B3206B00F090
:10438000020018B9206B00F0200050B1206802F044
:104390001DFE05462DB1A06B2843A0632046FFF704
:1043A000B4FE40F2FF5021688863012084F8340095
:1043B000206B00F0010018B9206B00F0020018B16A
:1043C000204600F087FABCE0204600F088FAB8E00A
:1043D000206B00F080000028F5D0206B00F020005A
:1043E00050B1206802F0F2FD05462DB1A06B2843C4
:1043F000A0632046FFF789FE206B00F00100002833
:10440000E1D1206B00F002000028DCD12068C06AF6
:1044100020F008002168C862012084F8340020469A
:1044200000F05DFA8DE02068406BC0F3803038B159
:104430004FF4804021688863204603F0D9FA80E079
:104440002068406BC0F3C03038B14FF400402168A1
:104450008863204603F036FA73E02068406B40F230
:104460003A21084008B1012000E00020002868D06F
:104470002068406BC0F3400018B1A06B40F0020010
:10448000A0632068406BC0F3C00018B1A06B40F07F
:104490000800A0632068406BC0F3401018B1A06B07
:1044A00040F02000A0632068406BC0F3001018B1FA
:1044B000A06B40F01000A0632068406BC0F3402068
:1044C00018B1A06B40F00800A06340F2FF702168B3
:1044D00088632068C06B40F23A3188432168C86322
:1044E000206B00F0800010B3206C50B11548216C97
:1044F0000865206CFEF7A5FC10B1206C03F031F8C4
:104500001FE0E06B50B11048E16B0865E06BFEF70F
:1045100098FCB0B1E06B02F0F5FF12E00020A06360
:10452000012084F834002046FFF796FD09E0206B57
:1045300000F0080028B1012084F834002046FFF77D
:10454000E4FD70BD637500080575000810B50446EC
:104550000CB9012010BD94F8340020B90020207758
:10456000204600F051F8032084F83400204600F083
:1045700009F80020A0632063012084F834000020A3
:10458000E8E7000030B589B004460025002003901C
:1045900004900590069007907620089006A807C81A
:1045A0008DE80700206803A90EC902F047FB002030
:1045B00014490860206802F05BFB01201149A03912
:1045C000C1F8A0000220FEF737FE204603F003F9F1
:1045D000054645B1012084F83400A06B2843A06350
:1045E000012009B030BD204603F077F805463DB103
:1045F000012084F83400A06B2843A0630120F0E779
:104600000020EEE7A080254210B586B004461421B4
:1046100001A8FBF783FE5A49206888427ED100BF7B
:10462000002000905748006840F400605549086039
:104630000846006800F40060009000BF00BF00BFA3
:10464000002000904F481438006840F004004D49A5
:10465000143908600846006800F00400009000BFAC
:1046600000BF00BF002000900846006840F008002E
:1046700008600846006800F00800009000BF00BF16
:104680004FF4F85001900220029000200390032084
:1046900004900C20059001A93B48FEF7C9FE0420B8
:1046A00001900220029000200390032004900C202F
:1046B000059001A93548FEF7BBFE3548354908602D
:1046C0004FF000604860002132488160C1604FF4C3
:1046D0008061016189004161890081612021C1619E
:1046E0000021016204214162032181624FF4000133
:1046F000C16289100163FEF7D9FC18B16C2126A0B4
:1047000004F0DCFA00BF2348E063846300BF204864
:104710004830254908604FF0006000E02DE0486017
:104720004021214881600021C1604FF48061016116
:1047300089004161890081612021C16100210162FC
:1047400004214162032181624FF40001C16289109A
:104750000163FEF7ABFC18B181210FA004F0AEFAA3
:1047600000BF11482064846300BF0022062131206D
:10477000FFF77AF83120FFF767F806B010BD0000A8
:10478000002C01404438024000080240000C024066
:1047900058640240100A00202E2E5C5372635C7332
:1047A00064696F2E63000000700A00202DE9F0415B
:1047B00086B00446884616461D460027B8F1000F0D
:1047C00007D1A06B40F00060A063012006B0BDE8F7
:1047D000F08194F83400012874D10020A06371198D
:1047E000E06D814205D9A06B40F00070A06301200C
:1047F000ECE7032084F8340000202168C8622068B8
:10480000C06B40F22A3108432168C8632E48E16B2F
:10481000C8632E48E16BC8640020E16B08656A023A
:104820009308226802F180014246E06BFEF7B4FC77
:10483000012027490860606C012800D076024FF003
:10484000FF300090680201909020029002200390B7
:1048500000200490012005906946206802F0BCF910
:104860004FF40071206802F061FA074657B140F238
:10487000FF5021688863A06B3843A063012084F84F
:104880003400A3E7012D07D9822020633146206838
:1048900002F0B8FA074606E081202063314620681E
:1048A00002F0CDFA07465FB140F2FF5021688863FD
:1048B000A06B3843A063012084F8340086E701E050
:1048C000002083E7022081E7BF74000863740008BA
:1048D0008C85254210B50446FCF7C6FB10BD10B50B
:1048E0000446FCF7E1FB10BD2DE9F04186B004461B
:1048F000884616461D460027B8F1000F07D1A06B69
:1049000040F00060A063012006B0BDE8F08194F89B
:104910003400012873D10020A0637119E06D814239
:1049200005D9A06B40F00070A0630120ECE70320E4
:1049300084F8340000202168C8622068C06B40F20F
:104940001A2108432168C8632E48216CC8632E4889
:10495000216CC8640020216C0865606C012800D0BF
:1049600076024FF40071206802F0E0F9074657B173
:1049700040F2FF5021688863A06B3843A063012098
:1049800084F83400C0E7012D07D9A0202063314608
:10499000206802F039FB074606E09020206331468C
:1049A000206802F04EFB074657B140F2FF502168E5
:1049B0008863A06B3843A063012084F83400A3E728
:1049C00001201249086069028B08216801F1800208
:1049D0004146206CFEF7E0FB4FF0FF30009068028C
:1049E00001909020029000200390049001200590F7
:1049F0006946206802F0F0F8002085E7FFE7022012
:104A000082E7000051750008637400088C85254218
:104A1000042808D14FF0E021096941F004014FF06A
:104A2000E022116107E04FF0E021096921F0040163
:104A30004FF0E0221161704770B504462546681EAC
:104A4000B0F1807F01D301200FE0681E4FF0E0211C
:104A500048610F214FF0FF3004F076F900204FF04D
:104A6000E021886107200861002070BD7047704711
:104A700010B5024600BF92F83C00012801D1022087
:104A800010BD012082F83C0000BF022082F83D00EA
:104A9000106843681068846823F070030868034353
:104AA00024F0800448680443106843601068846000
:104AB000012082F83D0000BF002082F83C0000BFCA
:104AC00000BFDDE710B504460CB9012010BD94F815
:104AD0003D0028B9002084F83C00204600F00CF886
:104AE000022084F83D00211D206803F07DFC012098
:104AF00084F83D000020E9E738B504460E492068F7
:104B0000884217D100BF002000900C48006840F098
:104B100004000A4908600846006800F0040000909C
:104B200000BF00BF002208211E20FEF79DFE1E20B0
:104B3000FEF78AFE38BD0000000800404038024001
:104B400001460868C06840F001000B68D86008683A
:104B5000806800F00702062A05D00868006840F067
:104B600001000B6818600020704701460868C068A3
:104B700020F001000A68D06000BF0868006A41F2B6
:104B80001112104050B90868006A9210104028B9FC
:104B90000868006820F001000A68106000BF00206B
:104BA00070472DE9F04104460D4600BF94F83C00E3
:104BB000012802D10220BDE8F081012084F83C00E8
:104BC00000BF022084F83D002068866826F0770642
:104BD00026F47F46206886602868502833D00CDC95
:104BE000202850D004DC00284BD0102851D149E0B7
:104BF000302849D040284CD139E060282DD0702889
:104C000007D0B0F5805F03D0B0F5005F41D10DE073
:104C100040E0D5E902136A68206803F051FC20687F
:104C2000866846F077062068866033E0D5E902138F
:104C30006A68206803F044FC2068806840F4804083
:104C40002168886026E0EA686968206803F04CFC07
:104C50005021206803F03FFC1CE0EA686968206886
:104C600003F055FC6021206803F035FC12E0EA688F
:104C70006968206803F038FC4021206803F02BFCB1
:104C800008E000BF00BF00BF2968206803F023FCD4
:104C900000E000BF00BF012084F83D0000BF0020FD
:104CA00084F83C0000BF00BF85E7704710B504469C
:104CB00020680069C0F34000D8B12068C068C0F324
:104CC0004000B0B16FF00200216808610120207738
:104CD0002068806900F0030018B12046FFF7E5FF67
:104CE00005E0204600F0ADF8204600F0ABF80020CB
:104CF000207720680069C0F38000D8B12068C068C0
:104D0000C0F38000B0B16FF0040021680861022098
:104D100020772068806900F4407018B12046FFF7C2
:104D2000C4FF05E0204600F08CF8204600F08AF829
:104D30000020207720680069C0F3C000D8B1206847
:104D4000C068C0F3C000B0B16FF00800216808610E
:104D5000042020772068C06900F0030018B12046C5
:104D6000FFF7A3FF05E0204600F06BF8204600F0B7
:104D700069F80020207720680069C0F30010D8B1DE
:104D80002068C068C0F30010B0B16FF01000216857
:104D90000861082020772068C06900F4407018B1CD
:104DA0002046FFF782FF05E0204600F04AF8204643
:104DB00000F048F8002020772068006900F001002A
:104DC00058B12068C06800F0010030B16FF00100F8
:104DD00021680861204600F037F820680069C0F3B8
:104DE000C01058B12068C068C0F3C01030B16FF077
:104DF0008000216808612046FFF738FE20680069BE
:104E0000C0F3801058B12068C068C0F3801030B182
:104E10006FF0400021680861204600F031F82068FA
:104E20000069C0F3401058B12068C068C0F340105A
:104E300030B16FF02000216808612046FFF717FEAF
:104E400010BD70477047000010B50446094920683E
:104E5000884201D1FEF73AFC07492068884207D111
:104E60000648FFF782FEFCF795FA0448FFF768FE54
:104E700010BD0000000C004000080040D00A0020D7
:104E8000704770472DE9F0470446206805682068A0
:104E9000C668206847694FF00008C14605F00F0852
:104EA000B8F1000F0AD105F0200038B106F020005B
:104EB00020B1204603F069FBBDE8F087B8F1000F90
:104EC0006ED007F0010018B906F49070002867D082
:104ED00005F0010030B106F4807018B1E06B40F0CD
:104EE0000100E06305F0040030B107F0010018B1E3
:104EF000E06B40F00200E06305F0020030B107F023
:104F0000010018B1E06B40F00400E06305F0080018
:104F100030B107F0010018B1E06B40F00800E06329
:104F2000E06B70B305F0200028B106F0200010B14E
:104F3000204603F02AFB20684069C0F38019E06B2B
:104F400000F0080010B9B9F1000F23D0204603F09B
:104F5000FCFA2068406900F04000402816D1206823
:104F6000406920F0400021684861606B50B11748EB
:104F7000616B0865606BFDF764FF10B1606B016DDC
:104F800088470CE02046FFF77CFF08E02046FFF74B
:104F900078FF04E02046FFF774FF0020E0638BE712
:104FA00005F0800030B106F0800018B1204603F013
:104FB000F3FC81E705F0400030B106F0400018B185
:104FC000204603F0D2FA77E700BF75E7378500087F
:104FD00010B504460CB9012010BDA06900B100E075
:104FE00000BF94F8390028B9002084F83800204622
:104FF00000F028F8242084F839002068C06820F4E4
:1050000000502168C860204603F012FB2068006948
:1050100020F49040216808612068406920F02A004F
:10502000216848612068C06840F400502168C86069
:105030000020E063202084F8390084F83A00002042
:10504000CAE7000010B586B0044648492068884287
:105050001FD100BF002000904548006840F01000BC
:10506000434908600846006800F01000009000BF47
:1050700000BF4FF4C0600190022002900120039015
:10508000032004900720059001A93A48FEF7D0F9C3
:1050900069E039492068884238D100BF002000907B
:1050A0003348001F006840F400303149091F086090
:1050B0000846006800F40030009000BF00BF0C20DC
:1050C0000190022002900120039003200490072009
:1050D000059001A92748FEF7ABF9002206212620FA
:1050E000FEF7C2FB2620FEF7AFFB24480068C0682D
:1050F00040F0200021490968C86020480068C06865
:1051000040F010001D490968C8602CE01C49206867
:10511000884228D100BF002000901548001F006879
:1051200040F480201249091F08600846006800F416
:105130008020009000BF00BF4FF44060019002202B
:10514000029001200390032004900720059001A9FC
:105150000C48FEF76DF9002206212720FEF784FB9C
:105160002720FEF771FB06B010BD000000100140C3
:105170004438024000000240004400405C0D002022
:10518000004800400004024070472DE9F8430446FF
:105190000D4616461F464FF0000994F839002028A6
:1051A0005CD105B116B90120BDE8F88300BF94F8C1
:1051B0003800012801D10220F6E7012084F83800E8
:1051C00000BF0020E063212084F83900FEF748FA90
:1051D0008146A684E6842BE0E08C401EE084A06833
:1051E000B0F5805F16D14B46002280212046009703
:1051F00003F006FC08B10320D6E7A846B8F8000083
:10520000C0F3080021684860206908B9AD1C0FE0B0
:105210006D1C0DE04B46002280212046009703F0D4
:10522000EFFB08B10320BFE715F8010B21684860C8
:10523000E08C0028D0D14B46002240212046009728
:1052400003F0DEFB08B10320AEE7202084F839002C
:1052500000BF002084F8380000BFA5E70220A3E7C4
:10526000704700BFFEE700007CB5C82009F00AFCCB
:105270000646C8213046FBF751F8364A36A130467B
:1052800003F02EFD00BF40F2AD103CA3404A41A107
:10529000CDE9000641A003F013FD00BF002543E067
:1052A0004548FEF70BFAC8213046FBF737F8294A84
:1052B00029A1304603F014FD0121304601F04EFAD9
:1052C000002341F2883219463C4800680CF07CFC0F
:1052D0000446012C1BD130460BF0D4FF00BF40F236
:1052E000B91026A32A4A36A1009037A003F0E8FCA3
:1052F00000BF01213C4800680CF01AFB02213A482B
:1053000000680CF0DAFA0120384908707CBD00BF53
:1053100040F2BF1019A31E4A35A1CDE9000536A001
:1053200003F0CEFC00BF6D1C032DB9DB30460BF043
:10533000A9FF00BF4FF4E17010A3154A2CA1009003
:1053400037A003F0BDFC00BF0BF088FE4FF0FF302C
:10535000DCE70000510000207B2274797065223A5E
:1053600022686561727462656174222C22696D65C0
:1053700069223A222573227D000000002E2E5C5304
:1053800072635C677072735C677072732E63000087
:10539000CF2A0108494E464F520000005B2573207A
:1053A0007C202573204025732C25645D2073747246
:1053B0003A2573200D0A0000BC02002040000020A6
:1053C00044454255470000005B2573207C2025732F
:1053D000204025732C25645D2068656172747273AA
:1053E00070206F6B0D0A0000A4010020480000200F
:1053F0004552524F520000005B2573207C202573DC
:10540000204025732C25645D2073656E64206865DB
:105410006172742025642074696D65730D0A000043
:105420005B2573207C202573204025732C25645D2B
:105430002073656E64206865617274206661696CB2
:1054400065640D0A00000000F0B50446002300204A
:1054500000BF17E0E55CEE1705EB16763611303627
:105460000746401CCE55E55CEE1705EB1676361167
:10547000A5EB0616303606F0FF0C0646401C01F878
:1054800006C05B1C9342E5DB00201DE00D5C3A3D4D
:10549000062D16D2DFE805F00306090C0F12612570
:1054A0000D540FE062250D540CE063250D5409E006
:1054B00064250D5406E065250D5403E066250D5462
:1054C00000E000BF00BF401C55008542DEDC002527
:1054D00001F81250F0BD000075E03B48006800285C
:1054E0006DD03A48FEF7EAF80021374800680CF022
:1054F000E4F9044604F0010050B10221324800688A
:105500000CF0DBF9002220213148FEF7A2F811E06F
:1055100004F0020048B101212B4800680CF0CDF9DD
:1055200020212B48FEF78CF804E001222021284896
:10553000FEF78FF804F0040050B100221021244837
:10554000FEF787F8012240212248FEF782F80CE09E
:1055500004F0080048B1002240211E48FEF779F807
:10556000012210211A48FEF774F804F0100060B10F
:10557000002202211848FEF76CF8022009F05CFDB9
:105580001021114800680CF098F904F0200060B177
:10559000002201211048FEF75CF8022009F04CFDC2
:1055A0002021094800680CF088F904F0400030B16F
:1055B00009F0E8FC4021044800680CF07EF94FF443
:1055C000FA700BF05FFF88E7A4010020BC02002006
:1055D00000080240000002400004024010B50446EA
:1055E0000A480B4908600846446000218160C16098
:1055F00001610C21416100218161C161FFF7E8FC7B
:1056000018B1232103A003F059FB10BD0010014085
:105610001C0D00202E2E2F5372632F757361727430
:105620002E63000070B503460024002010E00E5CDD
:10563000451C4D5D46EA0526851C4D5D46EA05463E
:10564000C51C4D5D46EA056543F82450641C001DE9
:105650009042ECD370BD70B5034614460022002082
:1056600015E011F822501D5431F82250C5F30726D9
:10567000451C5E5551F82250C5F30746851C5E5502
:1056800051F822502D0EC61C9D55521C001DA042E3
:10569000E7D370BD2DE9FC4104460E4600250027E6
:1056A0002088C0F3C505382D02D2C5F1380001E0CD
:1056B000C5F178000746082221466846FFF7CBFF70
:1056C0003A460849204600F00BFC0822694620466D
:1056D00000F006FC102204F108013046FFF7BBFF82
:1056E000BDE8FC81510100200021016041600549B5
:1056F0008160054AC260CA430261034AD2434261E3
:10570000704700000123456789ABCDEF2DE9F043D9
:10571000C0B080468946D8F80040D8F80450D8F880
:105720000860D8F80C70402249466846FFF77AFFB7
:1057300005EA060027EA0501084300990844FE49E6
:1057400008440444E00140EA54642C4404EA05009F
:1057500026EA0401084301990844F849084407442B
:10576000380340EA1757274407EA040025EA0701EF
:10577000084302990844F24908440644700440EA88
:10578000D6363E4406EA070024EA06010843039998
:105790000844EC4908440544A80540EA95253544E9
:1057A00005EA060027EA0501084304990844E6498A
:1057B00008440444E00140EA54642C4404EA05002F
:1057C00026EA0401084305990844E04908440744CF
:1057D000380340EA1757274407EA040025EA07017F
:1057E000084306990844DA4908440644700440EA2C
:1057F000D6363E4406EA070024EA06010843079924
:105800000844D44908440544A80540EA9525354490
:1058100005EA060027EA0501084308990844CE492D
:1058200008440444E00140EA54642C4404EA0500BE
:1058300026EA0401084309990844C8490844074472
:10584000380340EA1757274407EA040025EA07010E
:1058500008430A990844A0F524404F3806447004D0
:1058600040EAD6363E4406EA070024EA0601084329
:105870000B990844BA4908440544A80540EA95250F
:10588000354405EA060027EA050108430C99084457
:10589000B44908440444E00140EA54642C4404EA56
:1058A000050026EA040108430D990844AE4908445E
:1058B0000744380340EA1757274407EA040025EA5B
:1058C000070108430E990844A84908440644700497
:1058D00040EAD6363E4406EA070024EA06010843B9
:1058E0000F990844A24908440544A80540EA9525B3
:1058F000354405EA070026EA0701084301990844F0
:105900009C4908440444600140EAD4642C4404EAFD
:10591000060025EA0601084306990844964908440A
:105920000744780240EAD757274407EA050024EAEB
:10593000050108430B990844904908440644B00304
:1059400040EA96463E4406EA040027EA040108437A
:10595000009908448A4908440544280540EA153559
:10596000354405EA070026EA07010843059908447B
:10597000844908440444600140EAD4642C4404EAA5
:10598000060025EA060108430A9908447E490844AE
:105990000744780240EAD757274407EA050024EA7B
:1059A000050108430F990844784908440644B003A8
:1059B00040EA96463E4406EA040027EA040108430A
:1059C00004990844724908440544280540EA1535FD
:1059D000354405EA070026EA070108430999084407
:1059E0006C4908440444600140EAD4642C4404EA4D
:1059F000060025EA060108430E9908446649084452
:105A00000744780240EAD757274407EA050024EA0A
:105A10000501084303990844604908440644B0035B
:105A200040EA96463E4406EA040027EA0401084399
:105A3000089908445A4908440544280540EA1535A0
:105A4000354405EA070026EA070108430D99084492
:105A5000544908440444600140EAD4642C4404EAF4
:105A6000060025EA06010843029908444E49084405
:105A70000744780240EAD757274407EA050024EA9A
:105A80000501084307990844484908440644B003FF
:105A900040EA96463E4406EA040027EA0401084329
:105AA0000C990844424908440544280540EA153544
:105AB000354485EA06007840059908443D49084484
:105AC0000444200140EA14742C4484EA0500704028
:105AD00008990844384908440744F80240EA5757EF
