:020000040800F2
:1000000030B80120590200089D3D0008AB2C0008C3
:10001000153800089B0F0008D948000800000000B0
:100020000000000000000000000000009D0100082A
:10003000B10F000800000000F10100081D40000899
:1000400073020008730200087302000873020008BC
:1000500073020008730200087302000873020008AC
:10006000730200087302000873020008730200089C
:10007000730200087302000873020008730200088C
:10008000730200087302000873020008730200087C
:10009000A10F000873020008730200087302000831
:1000A000730200087302000873020008730200085C
:1000B000730200087302000873020008730200084C
:1000C000730200087302000873020008730200083C
:1000D000730200088D4700089D4700081D4800086E
:1000E000730200087302000873020008730200081C
:1000F000730200087302000873020008730200080C
:1001000073020008730200086D41000873020008C2
:1001100073020008730200087302000873020008EB
:1001200073020008730200087302000873020008DB
:1001300073020008000000000000000073020008C5
:1001400073020008730200087302000873020008BB
:1001500073020008730200087302000873020008AB
:10016000730200087302000873020008730200089B
:100170007302000873020008000000000000000085
:100180007302000873020008DFF80CD000F0C6FC10
:1001900000480047696F000830B801202B4B1968F0
:1001A0000868B0E8F04F80F30988BFF36F8F4FF015
:1001B000000080F3118870470000000006480068C6
:1001C000006880F3088862B661B6BFF34F8FBFF353
:1001D0006F8F00DF00BF00BF08ED00E0DFF80C000C
:1001E000016841F470010160704700BF88ED00E0D4
:1001F000EFF30980BFF36F8F144B1A681EF0100FD6
:1002000008BF20ED108A20E9F04F106008B44FF0CD
:10021000500080F31188BFF34F8FBFF36F8F09F049
:1002200041FD4FF0000080F3118808BC1968086890
:10023000B0E8F04F1EF0100F08BFB0EC108A80F34A
:100240000988BFF36F8F704700BF00BFF001002027
:10025000EFF30580704700000648804706480047D6
:10026000FEE7FEE7FEE7FEE7FEE7FEE7FEE7FEE766
:10027000FEE7FEE709410008890100082DE9F05F6B
:100280000546002092469B46884606468146402405
:100290001BE0284641464746224600F0DEFA534618
:1002A0005A46C01A914110D311461846224600F012
:1002B000C5FA2D1A67EB01084F462246012000219E
:1002C00000F0BCFA17EB00094E41201EA4F1010416
:1002D000DFDC484631462A464346BDE8F09FA0F1A0
:1002E0004101192900D82030704740EA01039B07DB
:1002F00003D009E008C9121F08C0042AFAD203E09B
:1003000011F8013B00F8013B521EF9D27047D2B2FE
:1003100001E000F8012B491EFBD270470022F6E7EE
:1003200010B513460A4604461946FFF7F0FF20466B
:1003300010BD421E12F8013F002BFBD111F8013B0A
:1003400002F8013B002BF9D1704730B505462A462B
:100350000B4612F8010B13F8014B08B1A042F8D07C
:100360001CB1002802D06D1CF1E7284630BD421CAC
:1003700010F8011B0029FBD1801A704710B500222C
:1003800000E0521C835C8C5CA34201D1002BF8D1AD
:10039000D8B2E1B2401A10BD034611F8012B00F8A3
:1003A000012B002AF9D11846704730B505460020C8
:1003B000034600E05B1C934205D2EC5CC85C201A4B
:1003C00001D1002CF6D130BD0FB400B58DB010A90D
:1003D00009900B9000914FF0FF300A9000200C9094
:1003E00005480690054807906A4609A80F9900F04D
:1003F0006BFA0DB05DF814FBE5080008030900086E
:100400002DE9FF5F1D464FF0FF3BD5E901469146C0
:100410005F464FF00008A9697F1C01988847296A48
:10042000824688470028F6D1BAF1FF3F0CD024F469
:10043000C064002E19DD600614D5BAF12B0F09D067
:10044000BAF12D0F0ED103E0584604B0BDE8F09F7D
:1004500044F48064A9697F1C01988847761E82460F
:10046000002E02DDBAF1300F03D0B9F1000F26D013
:1004700032E0A969761E44F400747F1C0198884715
:100480008246002E05DDBAF1780F06D0BAF1580F7A
:1004900003D0B9F1000F10D01EE0B9F1000F02D067
:1004A000B9F1100F18D1A969761E24F400747F1CCD
:1004B000019888478246102002E0082000E00A20C8
:1004C000814609E008FB0908A969761E44F4007416
:1004D0007F1C019888478246002E05DD494650461C
:1004E00000F0DDF90028EDDAE96901988847A005F8
:1004F00002D46FF00100A8E7E00725D1600613D50C
:10050000600502D5C8F1000000E0404629680A1DD8
:100510002A600968220501D5087015E0220701D577
:10052000088011E008600FE02868011D296000685C
:10053000210502D580F8008006E0210702D5A0F849
:10054000008001E0C0F8008038467EE72DE9FE4FCC
:10055000804681EA0300C00F0C46009021F0004164
:1005600023F00045B8EB0200A94105D240462146E0
:1005700090461C460B46024623F00040104347D0ED
:10058000270DC7F30A00C3F30A510290401A0190E5
:1005900040286BDAC3F3130040F4801B00989246A6
:1005A00020B10023D2EB030A63EB0B0B01985946F1
:1005B000C0F14002504600F041F906460D46504653
:1005C0005946019A00F059F910EB080061410024E6
:1005D00087EA115284EAE7731A4340D0009A62B363
:1005E000019A012A4FEA075215DC001B61EB020158
:1005F0004FF0004202EA0752CDE90042001C41F5EB
:10060000801132462B4600F09CF903B0BDE8F08F14
:1006100040462146F9E7001B61EB0201001C41F551
:10062000801300185B412018A2F5001747EB030167
:1006300040EAD570B6196D4111E06D084FEA3606F3
:1006400045EAC0754FEA0752001B61EB0201001C2E
:1006500041F5801149084FEA3000001951413246F6
:100660002B4603B0BDE8F04F00F05CB900980122C2
:1006700040000023D0EB020263EBE07300982146B8
:100680004FEAE074B8EB000061EB0401E9E783F0A6
:1006900000435BE781F0004158E72DE9FE4F81EA16
:1006A000030404F0004421F0004100944FF0000BDB
:1006B00023F0004350EA01045ED052EA03045BD009
:1006C000C3F30A54C1F30A552C44A4F2F334019441
:1006D000A0FB0254C1F3130141F48011C3F31303CF
:1006E00043F4801301FB024400FB034E840A970A83
:1006F00044EA815447EA8357A4FB076802958D0AB0
:1007000005FB07854FEA932C04FB0C542705029D3B
:100710004FEA065847EA1637B5EB08056EEB070CAB
:10072000870E920E47EA811742EA8312A7FB020165
:10073000B6EB0B0164EB00042B0D43EA0C335E189F
:1007400044EB1C50DA465146E7FB0201C5F31304A3
:100750004FEA0B3343EA14534FEA0432019C43EA55
:100760000603A4F10C040294009CCDE900B400F04F
:10077000E8F803B0BDE8F08F00200146F9E70EB5B8
:10078000C10F80EAE0700844CA07002140F23343F9
:100790008DE80E000A460B4600F0D3F803B000BD0A
:1007A00070B5C1F30A5201F000450024C1F31301F2
:1007B00040F2FF3341F480119A4201DA002070BD0B
:1007C00040F233439A42A2F2334203DC524200F039
:1007D00044F800E090402C43F1D0404270BD00004E
:1007E00030B5041E71F1000404DB4FF000444042B8
:1007F00064EB0101141E73F1000405DB1C464FF08D
:100800000043524263EB0403994208BF904230BD5B
:1008100030B50B46014600202022012409E021FAD0
:1008200002F59D4205D303FA02F5491B04FA02F5CD
:100830002844151EA2F10102F1DC30BD202A04DBA0
:10084000203A00FA02F1002070479140C2F12003E3
:1008500020FA03F3194390407047202A04DB203A22
:1008600021FA02F00021704721FA02F3D040C2F1D0
:1008700020029140084319467047202A06DBCB1717
:10088000203A41FA02F043EAE07306E041FA02F34B
:10089000D040C2F1200291400843194670473A28DF
:1008A00000D2303820F02002412A01D3A2F13700D3
:1008B000884201D34FF0FF307047000002681144B6
:1008C0001378016018467047D160044951610449AA
:1008D000116200211161114600F038B9BD0800080D
:1008E000410B0008426842B1016811F8013B23B195
:1008F000521EC0E90012184670470121C160881ECF
:10090000704742685AB1C368016843B983688B4233
:1009100005D0491E521CC0E90012002070474FF05C
:10092000FF30704710B5141E73F1000408DA401C44
:1009300041F1000192185B411A4301D120F00100FE
:1009400010BD2DE9F04D92469B4611B1B1FA81F2EE
:1009500002E0B0FA80F220329046FFF76FFF0446C3
:100960000F4640EA0A0041EA0B0153465A46084343
:1009700013D0114653EA010019D0C8F14002504685
:10098000FFF76BFF05460E46504659464246FFF7B5
:1009900055FF084305D0012004E020463946BDE854
:1009A000F08D0020054346EAE0762C4337430A9851
:1009B0006305E40AA0EB08000022FD0A44EA47545C
:1009C0000A3002D500200146E9E701051019694106
:1009D000DDE9084500196941BDE8F04DA2E72DE9C0
:1009E000F04D81EA030404F0004B21F00045144669
:1009F0004FF0000A23F0004150EA050220D054EAEB
:100A000001021DD0C5F30A570246C5F31303C1F313
:100A10001300C1F30A5640F4801543F48013A7EB8A
:100A20000608101BD64608F2FD3873EB050002D30A
:100A300008F1010801E092185B41B8F1000F03DAF8
:100A400000200146BDE8F08D00204FF480110646DD
:100A500084460EE0171B73EB050705D3121B63EBEF
:100A6000050306434CEA010C49084FEA300092188E
:100A70005B4150EA0107EDD152EA030012D082EA4D
:100A8000040083EA0501084305D0101BAB4106D2E0
:100A90000122002306E000224FF0004302E06FF045
:100AA000010253101AEB06004CEB085110EB0A0040
:100AB00041EB0B01BDE8F04DFFF734BF70B521F0FD
:100AC000004303430CD0C1F30A550024D5EB0405C1
:100AD00064EB0403D617AD1AB34102DB00200146D4
:100AE00070BD201841EB025170BDC1F30A52C1F331
:100AF000130140F2FF3341F480119A4202DA0020E0
:100B00000146704740F233439A42A2F2334202DC7C
:100B10005242FFF7A2BEFFF791BE0000064C074D00
:100B200006E0E06840F0010394E8070098471034BD
:100B3000AC42F6D3FFF72CFB74AE000894AE00086D
:100B4000C0B24FF4F05100F0E9B900002DE9F34FC5
:100B50008BB04FF0000801F10C000C464FF0010B78
:100B600046460DF1080A01906269012101989047FB
:100B700005002DD0252D2CD0216A8847C0B162698F
:100B8000012101989047216A88470028F7D1411E2A
:100B900062690198904700E0761CA1690B9888472C
:100BA000216A88470028F7D1E1690B988847DBE77D
:100BB000A1690B9888470746A84201D1761CD3E764
:100BC000E1690B9888477F1C02D1B8F1000F6FD004
:100BD00046E1002762693D463946019890472A2838
:100BE00004D162690121019890470125DFF88492C0
:100BF0006269012101989047A0F130010A290AD2C7
:100C00004F45E5DC07EB870100EB4107303FDFD4C0
:100C100045F01005ECE7E90601D46FF000476C28B9
:100C20000AD04C2814D0682815D06A280DD0742812
:100C30001CD07A281AD01DE06269012101989047E2
:100C40006C2802D045F0040514E045F002050DE0E3
:100C500045F020050AE06269012101989047682863
:100C600002D045F0080505E045F400656269012100
:100C700001989047C4E9015765283DD019DC5828F0
:100C80007AD00CDC452837D004DC252826D0412832
:100C900031D131E046282FD047282CD12CE05B28D9
:100CA00077D0612828D063287CD0642823D15AE0EB
:100CB000D0E06F2848D008DC66281DD067281BD0FC
:100CC000692821D06E2816D127E0702845D07328D6
:100CD00068D0752847D078280DD14DE0A1690B98D0
:100CE0008847054625283FF469AFE1690B98884796
:100CF0006D1C3FF46AAFB3E023466A466FF0010013
:100D00000B99AFF300809EE045F040006060A807BB
:100D100023464FF0000236D43EE0E8077FF447AFA9
:100D20002068011D21600068290501D506701BE7B8
:100D3000290701D5068017E7A90703D5F117C0E9F0
:100D4000006111E706600FE745F040006060A8070A
:100D500023464FF0080216D41EE040F60E0125EAA5
:100D60000100606016E045F040006060A80723467F
:100D70004FF00A0207D40FE045F040006060A8077A
:100D800008D5234610226FF001000B99AFF30080C5
:100D900059E007E0234610226FF001000B99FFF79E
:100DA0002FFB50E04FF000094F464B46632802D01E
:100DB0005B2806D040E0E80601D40120A0600127AE
:100DC0003AE062690121019890475E2805D14FF011
:100DD00001096269494601989047216939B90021A2
:100DE0000A46534643F82120491C0829FADBB0B3D0
:100DF000216969B9C11700EBD16253110AEB830174
:100E000022F01F02821A01200B68904003430B60FE
:100E100062690121019890475D28E8D1B9F1000F7E
:100E200009D00020514651F82020D24341F820201B
:100E3000401C0828F7DB02AB224600976FF0010048
:100E40000B99AFF3008000280CDA401C08D1BBF1ED
:100E5000000F05D04FF0FF300DB0BDE8F08FFFE779
:100E60004046F9E7E90701D108F1010806444FF0CF
:100E7000000B79E6CCCCCC0C2DE9F04D00231A46C2
:100E80001B1A8A4103DB00200146BDE8F08DC1F347
:100E90000A52C1F3130141F480154FF0000BD10742
:100EA00002D100186D41521E0027044640F2FF1186
:100EB000384601EB620A3E468046024600204FF467
:100EC0008011FFF7CAFCC2197141BB1846EB010043
:100ED000B4EB030C75EB000C04D3E41A65EB0005CE
:100EE00017460E46241908F101006D41804634284A
:100EF000E3DDF91946EB0600091BA84103D24FF0C8
:100F0000FF32134601E0002213461BEB070046EBBD
:100F10000A51BDE8F04DFFF705BD00007F2801D95B
:100F2000002208E0064A02EB5002C007127800D106
:100F3000120902F00F0201209040084070470000A3
:100F4000F0AD000870B58C1810F8015B15F00703C0
:100F500001D110F8013B2A1106D110F8012B03E052
:100F600010F8016B01F8016B5B1EF9D12B0705D45A
:100F70000023521E0DD401F8013BFAE710F8013BA3
:100F8000CB1A921C03E013F8015B01F8015B521EBF
:100F9000F9D5A142D8D3002070BD00BFFEE7000004
:100FA00010B5024800F0FFFA10BD0000BC0200209E
:100FB0007047000010B5002201B909E0012901D1F4
:100FC0000A0205E0022901D10A0201E04FF4407251
:100FD0000E4B1B6823F440730C4C236023461B68A4
:100FE0001343236023461B6823F0F8032360234642
:100FF0001B68022444EAC0042343044C23602346B4
:101000001B6843F48033236010BD0000103C024095
:101010001C48006800F40070B0B11A48006820F461
:1010200000701849086000BF0846006840F400607E
:1010300008600846006820F40060086000BF0846A9
:10104000006840F4007008600E48006800F480609A
:10105000B0B10C48006820F480600A49086000BF05
:101060000846006840F4805008600846006820F494
:101070008050086000BF0846006840F48060086047
:1010800070470000003C02400A4A126822F4407295
:10109000084B1A601A46126842F004021A601A4697
:1010A00012684FF4803343EA00231A43014B1A605D
:1010B00070470000103C0240074A126822F4407258
:1010C000054B1A601A4612681A601A46126842F0F6
:1010D00001021A6001707047103C024010B50949C6
:1010E000096821F44071074C21602146096841F4E8
:1010F000407121602146096841F0010121600260D0
:10110000436010BD103C0240084A126822F440724D
:10111000064B1A601A46126842F480721A601A4628
:10112000126842F001021A6001807047103C0240D0
:10113000084A126822F44072064B1A601A46126876
:1011400042F400721A601A46126842F001021A60F4
:1011500001607047103C02402348006800F0100016
:1011600040B12248C06940F010002049C8611020F9
:101170001D4908601C48006800F0200040B11B4871
:10118000C06940F008001949C8612020164908606C
:101190001548006800F0400040B11448C06940F0B4
:1011A00004001249C86140200F4908600E480068D9
:1011B00000F0800040B10D48C06940F002000B49CA
:1011C000C8618020084908600748006800F00200F4
:1011D00040B10648C06940F020000449C8610220BF
:1011E00001490860704700000C3C0240C4DC00204C
:1011F00070B50446002500201449C86100F02CFD9C
:10120000054609E0601C38B124B100F025FD401B03
:10121000A04201D9032070BD0D48006800F4803061
:101220000028EFD10A48006800F0010010B1012049
:10123000074908600648006800F0F20018B1FFF79F
:101240008BFF0120E7E70020E5E70000C4DC002079
:101250000C3C0240014600202C4A914203D2B1F1DD
:10126000006F00D350E02A4A914204D2274A9142AB
:1012700001D3012048E0274A914204D2244A9142F6
:1012800001D3022040E0244A914204D2214A9142F3
:1012900001D3032038E0214A914204D21E4A9142F0
:1012A00001D3042030E01E4A914204D21B4A9142ED
:1012B00001D3052028E01B4A914204D2184A9142EA
:1012C00001D3062020E0184A914204D2154A9142E7
:1012D00001D3072018E0154A914204D2124A9142E4
:1012E00001D3082010E0124A914204D20F4A9142E1
:1012F00001D3092008E00F4A914204D20C4A9142DE
:1013000001D30A2000E00B207047000000400008D5
:101310000080000800C0000800000108000002086A
:1013200000000408000006080000080800000A0881
:1013300000000C0800000E08014600202C4A9142D3
:1013400004D2B1F1006F01D3500350E0294A914219
:1013500004D2274A914201D3104648E0264A9142DE
:1013600004D2244A914201D3104640E0234A9142DC
:1013700004D2214A914201D3104638E0204A9142DA
:1013800004D21E4A914201D3104630E01D4A9142D8
:1013900004D21B4A914201D3104628E01A4A9142D6
:1013A00004D2184A914201D3104620E0174A9142D4
:1013B00004D2154A914201D3104618E0144A9142D2
:1013C00004D2124A914201D3104610E0114A9142D0
:1013D00004D20F4A914201D3104608E00E4A9142CE
:1013E00004D20C4A914201D3104600E00A487047EB
:1013F000004000080080000800C00008000001084C
:1014000000000208000004080000060800000808A8
:1014100000000A0800000C0800000E08704730B5F4
:10142000044694F82000012803D094F820000228F4
:101430007DD151B92068C06800F0030090B9606A9E
:1014400040F400106062012030BD01290AD12068FB
:10145000006900F0030028B9606A40F4001060627F
:101460000120F1E7206800F5D87000EB011000685A
:1014700000F004009060906840B9206800F5D870D2
:1014800000EB01100068400D106007E0206800F5D7
:10149000D87000EB01100068C0085060206800F5AB
:1014A000D87000EB0110006800F002004008D06026
:1014B000206800F5D87000EB0110406800F00F00C4
:1014C0001061206800F5D87000EB0110406800F44E
:1014D0007F40000A9061206800F5D87000EB011091
:1014E0004068000C5061206800F5D87000EB0110D6
:1014F00080681870206800F5D87000EB01108068D3
:1015000000F47F40000A5870206800F5D87000EBA6
:101510000110806800F47F00000C9870206800F5CE
:10152000D87000EB01108068000ED87000E034E045
:10153000206800F5D87000EB0110C06818712068B1
:1015400000F5D87000EB0110C06800F47F40000A7D
:101550005871206800F5D87000EB0110C06800F4E5
:101560007F00000C9871206800F5D87000EB011026
:10157000C068000ED87131B92068C06840F0200002
:101580002568E86007E0012905D12068006940F07E
:10159000200025682861002056E7606A40F480201A
:1015A0006062012050E72DE9F05F044600252068C5
:1015B00046692068D0F80490206887682068D0F8D1
:1015C0000CA02068D0F810B02068D0F8188006F081
:1015D0000100002855D007F00100C0B101202168AA
:1015E000886007F0020018B1204600F037F90EE0DD
:1015F00007F0040010B145F4006508E007F00800AA
:1016000010B145F4805502E0204600F026F907F4B9
:101610008070C8B14FF480702168886007F4007052
:1016200018B1204600F01CF90EE007F4806010B1FC
:1016300045F4005508E007F4006010B145F480451A
:1016400002E0204600F00BF907F48030C8B14FF4F7
:1016500080302168886007F4003018B1204600F01F
:1016600001F90EE007F4802010B145F4004508E0D0
:1016700007F4002010B145F4803502E0204600F068
:10168000F0F806F0080038B10AF0100020B145F477
:10169000007510202168C86006F0040040B10AF00F
:1016A000080028B108202168C860204600F0A2F890
:1016B00006F0020038B12068C06800F0030010B1E5
:1016C000204600F099F806F0400038B10BF0100009
:1016D00020B145F4806510202168086106F02000E3
:1016E00040B10BF0080028B10820216808612046AD
:1016F00000F0B0F806F0100038B12068006900F082
:10170000030010B1204600F0A6F806F4003040B106
:1017100009F0100028B1102021684860204600F030
:101720009BF806F4803040B109F0080028B1082089
:1017300021684860204600F096F806F4004088B31F
:1017400009F0040078B306F4807020B108F00100BD
:1017500008B145F0010506F4007020B108F0020060
:1017600008B145F0020506F4806020B108F00400DD
:1017700008B145F0040506F40060A0B108F070005F
:1017800088B108F07000402817D006DC10280BD074
:1017900020280CD0302819D10CE0502810D0602817
:1017A00014D110E01DE019E045F008050FE045F008
:1017B00010050CE045F0200509E045F0400506E085
:1017C00045F0800503E045F4807500E000BF00BFF0
:1017D0002068806920F070002168886104202168F9
:1017E00048602DB1606A284360622046FFF716FE0C
:1017F000BDE8F09F7047000010B504460E49206810
:1018000088420DD10D4B0E4A00212046FFF707FEFE
:1018100000231A4619460B48006808F03DFD09E010
:1018200009492068884205D1084B094A0021204611
:10183000FFF7F5FD10BD0000006400401E00002011
:1018400084020020140000200068004026000020D0
:10185000A00200207047704770477047704770477C
:101860007047704770477047014691F8350002286D
:1018700003D08020486501207047052081F835009D
:101880000868006820F001000A6810600020F3E793
:1018900070B5044600F0E0F906462546681C10B114
:1018A00004480078054400BF00F0D6F9801BA84228
:1018B000FAD370BDC40100202DE9F04104460E4664
:1018C0000127002500BF2548007E012802D1022003
:1018D000BDE8F08101202149087600BF4CF250306C
:1018E000FFF786FC0746002F31D1401E306020688C
:1018F00001280FD1207C6168FFF7C6FB4CF2503005
:10190000FFF776FC07461648006820F004001449EB
:1019100008601AE0A56812E0217C2846FFF74AFB20
:101920004CF25030FFF764FC07460D48006820F089
:10193000FA000B4908600FB1356005E06D1CD4E971
:1019400002100844A842E7D800BFFFF761FB00BFC0
:1019500000200249087600BF3846B9E7C4DC002001
:10196000103C02400348006840F000400149086014
:1019700000207047103C02402DE9F04106460F461A
:1019800014461D464FF0010800BF1F48007E012885
:1019900002D10220BDE8F08101201B49087600BF7A
:1019A0004CF25030FFF724FC8046B8F1000F23D1F1
:1019B00026B9E1B23846FFF77FFB12E0012E04D1D1
:1019C000A1B23846FFF7A0FB0BE0022E04D121465E
:1019D0003846FFF7ADFB04E022462B463846FFF7BA
:1019E0007DFB4CF25030FFF703FC8046074800684F
:1019F00020F001000549086000BF00200249087678
:101A000000BF4046C6E70000C4DC0020103C024096
:101A100000200949096801F0004159B10749064A07
:101A20000C3A1160064911600349096801F0004150
:101A300001B1012070470000103C024023016745BE
:101A4000AB89EFCDF8B502460B46002500240020F7
:101A50000021DCE0012606FA01F51E6806EA05040D
:101A6000AC4273D15E68022E02D05E68122E13D192
:101A7000CF0802F1200656F827004E07F70E0F2672
:101A8000BE40B0434F07FF0E1E69BE403043CF0833
:101A900002F1200646F8270010684F000326BE40DA
:101AA000B0431E7906F003064F00BE40304310607D
:101AB0005E68012E08D05E68022E05D05E68112E89
:101AC00002D05E68122E13D190684F000326BE40EC
:101AD000B0434F00DE68BE4030439060506801263E
:101AE0008E40B0431E79C6F300168E4030435060DE
:101AF000D0684F000326BE40B0434F009E68BE40F2
:101B00003043D0605E6806F08056B6F1805F7DD1CC
:101B100000BF00260096404E366846F480463E4F91
:101B20003E603E46366806F48046009600BF00BF21
:101B30003A4E8F0856F827008E07370F0F26BE4003
:101B4000B043374EB24202D1002624E05EE0354E6B
:101B5000B24201D101261EE0334EB24201D102262B
:101B600019E0324EB24201D1032614E0304EB242A7
:101B700001D104260FE02F4EB24201D105260AE022
:101B80002D4EB24201D1062605E02C4EB24201D1C3
:101B9000072600E008268F073F0FBE4030431F4E48
:101BA0008F0846F82700264E3068A0435E6806F48A
:101BB0008036B6F5803F00D12043214E3060361D7F
:101BC0003068A0435E6806F40036B6F5003F00D1E9
:101BD00020431B4E361D3060361D3068A0435E68C2
:101BE00006F48016B6F5801F00D12043144E083647
:101BF0003060361D3068A0435E6806F40016B6F506
:101C0000001F00D120430E4E0C363060491C1029B5
:101C1000FFF420AFF8BD000044380240083801400E
:101C2000000002400004024000080240000C024094
:101C3000001002400014024000180240001C024044
:101C4000003C014042694A40426170470AB18161EB
:101C500001E00B0483617047014800687047000091
:101C6000BC01002003480068034909780844014981
:101C700008607047BC010020C401002010B50D4869
:101C8000006840F400700B4908600846006840F4A2
:101C9000806008600846006840F480700860032097
:101CA00000F0EAF8002000F007F800F04BF8002000
:101CB00010BD0000003C024070B588B0044600250D
:101CC000002600222146322000F097F8322000F052
:101CD00087F800BF002001901648006840F0080017
:101CE000144908600846006800F00800019000BF31
:101CF00000BF02A903A800F0B5F900F0DBF9450028
:101D00000D48B5FBF0F0461E0C480D49086040F246
:101D1000E7310B48C160466000210161816000F03D
:101D200095FC20B9064800F0DDFC08B070BD01202C
:101D3000FBE700004038024040420F00000C00402A
:101D4000240F002008B500BF002000902348006841
:101D500040F48040214908600846006800F4804053
:101D6000009000BF00BF00BF00200090081F006867
:101D700040F08050091F08600846006800F080505D
:101D8000009000BF00BF032000F076F8002211464B
:101D90006FF00B0000F031F8002211466FF00A00DE
:101DA00000F02BF8002211466FF0090000F025F832
:101DB00000221146501F00F020F800221146101F8B
:101DC00000F01BF800220F21901E00F016F80022F0
:101DD0000F21501E00F011F808BD000044380240E9
:101DE00000BF00F01F02012191404209920002F160
:101DF000E022C2F8001100BF70472DE9F05F804675
:101E00000D461646002701F0CBFF074639462A4605
:101E1000334601F00700C0F1070ABAF1040F02D9F6
:101E20004FF0040A01E0C0F1070AD14600F1040AAC
:101E3000BAF1070F02D24FF0000A01E0A0F1030A45
:101E4000D4464FF0010A0AFA09FAAAF1010A0AEA8D
:101E5000020A0AFA0CFA4FF0010B0BFA0CFBABF179
:101E6000010B0BEA030B4AEA0B042146404601F042
:101E70009FFFBDE8F09F000000BF00F00702064B87
:101E800019684FF6FF031940044B0B4343EA022144
:101E9000014B196000BF70470CED00E00000FA052F
:101EA00000BF00BF00BF00BF00BFBFF34F8F00BF28
:101EB00000BF00BF0948006800F4E060084908431B
:101EC000001D0649086000BF00BF00BFBFF34F8F71
:101ED00000BF00BF00BF00BF00BFFDE70CED00E08A
:101EE0000000FA0570B504460D460CB9012070BD1E
:101EF0005848006800F00F00A84209D255490D70FB
:101F00000846006800F00F00A84201D00120EEE76B
:101F1000207800F0020002281DD1207800F0040093
:101F2000042805D14C48006840F4E0504A49086054
:101F3000207800F00800082805D14748006840F4E0
:101F40006040454908604448006820F0F000A168FE
:101F5000084341490860207800F00100A8B3606898
:101F6000012807D13C4808380068C0F34040B8B9A0
:101F70000120BCE76068022802D06068032807D10E
:101F8000354808380068C0F3406048B90120AEE722
:101F9000314808380068C0F3400008B90120A6E7BE
:101FA0002D48006820F00300616808432A49086052
:101FB000FFF752FE064609E0FFF74EFE801B41F296
:101FC0008831884202D9032091E707E0224800685F
:101FD00000F00C006168B0EB810FEDD11D48006886
:101FE00000F00F00A84209D91A490D700846006890
:101FF00000F00F00A84201D0012078E7207800F01F
:102000000400042807D11448006820F4E050E16877
:10201000084311490860207800F00800082808D11A
:102020000D48006820F46040216940EAC1000A4977
:10203000086000F05FF808490968C1F30311074A16
:10204000515CC840064908600020FFF735FE0020BB
:102050004DE70000003C02400838024045AD000852
:10206000C80100200F2202600D4A126802F003022C
:1020700042600B4A126802F0F0028260084A12685D
:1020800002F4E052C260064A126802F46042D208CA
:102090000261044A126802F00F020A6070470000F1
:1020A00008380240003C02400148006870470000C8
:1020B000C801002000B5FFF7F7FF04490968C1F324
:1020C0008221034A515CC84000BD0000083802402C
:1020D00055AD000800B5FFF7E7FF04490968C1F3F3
:1020E0004231034A515CC84000BD0000083802403C
:1020F00055AD00082DE9F047002400250026A14633
:102100002548006800F00C0020B1042805D00828FC
:102110003AD105E0DFF8849039E0DFF8849036E0CA
:102120001D48001F006800F03F041B48001F0068A6
:1021300000F4800078B11A481749091F0968C1F3F3
:102140008811A0FB01700146224600233846FEF7A5
:1021500095F805460EE011480F49091F0968C1F3BB
:102160008811A0FB01700146224600233846FEF785
:1021700085F805460848001F0068C0F30140401C70
:102180004600B5FBF6F902E0DFF8109000BF00BF93
:102190004846BDE8F0870000083802400024F400FB
:1021A00000127A00F8B504460CB90120F8BD207879
:1021B00000F00100002874D0F948006800F00C001D
:1021C00004280DD0F648006800F00C00082813D150
:1021D000F348001F006800F48000B0F5800F0BD1B9
:1021E000EF4808380068C0F34040002859D06068C4
:1021F000002856D10120D9E700BF6068B0F5803FC4
:1022000008D1E7480838006840F48030E4490839CC
:1022100008601EE06068B0F5A02F0DD1E0480838D6
:10222000006840F48020DE490839086008460068EC
:1022300040F4803008600CE0D9480838006820F489
:102240008030D749083908600846006820F48020AB
:10225000086000BF606890B1FFF7FEFC054606E02D
:10226000FFF7FAFC401B642801D903209EE7CC4805
:1022700008380068C0F340400028F1D011E0FFF7B3
:10228000EBFC054606E0FFF7E7FC401B642801D99C
:1022900003208BE7C24808380068C0F3404000289C
:1022A000F1D1207800F0020002285FD1BC4800681C
:1022B00000F00C0058B1BA48006800F00C00082883
:1022C0001CD1B748001F006800F48000B0B9B448C2
:1022D00008380068C0F3400020B1E068012801D050
:1022E000012063E7AE480838006820F0F800216953
:1022F00040EAC100AA490839086037E0E06800B345
:102300000120A8490860FFF7A7FC054606E0FFF793
:10231000A3FC401B022801D9032047E7A048083846
:102320000068C0F340000028F1D09D4808380068DC
:1023300020F0F800216940EAC10099490839086095
:1023400014E0002097490860FFF786FC054606E088
:10235000FFF782FC401B022801D9032026E79048A2
:1023600008380068C0F340000028F1D1207800F060
:10237000080008282CD16069A8B101208A490860AA
:10238000FFF76AFC054606E0FFF766FC401B0228E3
:1023900001D903200AE782486C300068C0F340008E
:1023A0000028F1D014E000207F490860FFF754FCBA
:1023B000054606E0FFF750FC401B022801D9032028
:1023C000F4E677486C300068C0F340000028F1D193
:1023D000207800F00400042870D1002670483830BE
:1023E000006800F0805090B900BF002000906C4859
:1023F0003830006840F0805069493831086008463C
:10240000006800F08050009000BF00BF01266748C0
:10241000006800F48070B0B96448006840F48070CF
:1024200062490860FFF718FC054606E0FFF714FC58
:10243000401B022801D90320B8E65C48006800F47C
:1024400080700028F2D000BFA068012808D154484D
:102450006830006840F001005149683108601DE0B3
:10246000A06805280DD14E486830006840F004008F
:102470004B49683108600846006840F00100086078
:102480000CE047486830006820F00100444968319A
:1024900008600846006820F00400086000BFA068DB
:1024A000A8B1FFF7D9FB054609E0FFF7D5FB401BB4
:1024B00041F28831884202D9032077E626E0384885
:1024C00068300068C0F340000028EED013E0FFF74A
:1024D000C3FB054608E0FFF7BFFB401B41F2883114
:1024E000884201D9032061E62D4868300068C0F3B6
:1024F00040000028EFD1012E07D12948383000686C
:1025000020F0805026493831086000BFA069B8B378
:102510002348006800F00C0008285ED0A06902285B
:1025200046D100201F490866FFF796FB054606E0E6
:10253000FFF792FB401B022801D9032036E618481A
:1025400008380068C0F340600028F1D1D4E90701E1
:102550000843616A40EA81110122A06AC2EB50007F
:1025600041EA00412C20005D41EA00600C49091F4E
:10257000086001200B490866FFF76EFB054607E07F
:102580002DE0FFF769FB401B022801D903200DE66F
:10259000034808380068C0F340600028F1D01EE00E
:1025A0000838024000004742800E47420070004059
:1025B00000200C490866FFF74FFB054606E0FFF7D1
:1025C0004BFB401B022801D90320EFE506480068B9
:1025D000C0F340600028F2D101E00120E6E50020D0
:1025E000E4E500000000474200380240042808D11A
:1025F0004FF0E021096941F004014FF0E022116140
:1026000007E04FF0E021096921F004014FF0E022DA
:102610001161704770B504462546681EB0F1807F91
:1026200001D301200FE0681E4FF0E02148610F2127
:102630004FF0FF3001F0BCFB00204FF0E02188613B
:1026400007200861002070BD7047704710B5044630
:102650000CB9012010BD94F8390028B9002084F885
:102660003800204600F00CF8022084F83900211DC3
:10267000206801F083FD012084F839000020E9E79B
:1026800008B5154A016891420FD100BF00210091A1
:102690001249096841F00101104A116011460968A8
:1026A00001F00101009100BF15E00D4A016891425F
:1026B00011D100BF002100910849091F096841F0AC
:1026C0000201064A121F11601146096801F0020159
:1026D000009100BF00BF08BD000001404438024027
:1026E0000004004001460868C06840F001000A6824
:1026F000D0600868006840F001000A68106000209F
:102700007047704710B5044620680069C0F3400068
:10271000D8B12068C068C0F34000B0B16FF00200CB
:1027200021680861012020762068806900F003009C
:1027300018B12046FFF7E5FF05E0204600F0ADF8B0
:10274000204600F0ABF80020207620680069C0F336
:102750008000D8B12068C068C0F38000B0B16FF0CD
:10276000040021680861022020762068806900F456
:10277000407018B12046FFF7C4FF05E0204600F086
:102780008CF8204600F08AF8002020762068006946
:10279000C0F3C000D8B12068C068C0F3C000B0B1B9
:1027A0006FF0080021680861042020762068C06965
:1027B00000F0030018B12046FFF7A3FF05E0204614
:1027C00000F06BF8204600F069F8002020762068C1
:1027D0000069C0F30010D8B12068C068C0F30010D1
:1027E000B0B16FF0100021680861082020762068E1
:1027F000C06900F4407018B12046FFF782FF05E081
:10280000204600F04AF8204600F048F800202076E4
:102810002068006900F0010058B12068C06800F02D
:10282000010030B16FF0010021680861204600F01E
:1028300037F820680069C0F3C01058B12068C0683C
:10284000C0F3C01030B16FF08000216808612046ED
:10285000FFF7FAFE20680069C0F3801058B12068C5
:10286000C068C0F3801030B16FF04000216808618B
:10287000204600F021F820680069C0F3401058B1EC
:102880002068C068C0F3401030B16FF020002168AC
:1028900008612046FFF7D9FE10BD70477047000061
:1028A00010B5044603492068884201D1FFF7DAF9E0
:1028B00010BD0000000C0040704770472DE9F04744
:1028C0000446206805682068C668206847694FF09C
:1028D0000008C14605F00F08B8F1000F0AD105F055
:1028E000200038B106F0200020B1204601F0E2FCC3
:1028F000BDE8F087B8F1000F6DD007F0010018B9FE
:1029000006F49070002866D005F0010030B106F49E
:10291000807018B1E06B40F00100E06305F0040046
:1029200030B107F0010018B1E06B40F00200E06345
:1029300005F0020030B107F0010018B1E06B40F083
:102940000400E06305F0080030B107F0010018B1A1
:10295000E06B40F00800E063E06B68B305F0200036
:1029600028B106F0200010B1204601F0A3FC206839
:102970004069C0F38019E06B00F0080010B9B9F1AC
:10298000000F22D0204601F075FC2068406900F05D
:102990004000B0B12068406920F0400021684861E3
:1029A000606B50B11748616B0865606BFEF75CFFA8
:1029B00010B1606B016D88470CE02046FFF77DFF8A
:1029C00008E02046FFF779FF04E02046FFF775FF97
:1029D0000020E0638CE705F0800030B106F0800055
:1029E00018B1204601F068FE82E705F0400030B1E2
:1029F00006F0400018B1204601F04CFC78E700BF1B
:102A000076E700006142000810B504460CB90120C9
:102A100010BDA06900B100E000BF94F8390028B9EA
:102A2000002084F83800204600F028F8242084F89C
:102A300039002068C06820F400502168C860204632
:102A400001F086FC2068006920F49040216808614C
:102A50002068406920F02A00216848612068C06829
:102A600040F400502168C8600020E063202084F812
:102A7000390084F83A000020CAE7000010B586B09B
:102A800004464C492068884227D100BF00200090AE
:102A90004948006840F0100047490860084600684F
:102AA00000F01000009000BF00BF4FF4C060019024
:102AB000022002900120039003200490072005903B
:102AC00001A93E48FEF7BEFF002208212520FFF79E
:102AD00094F92520FFF784F969E039492068884294
:102AE00038D100BF002000903348001F006840F438
:102AF00000303149091F08600846006800F40030C2
:102B0000009000BF00BF0C20019002200290012025
:102B10000390032004900720059001A92748FEF7A1
:102B200091FF002206212620FFF767F92620FFF7F4
:102B300057F924480068C06840F02000214909681E
:102B4000C86020480068C06840F010001D4909684E
:102B5000C8602CE01C492068884228D100BF0020B2
:102B600000901548001F006840F480201249091F9A
:102B700008600846006800F48020009000BF00BF95
:102B80004FF4406001900220029001200390032046
:102B900004900720059001A90C48FEF753FF00227E
:102BA00005212720FFF729F92720FFF719F906B09B
:102BB00010BD0000001001404438024000000240F7
:102BC00000440040E00400200048004000040240AF
:102BD00070472DE9F84304460D4616461F464FF050
:102BE000000994F8390020285CD105B116B90120FC
:102BF000BDE8F88300BF94F83800012801D1022015
:102C0000F6E7012084F8380000BF0020E0632120AF
:102C100084F83900FFF720F88146A684E6842BE08B
:102C2000E08C401EE084A068B0F5805F16D14B4672
:102C3000002280212046009701F072FD08B1032098
:102C4000D6E7A846B8F80000C0F30800216848603D
:102C5000206908B9AD1C0FE06D1C0DE04B46002249
:102C600080212046009701F05BFD08B10320BFE7FB
:102C700015F8010B21684860E08C0028D0D14B4644
:102C8000002240212046009701F04AFD08B10320B0
:102C9000AEE7202084F8390000BF002084F8380017
:102CA00000BFA5E70220A3E7704700BFFEE7F0B52D
:102CB00004460023002000BF17E0E55CEE1705EB9B
:102CC0001676361130360746401CCE55E55CEE17B9
:102CD00005EB16763611A5EB0616303606F0FF0C1E
:102CE0000646401C01F806C05B1C9342E5DB002051
:102CF0001DE00D5C3A3D062D16D2DFE805F0030617
:102D0000090C0F1261250D540FE062250D540CE0E3
:102D100063250D5409E064250D5406E065250D5426
:102D200003E066250D5400E000BF00BF401C5500C5
:102D30008542DEDC002501F81250F0BD44E0234856
:102D4000006800283DD000212048006806F0F0FF10
:102D5000044604F0010028B1002210211C48FEF7AF
:102D600075FF04E0012210211948FEF76FFF04F0FF
:102D7000020040B120211648FEF764FF4FF47A703C
:102D8000FEF786FD04E0012220211148FEF75EFFD8
:102D900004F0080050B1012204210D48FEF756FF4F
:102DA000002202210B48FEF751FF09E00022042116
:102DB0000748FEF74BFF012202210648FEF746FFB7
:102DC0000024322006F0C2FDB9E70000880100208F
:102DD000000802400004024010B504460A480B49AE
:102DE00008600846446000218160C16001610C21D7
:102DF000416100218161C161FFF706FE18B1222106
:102E000003A001F085FD10BD00100140A0040020CA
:102E10002E2E2F5372632F75736172742E63000010
:102E200070B503460024002010E00E5C451C4D5D8B
:102E300046EA0526851C4D5D46EA0546C51C4D5DE6
:102E400046EA056543F82450641C001D9042ECD30B
:102E500070BD70B5034614460022002015E011F83D
:102E600022501D5431F82250C5F30726451C5E55EB
:102E700051F82250C5F30746851C5E5551F8225083
:102E80002D0EC61C9D55521C001DA042E7D370BDDF
:102E90002DE9FC4104460E46002500272088C0F39A
:102EA000C505382D02D2C5F1380001E0C5F1780022
:102EB0000746082221466846FFF7CBFF3A460849F5
:102EC000204600F00BFC08226946204600F006FC74
:102ED000102204F108013046FFF7BBFFBDE8FC817A
:102EE0003A01002000210160416005498160054AE6
:102EF000C260CA430261034AD24342617047000084
:102F00000123456789ABCDEF2DE9F043C0B0804682
:102F10008946D8F80040D8F80450D8F80860D8F8A6
:102F20000C70402249466846FFF77AFF05EA060022
:102F300027EA0501084300990844FE49084404446F
:102F4000E00140EA54642C4404EA050026EA040146
:102F5000084301990844F84908440744380340EA03
:102F60001757274407EA040025EA07010843029996
:102F70000844F24908440644700440EAD6363E4408
:102F800006EA070024EA0601084303990844EC49CD
:102F900008440544A80540EA9525354405EA06009D
:102FA00027EA0501084304990844E6490844044413
:102FB000E00140EA54642C4404EA050026EA0401D6
:102FC000084305990844E04908440744380340EAA7
:102FD0001757274407EA040025EA07010843069922
:102FE0000844DA4908440644700440EAD6363E44B0
:102FF00006EA070024EA0601084307990844D44971
:1030000008440544A80540EA9525354405EA06002C
:1030100027EA0501084308990844CE4908440444B6
:10302000E00140EA54642C4404EA050026EA040165
:10303000084309990844C84908440744380340EA4A
:103040001757274407EA040025EA070108430A99AD
:103050000844A0F524404F380644700440EAD636B0
:103060003E4406EA070024EA060108430B99084497
:10307000BA4908440544A80540EA9525354405EABF
:10308000060027EA050108430C990844B44908449E
:103090000444E00140EA54642C4404EA050026EAB2
:1030A000040108430D990844AE4908440744380315
:1030B00040EA1757274407EA040025EA07010843B6
:1030C0000E990844A84908440644700440EAD636DC
:1030D0003E4406EA070024EA060108430F99084423
:1030E000A24908440544A80540EA9525354405EA67
:1030F000070026EA07010843019908449C4908444F
:103100000444600140EAD4642C4404EA060025EA41
:103110000601084306990844964908440744780282
:1031200040EAD757274407EA050024EA0501084387
:103130000B990844904908440644B00340EA964677
:103140003E4406EA040027EA0401084300990844C3
:103150008A4908440544280540EA1535354405EAFE
:10316000070026EA070108430599084484490844F2
:103170000444600140EAD4642C4404EA060025EAD1
:10318000060108430A9908447E4908440744780226
:1031900040EAD757274407EA050024EA0501084317
:1031A0000F990844784908440644B00340EA96461B
:1031B0003E4406EA040027EA04010843049908444F
:1031C000724908440544280540EA1535354405EAA6
:1031D000070026EA07010843099908446C49084496
:1031E0000444600140EAD4642C4404EA060025EA61
:1031F000060108430E9908446649084407447802CA
:1032000040EAD757274407EA050024EA05010843A6
:1032100003990844604908440644B00340EA9646CE
:103220003E4406EA040027EA0401084308990844DA
:103230005A4908440544280540EA1535354405EA4D
:10324000070026EA070108430D9908445449084439
:103250000444600140EAD4642C4404EA060025EAF0
:1032600006010843029908444E490844074478027D
:1032700040EAD757274407EA050024EA0501084336
:1032800007990844484908440644B00340EA964672
:103290003E4406EA040027EA040108430C99084466
:1032A000424908440544280540EA1535354485EA75
:1032B00006007840059908443D490844044420012B
:1032C00040EA14742C4484EA0500704008990844CC
:1032D000384908440744F80240EA5757274487EA28
:1032E000040068400B9908443349084406443004FC
:1032F00040EA16463E4486EA070060400E990844BC
:103300002E4908440544E80540EA5525354485EA38
:1033100006007840019908442949084404442001E2
:1033200040EA14742C4484EA05007040049908446F
:10333000244949E078A46AD756B7C7E8DB7020244F
:10334000EECEBDC1AF0F7CF52AC68747134630A825
:10335000019546FDD8988069AFF7448BBED75C894C
:103360002211906B937198FD8E4379A62108B44980
:1033700062251EF640B340C0515A5E26AAC7B6E980
:103380005D102FD65314440281E6A1D8C8FBD3E7C1
:10339000E6CDE121D60737C3870DD5F4ED145A45A4
:1033A00005E9E3A9F8A3EFFCD9026F678A4C2A8DDF
:1033B0004239FAFF81F6718722619D6D0C38E5FD77
:1033C00044EABEA4A9CFDE4B08440744F80240EA11
:1033D0005757274487EA0400684007990844A549DD
:1033E00008440644300440EA16463E4486EA070094
:1033F00060400A990844A04908440544E80540EAA9
:103400005525354485EA060078400D9908449B49C6
:1034100008440444200140EA14742C4484EA050062
:10342000704000990844964908440744F80240EA6D
:103430005757274487EA0400684003990844914994
:1034400008440644300440EA16463E4486EA070033
:103450006040069908448C4908440544E80540EA60
:103460005525354485EA060078400999084487497E
:1034700008440444200140EA14742C4484EA050002
:1034800070400C990844824908440744F80240EA15
:103490005757274487EA040068400F9908447D493C
:1034A00008440644300440EA16463E4486EA0700D3
:1034B000604002990844784908440544E80540EA18
:1034C0005525354465EA0700704000990844734962
:1034D00008440444A00140EA94642C4464EA0600D1
:1034E0006840079908446E4908440744B80240EA16
:1034F0009757274467EA050060400E9908446949D8
:1035000008440644F00340EA56463E4466EA040096
:10351000784005990844644908440544680540EA30
:10352000D525354465EA070070400C9908445F4989
:1035300008440444A00140EA94642C4464EA060070
:103540006840039908445A4908440744B80240EACD
:103550009757274467EA050060400A99084455498F
:1035600008440644F00340EA56463E4466EA040036
:10357000784001990844504908440544680540EAE8
:10358000D525354465EA07007040089908444B4941
:1035900008440444A00140EA94642C4464EA060010
:1035A00068400F990844464908440744B80240EA75
:1035B0009757274467EA0500604006990844414947
:1035C00008440644F00340EA56463E4466EA0400D6
:1035D00078400D9908443C4908440544680540EA90
:1035E000D525354465EA07007040049908443749F9
:1035F00008440444A00140EA94642C4464EA0600B0
:1036000068400B990844324908440744B80240EA2C
:103610009757274467EA05006040029908442D49FE
:1036200008440644F00340EA56463E4466EA040075
:10363000784009990844284908440544680540EA47
:10364000D5253544D8F800002044C8F80000D8F843
:1036500004002844C8F80400D8F808003044C8F82A
:103660000800D8F80C003844C8F80C0040B0BDE899
:10367000F0830000604BBBF670BCBFBEC67E9B28CB
:10368000FA27A1EA8530EFD4051D880439D0D4D9B2
:10369000E599DBE6F87CA21F6556ACC4442229F408
:1036A00097FF2A43A72394AB39A093FCC3595B65CA
:1036B00092CC0C8F7DF4EFFFD15D84854F7EA86F97
:1036C000E0E62CFE144301A3A111084E827E53F7BD
:1036D00035F23ABDBBD2D72A91D386EB2DE9F0471C
:1036E00004460F4615460026B046B1462088C0F372
:1036F000C508C8F14009206800EBC50020602068BB
:10370000B0EBC50F02D26068401C6060606800EBDF
:10371000557060604D451CD304F1180101EB0800A1
:103720004A463946FCF7E1FD04F1180104F10800AE
:10373000FFF7EAFB4E4605E0B91904F10800FFF770
:10374000E3FB403606F14000A842F5D94FF00008EF
:1037500000E00026AA1BB91904F1180303EB0800C6
:10376000FCF7C3FDBDE8F08708B500BF002000905E
:103770001548006840F0800013490860084600685A
:1037800000F08000009000BF00BF00BF002000904C
:103790000846006840F0010008600846006800F034
:1037A0000100009000BF00BF00BF0020009008464D
:1037B000006840F0020008600846006800F002005F
:1037C000009000BF00BF08BD3038024010B504466D
:1037D0000A480B4908600846446000218160C160C6
:1037E00001610C21416100218161C161FFF70CF988
:1037F00018B1342103A001F08BF810BD0044004043
:10380000E00400202E2E2F5372632F7573617274A3
:103810002E63000000BFFEE77CB505461748006830
:1038200000281FD0002301AA29461448006806F08A
:1038300007FE0446012C09D000BF212010A3174A1F
:1038400017A1009018A001F065F800BF019838B1E9
:103850004FF0805020490860BFF34F8FBFF36F8F48
:1038600001207CBD00BF282005A30C4A0CA10090BC
:103870001AA001F04FF800BF0020F2E7300000204E
:103880002E2E5C5372635C6D6573736167655C6D4E
:103890006573736167652E6300000000C1AB0008AB
:1038A0004552524F520000005B2573207C20257347
:1038B000204025732C25645D207573617274206926
:1038C00064656C206164642071756575652066614E
:1038D000696C65640D0A000004ED00E05B2573204F
:1038E0007C202573204025732C25645D2074686935
:1038F000732069732077726F6E67202E0D0A0000A7
:1039000040F6C41004F066FC06463C2004F062FC5D
:1039100004460025E5E040F6C4113046FCF7FEFC05
:1039200000235A1E31466F48006806F087FB304678
:10393000FCF71DFD05466CA13046FCF706FD18B1ED
:10394000304604F06DFE002568A13046FCF7FDFC12
:1039500068B1304604F078FF012066490870002500
:1039600000231A4619466448006806F095FC614831
:103970000078012809D145B160A13046FCF7E5FC8B
:1039800018B1304604F0DAFD00255EA13046FCF7A0
:10399000DCFC80B15D4900231A46D1F8EC002146D9
:1039A00006F04CFB594900231A46D1F8DC001946B1
:1039B00006F072FC002555480078012822D15348B2
:1039C0004078F8B9514901230022D1F8EC00214692
:1039D00006F034FB012814D121463046FCF7B5FC33
:1039E00078B14A4900231A46D1F8EC00214606F086
:1039F00025FB464900231A46D1F8DC00194606F09B
:103A00004BFC00254148407801282BD13F49012338
:103A10000022D1F8EC00214606F010FB012820D14D
:103A200021463046FCF791FCD8B1384900231A46AC
:103A3000D1F8EC00214606F001FB3448D0F8EC0048
:103A400038B1324902230022D1F8E800314606F0AD
:103A500023FC2E4900231A46D1F8E000194606F04F
:103A60001BFC002529488078012816D128A1304662
:103A7000FCF76BFC80B12848006868B100231A4647
:103A800019462548006806F007FC244900231A4619
:103A90008868194606F000FC00251C4800790128BA
:103AA00012D11F48006870B11EA13046FCF74DFCD2
:103AB00048B11B48006830B100231A46194618481F
:103AC000006806F0E9FB002519A13046FCF73DFC33
:103AD00038B1124900231A468868194606F0DCFB03
:103AE000002518E7300000206D643500636F6E66B6
:103AF000696700003C000020B4010020544350528C
:103B0000454356005042524541445900440000206C
:103B1000434F4E4E4543540040000020E402002035
:103B2000B00100207265677265706F6B0000000065
:103B30004F4B0000F8B506460C46C82004F04AFB7F
:103B40000746C8213846FCF7E9FB44B918A13846B6
:103B5000FCF722FC31463846FCF7EBFB05E0012C74
:103B600003D131463846FCF717FC12480068C8B14B
:103B700000235A1E39460F48006806F08DFB0546A3
:103B8000012D0FD0384605F0E1FD00BF42200AA309
:103B9000104A11A1009012A000F0BCFE00BF4FF02F
:103BA000FF30F8BD384605F0D1FD0120F9E70000EF
:103BB00041542D00340000202E2E5C5372635C6D46
:103BC0006573736167655C6D6573736167652E63AB
:103BD00000000000D7AB00084552524F52000000D1
:103BE0005B2573207C202573204025732C25645D84
:103BF000204D657373616765206661696C65640D4E
:103C00000A0000001CB5C82004F0E4FA04460025B0
:103C100054E0C8212046FCF781FB00235A1E2146B0
:103C20002748006806F00AFA26A12046FCF78DFB1B
:103C300090B124A12046FCF788FB0746FF1C2248D0
:103C4000076001460868FCF792FB1F498880084618
:103C5000C168002088470BE01B48046001460868E3
:103C6000FCF785FB184988800846C1680120884711
:103C7000002600251FE0681CC5B213488068B8B153
:103C8000114900234FF47A728868194606F0D6F974
:103C90000646012E00D10FE000BF4FF4BE700BA30B
:103CA000114A12A1CDE9000512A000F033FE00BFB9
:103CB000032D00DB00E0DEE700BF00BFA9E7000046
:103CC0003400002041542D00E40200202E2E5C53CD
:103CD00072635C6D6573736167655C6D6573736159
:103CE00067652E630000000022AC00084445425581
:103CF000470000005B2573207C202573204025733E
:103D00002C25645D204F4B42696E61727953656D5D
:103D10006170686F7265203A25640D0A000000002A
:103D200010B503220021012006F05CF91449086057
:103D300003220021012006F055F9124908600322F0
:103D40000021012006F04EF90F490860002240F6DC
:103D5000C411042006F046F90C4908600022C8216D
:103D6000082006F03FF90A490860032200210120DB
:103D700006F038F9074988600748C86010BD0000A0
:103D8000B801002038000020B401002030000020DD
:103D900034000020E4020020816100087047000028
:103DA00002480068C0F30220704700000CED00E0FC
:103DB00010B5002807DA0A07140E054A00F00F03B1
:103DC0001B1FD45403E00A07130E024A135410BDFC
:103DD00018ED00E000E400E030B503460C4615465F
:103DE000002205E0184600F006F8A0545B1C521CA7
:103DF000AA42F7D330BD01460878704701460868EB
:103E0000704700002DE9F04786B004460E4617467D
:103E100005F054FC00200090254680468246B4F10F
:103E2000006F02D304F0030010B106B0BDE8F087C4
:103E3000FDF7EEFDF320204908602046FDF77CFAEF
:103E4000824604EB07081D4885421ED21AE0284628
:103E5000FFF7D4FF401CA0B12846FDF7FBF98146CF
:103E600000200190CDF80C900220059001200490D4
:103E7000694601A8FDF720FD20B111A000F04AFD20
:103E800002E02D1D4545E2D300BF0BE096F800C0CF
:103E90006246002321461846FDF76EFD00B103E09F
:103EA000761C641C4445F1D300BFFDF75BFD05F0B3
:103EB0002FFC00BFB9E700000C3C02400000FF1FD0
:103EC00065726173652064617461206661696C6507
:103ED00064202E0D0A0000007CB5054605F0EEFBBF
:103EE000FFF71EFF2BA12DA002F0E0FE2F49D1F815
:103EF000D000804705F04AFF2D4908602B48D0F8D4
:103F0000C800012300224FF4FA61009029A006F0B6
:103F1000CDFD2C4908602C48072100234FF4007286
:103F2000CDE9001029A12E4806F04CFB2D480521B3
:103F300000234FF40072CDE900102BA12E4806F0AB
:103F400041FB2E48042100238A01CDE900101FA166
:103F50002B4806F037FB2B48082100234A01CDE906
:103F6000001029A12B4806F02DFB06F06BFB044640
:103F70004FF0FF30002322460121009011480068D5
:103F800006F0D6FD2448006805F00EFD05F0C0FBE4
:103F90007CBD0000393039300000000034372E314C
:103FA00031312E392E32303900000000440000201B
:103FB000880100204F6E6553686F7454696D657297
:103FC00000000000980100208C0100204D657373F3
:103FD000616765526563656976655461736B00005E
:103FE00001390008900100204D65737361676553C6
:103FF000656E645461736B00053C0008800100200D
:104000003D2D00088401002055706772616465547D
:1040100061736B002D4800087C01002010B502F090
:10402000BFFF10BD10B592B000BF00200090304817
:10403000006840F080502E4908600846006800F093
:104040008050009000BF00BF00BF002000902948B2
:10405000006840F48040274908600846006800F482
:104060008040009000BF00BF092006904FF48030D0
:10407000079001200B9002200C9041050D91042126
:104080000E91A8210F91022110910721119106A8EC
:10409000FEF788F818B1212117A000F039FC0F2095
:1040A000019002200290002003904FF4A050049051
:1040B0004FF480500590052101A8FDF713FF18B1BA
:1040C0002F210DA000F024FCFDF7EEFF4FF47A71D4
:1040D000B0FBF1F42046FEF79DFA0420FEF786FAC5
:1040E00000220F21501EFDF788FE12B010BD000007
:1040F00040380240007000402E2E5C5372635C73A7
:1041000079732E63000000001448006840F47000CA
:10411000124908601248006840F001001049086028
:1041200000200F49083108600D4800680D4908401B
:104130000B4908600C48091D0860081F006820F43E
:104140008020091F0860002005490C3108604FF0ED
:1041500000600249803908607047000088ED00E087
:1041600000380240FFFFF6FE1030002410B5024870
:10417000FEF7C8FA10BD0000240F002000220268DC
:104180002C4B98420ED0B0F1804F0BD02A4B984266
:1041900008D02A4B984205D0294B984202D0294B8F
:1041A000984201D1012300E000231BB122F07002EC
:1041B0004B681A431F4B984220D0B0F1804F1DD05E
:1041C0001D4B98421AD01D4B984217D01C4B984259
:1041D00014D01C4B984211D01B4B98420ED01B4B55
:1041E00098420BD01A4B984208D01A4B984205D0EF
:1041F000194B984202D0194B984201D1012300E09B
:1042000000231BB122F44072CB681A4302608B6812
:10421000C3620B688362074B984202D0094B9842F5
:1042200001D1012300E000230BB10B6903630123DB
:104230004361704700000140000400400008004056
:10424000000C0040000401400040014000440140D7
:104250000048014000180040001C004000200040C1
:1042600070B50546AC6B0020E085E0842046FEF783
:1042700024FB70BD0168C96821F490710268D160A7
:104280000168496921F0010102685161202180F82B
:104290003A10704710B504462068C06820F040000E
:1042A0002168C860202084F839002046FEF7FCFC15
:1042B000002010BD70B5044694F83A00222844D17D
:1042C000A068B0F5805F13D1A56A206940B9206865
:1042D0004068C0F308002880A06A801CA06219E032
:1042E00020684068C0B22880A06A401CA06211E02B
:1042F000206938B920684068C1B2A26A501CA06227
:10430000117007E02068406800F07F01A26A501C2D
:10431000A0621170E08D401E80B2E08598B92068DF
:10432000C06820F490702168C8602068406920F05F
:10433000010021684861202084F83A002046FEF7F9
:1043400047FC002070BD0020FCE70220FAE70000D7
:104350002DE9F041044600252068056925F4405503
:10436000E0680543206805612068C56849F20C6073
:1043700085432169A068084361690843E1690843EE
:1043800005432068C5602068456925F44075A0692B
:10439000054320684561E069B0F5004F7ED1C4490E
:1043A0002068884203D0C349206888425DD1FDF768
:1043B00091FE00EBC00101EB001061684900B0FB09
:1043C000F1F06421B0FBF1F00601FDF783FE00EB94
:1043D000C00101EB001061684900B0FBF1F7FDF787
:1043E00079FE00EBC00101EB001061684900B0FBF1
:1043F000F1F06421B0FBF1F000EBC00101EB001023
:10440000A7EB8000322101EBC0006421B0FBF1F08A
:1044100000F0F80006EB4006FDF75CFE00EBC00183
:1044200001EB001061684900B0FBF1F7FDF752FEA7
:1044300000EBC00101EB001061684900B0FBF1F036
:104440006421B0FBF1F000EBC00101EB0010A7EB21
:104450008000322101EBC0006421B0FBF1F000F0DC
:10446000070030442168886020E1FDF723FE00EB5F
:10447000C00101EB001061684900B0FBF1F064215C
:10448000B0FBF1F00601FDF715FE00EBC00101EBFA
:10449000001061684900B0FBF1F700E045E0FDF76E
:1044A00009FE00EBC00101EB001061684900B0FBA0
:1044B000F1F06421B0FBF1F000EBC00101EB001062
:1044C000A7EB8000322101EBC0006421B0FBF1F0CA
:1044D00000F0F80006EB4006FDF7ECFD00EBC00134
:1044E00001EB001061684900B0FBF1F7FDF7E2FD58
:1044F00000EBC00101EB001061684900B0FBF1F076
:104500006421B0FBF1F000EBC00101EB0010A7EB60
:104510008000322101EBC0006421B0FBF1F000F01B
:104520000700304421688860C0E061492068884203
:1045300003D06049206888425CD1FDF7CBFD00EBD9
:10454000C00101EB001061688900B0FBF1F6FDF7D6
:10455000C1FD00EBC00101EB001061688900B0FBF8
:10456000F1F06421B0FBF1F000EBC00101EB0010B1
:10457000A6EB8000322101EB00106421B0FBF1F0CA
:1045800000F0F006FDF7A6FD00EBC00101EB001006
:1045900061688900B0FBF1F06421B0FBF1F006EB3B
:1045A0000016FDF797FD00EBC00101EB00106168FC
:1045B0008900B0FBF1F7FDF78DFD00EBC00101EBC9
:1045C000001061688900B0FBF1F06421B0FBF1F0EC
:1045D00000EBC00101EB0010A7EB8000322101EBE2
:1045E00000106421B0FBF1F000F00F0030442168AE
:1045F00088605BE0FDF75EFD00EBC00101EB0010A1
:1046000061688900B0FBF1F6FDF754FD00EBC001D5
:1046100001EB001061688900B0FBF1F06421B0FB90
:10462000F1F000EBC00101EB0010A6EB800032219D
:1046300001EB00106421B0FBF1F000F0F006FDF793
:1046400039FD00EBC00101EB001061688900B0FB8F
:10465000F1F06421B0FBF1F006EB0016FDF72AFD46
:1046600000EBC00101EB001061688900B0FBF1F7BD
:10467000FDF720FD00EBC00101EB0010616889002F
:10468000B0FBF1F06421B0FBF1F000EBC00101EBF5
:104690000010A7EB8000322101EB00106421B0FB79
:1046A000F1F000F00F00304421688860BDE8F0812F
:1046B0000010014000140140014691F83900212802
:1046C0002CD18868B0F5805F0FD10A6A1088C0F3DA
:1046D00008000B685860086918B9086A801C0862ED
:1046E00009E0086A401C086205E00B6A581C086271
:1046F00018780B685860C88C401E80B2C88458B9BE
:104700000868C06820F080000B68D8600868C0683E
:1047100040F040000B68D860002070470220FCE7A2
:104720002DE9F04104460D4617469846069E21E0C5
:10473000701CF8B12EB1FDF78FFAA0EB0800B04263
:1047400018D92068C06820F4D0702168C86020683B
:10475000406920F0010021684861202084F8390078
:1047600084F83A0000BF002084F8380000BF03201E
:10477000BDE8F081206800682840A84201D10120EE
:1047800000E00020B842D3D00020F1E710B5024885
:10479000FEF794F810BD0000A004002038B51B48B7
:1047A00000680068C0F3401070B119480068C4B2D6
:1047B00018490888411C174A118017490C546FF09A
:1047C0002000124909680860104800680068C0F3BA
:1047D0000010B8B100BF002000900C4800680068CD
:1047E00000900A4800684068009000BF00BF0A4877
:1047F000FFF712F800200749088040F6C411064868
:10480000FBF78CFD0148FEF759F838BDE0040020A5
:1048100004440040A00100206005002010B50248BB
:10482000FEF74CF810BD00002005002008B522E07E
:1048300000235A1E19461048006805F0FFFB044685
:10484000012C09D104F008F94CF604410B48FBF7A0
:1048500065FD04F0E5FA0BE000BFAC2008A30D4AAB
:104860000DA100900EA000F055F800BF04F0CEFEA0
:10487000322005F06BF8DBE7B40100205C1000206B
:104880002E2E5C5372635C757067726164652E6373
:104890000000000039AD00084552524F52000000A0
:1048A0005B2573207C202573204025732C25645DB7
:1048B0002067657474696E6720436F6E6669672050
:1048C0006661696C65642E20506C65617365204378
:1048D0006865636B210D0A0000BFFEE770B50446F2
:1048E0002046FBF744FD054600200BE000BF0749CA
:1048F000096801F040010029F9D0215C034A121D2A
:104900001160401CA842F1DB70BD00000044004073
:1049100000BFFEE70FB4054B10B503A9044A029887
:1049200000F0EAFF10BC5DF814FB0000CD62000847
:10493000400200200FB4084B10B504A902AA039846
:1049400000F0DAFF044602A9002001F06CFB2046CB
:1049500010BC5DF814FB00002760000803B4019848
:104960004100009850EAC12018BF04204A0D18BF2A
:1049700040F0010040F2FF72B2EB515F08BF40F01F
:104980000200012808BF052002B0704700000000A7
:104990002DE9F04D2DED040B2DED0C8B96B0DDE9DE
:1049A0002350259CDDF888A025F0004624F000481F
:1049B000BAF1000F14BF0121002101EB4502FE49AD
:1049C00053184A1093422AD3002814BF012300230E
:1049D00003EB44030B44F9498B4220D358EA00010E
:1049E0009FEDF78B6FD0DFF8E0B35D4503D1BAF1EF
:1049F000000F05D187E0BAF1000F08BF002100D0F9
:104A0000012101EB450111F5001F08D8002814BF52
:104A10000121002101EB440111F5001F0BD99DED8F
:104A2000241B9DED220B16B0BDEC0C8B04B0BDE831
:104A3000F04D00F05DBE0027002DBCBFE349884566
:104A400021DAE3498845A8BF02271CDAC3451ADCEE
:104A5000E04901EB2851142908DDC1F1340220FAA4
:104A600002F101FA02F282420DD108E058B9C1F117
:104A7000140228FA02F101FA02F2424503D101F0D0
:104A80000101C1F1020756EA0A011DD1002C1BDA0F
:104A9000002D18BF022F01D0012F0AD0022000F0F4
:104AA00073FE16B0BDEC0C8B04B0BDE8F04D00F009
:104AB00007BE022000F068FE00F002FE51EC100B71
:104AC00081F0004183E01EE09FEDC39B9FEDC4ABEE
:104AD000002872D1BD4880452DD105F1804010F5E8
:104AE000801008BFBAF1000F0DD0B34515DC002CC3
:104AF000A1BF9DED240B16B0BDEC0C8B04B0A8BF7C
:104B0000BDE8F08D12E0B0EE480AF0EE680A16B08B
:104B1000BDEC0C8B04B0BDE8F08D002C06DA9DEDE9
:104B2000240B51EC100B81F0004150E0AE4878446A
:104B300090ED000BEBE7D8454FD1002C4ADA2EB1AF
:104B400086423BD1BAF1000F44D126E0BAF1000F02
:104B500013D0022000F018FE00F0E6FD8DED020BF0
:104B60009DED220B8DED000B10EE900A039961F381
:104B70001E0003909DED020BC9E78DED029B9DED9C
:104B8000220B19EE901A10EE900A8DED000B61F3D6
:104B90001E0003909DED020BB9E78DED02AB9DED7C
:104BA000220B1AEE901A10EE900A8DED000B61F3B5
:104BB0001E0003909DED020BA9E729E00ADA9DEDA6
:104BC000220B51EC180B53EC102BFBF708FF41ECB8
:104BD000100B9CE79DED220B99E7864218DAB4F1A1
:104BE000804F0DD0A4F10050B0F1FF5010D1002D36
:104BF0000EDB9DED220B51EC100B04F096FCE6E76A
:104C00009DED220B53EC102B51EC100B00F0AEBCC1
:104C10009DED220B51EC100B01F04CFBBAF1000F93
:104C2000CDE90C0134D19FED720BDEB1A6F1E0406D
:104C3000B0F17F602CD1002D01DD002C0DDA002DAC
:104C400001DD002C1FDB002D16DA002C14DB012FF8
:104C500008BF9FED690B3FF45AAFB0EE490AF0EE82
:104C6000690A54E7022F18BF002D0CD0012F0AD17A
:104C7000002DFFF64CAF06E0002DB8BF002C07DA80
:104C8000012F3FF444AFB0EE4A0AF0EE6A0A3EE765
:104C9000012000EBE57A5AEA07000CD058480025BD
:104CA00080457CDD57495848884514DDB0420DDB0E
:104CB000002C19DB2BE0012000F066FD16B0BDECE6
:104CC0000C8B04B0BDE8F04D00F01EBDB34502DC16
:104CD000002C09DC1BE0864202DA002C17DA03E024
:104CE0005E4527DD002C12DD022000F04DFD00F0B6
:104CF0001BFD10EE901A19EE900A8DED020B8DED52
:104D0000009B61F31E0003909DED020BFFE6022065
:104D100000F03AFD00F018FD10EE901A18EE900A1F
:104D20008DED020B8DED008B61F31E0003909DED68
:104D3000020BECE69DED220B53EC182B51EC100B03
:104D4000FBF7A5FC9FED320BCDE90A0153EC102BCC
:104D50009DED0A0B51EC100BFBF79FFC9FED2E1BFA
:104D600053EC112BFBF796FC9DED0A1B53EC112B1A
:104D7000FBF793FC9FED2A1B53EC112BFBF78AFCEE
:104D80009DED0A0B41EC190B53EC102B51EC100B61
:104D9000FBF783FC53EC192BFBF77FFC00E07EE074
:104DA0009FED210B41EC1A0B53EC102B9DED0A0BE0
:104DB00051EC100B3CE00000FFFF1F00FFFF0F0055
:104DC000000000000000F03F0000F03F0000F07F16
:104DD0000000404301FCFFFF000000000000F07FE6
:104DE0000000000000000000B662000000000000AB
:104DF0000000000000000080000000000000F0FF44
:104E00000000E0410000F043FFFFEF3F0000000022
:104E1000000000000000D03F555555555555D53F71
:104E2000000000000000E03F000000604715F73F71
:104E3000FBF733FC41EC190B9FEDFD0B51EC1A0B0A
:104E400053EC102BFBF729FC41EC1A0B9FEDFA0BEE
:104E500053EC102B9DED0A0B51EC100BFBF71DFCD6
:104E600053EC1A2BFBF713FC41EC1A0B51EC190B0A
:104E700053EC1A2BFBF76AFB0690CDE906519DED2A
:104E8000060B53EC192B51EC100BFBF700FC53EC09
:104E90001A2BFBF7FFFB41EC100B00F09FB9002031
:104EA000B6F5801F0EDA9FEDE60B53EC102B9DED4F
:104EB0000C0B51EC100BFBF7F0FBCDE90C016FF084
:104EC00034000E4600EB2650A0F2FF38C6F3130064
:104ED000DD4940F07F6646F040568842D8BF002446
:104EE00009DDDA498142C8BF012404DC0024A6F5AB
:104EF000801608F10108D648784400EBC4000D96EE
:104F000090ED00BB9DED0C0B53EC1B2B51EC100BEB
:104F1000FBF7BDFB9DED0C0B41EC1A0B53EC1B2B6F
:104F200051EC100BFBF712FB41EC100B51EC180B82
:104F300053EC102BFBF753FD41EC1C0B51EC1A0BFF
:104F400053EC1C2BFBF7A9FB41EC190BC1488DED71
:104F5000109B7844109590ED000B4FF0005040EA04
:104F6000660000EB84408DED0A0B00F500200B90ED
:104F70009DED0A0B53EC1B2B51EC100BFBF787FB41
:104F80009DED0C1B53EC112BFBF784FB41EC100B3C
:104F900053EC102B9DED100B51EC100BFBF77DFB30
:104FA0009DED0A0B41EC1B0B53EC102B9DED100BF0
:104FB00051EC100BFBF771FB53EC1A2BFBF76AFB60
:104FC00053EC1B2BFBF763FB53EC1C2BFBF765FB34
:104FD00041EC1B0B53EC192B51EC190BFBF75DFB50
:104FE00041EC1A0B9C480621B0EE4A0AF0EE6A0A20
:104FF000784400F0E9FAB0EE40CAF0EE60CA53EC33
:105000001A2B51EC1A0BFBF748FB53EC1C2BFBF74C
:1050100044FB9DED100B41EC1A0B53EC192B51EC9A
:10502000100BFBF793FA53EC1B2BFBF736FB53ECFF
:105030001A2BFBF78BFA9DED100B41EC1A0B53EC7E
:10504000102B51EC100BFBF728FB41EC1C0B9FEDD8
:1050500084DB53EC1D2BFBF779FA53EC1A2BFBF78F
:1050600075FA0A90CDE90A519DED0A0B53EC1D2B00
:1050700051EC100BFBF70BFB53EC1C2BFBF707FB66
:1050800053EC1A2BFBF706FB9DED0A0B41EC1C0BB6
:1050900053EC102B9DED100B51EC100BFBF7FDFAB0
:1050A00041EC1A0B53EC192B51EC1C0BFBF7F5FAE6
:1050B0009DED0A0B41EC190B53EC102B51EC1B0B23
:1050C000FBF7EBFA53EC192BFBF740FA41EC190B09
:1050D00051EC1A0B53EC192BFBF738FA1090CDE971
:1050E00010519DED100B53EC1A2B51EC100BFBF7EC
:1050F000CEFA53EC192BFBF7CDFA41EC190B9FEDCF
:105100005A0B53EC102B9DED100B51EC100BFBF7D1
:10511000C4FA41EC1A0B9FED560B51EC190B53ECF2
:10512000102BFBF7BAFA41EC190B9FED530B53EC24
:10513000102B9DED100B51EC100BFBF7AEFA53EC5E
:10514000192BFBF703FA41EC100B4D48784400EBA8
:10515000C40090ED001B51EC100B53EC112BFBF72E
:10516000F5F941EC190B4046FBF709FBCDE90A01C3
:1051700053EC192B51EC1A0BFBF7E8F941EC100B2F
:105180004048784400EBC40090ED00BB51EC100B9C
:1051900053EC1B2BFBF7DAF99DED0A1B53EC112B9B
:1051A000FBF7D4F90690CDE906519DED0A0B53ECBF
:1051B000102B9DED060B51EC100BFBF768FA53EC2E
:1051C0001B2BFBF764FA53EC1A2BFBF760FA53EC3A
:1051D000192BFBF75FFA41EC100B00BF781EB0EE05
:1051E00048AAF0EE68AA5AEA000008BF9FED268B95
:1051F0009DED241B53EC102B8DED001B00959DEDB8
:10520000240B51EC100BFBF748FA9DED000B41EC21
:10521000190B53EC102B9DED240B51EC100BFBF7ED
:1052200036FA9DED061B53EC112BFBF736FA2FE0F7
:10523000FE822B654715F73F44DF5DF80BAE543E09
:1052400000000000000040438E9803007AB60B0077
:10525000645E0000925E00009C5D000000000000A3
:105260000000000000000840000000E009C7EE3F19
:10527000FD033ADC09C7EE3FF5015B14E02F3EBEAB
:10528000305C0000EA5B0000000000000000F0BF9E
:1052900053EC192BFBF75AF99DED060B41EC190B5A
:1052A00053EC102B9DED000B51EC100BFBF7F5F9B7
:1052B000CDE910019DED100B51EC190B53EC102BA7
:1052C000FBF744F9CDE902010C46AB498C422FDBD8
:1052D000611A084318D19DED100B53EC102B9DED76
:1052E000020B51EC100BFBF7D2F941EC1B0B9FEDBD
:1052F000A40B51EC190B53EC102BFBF727F953ECD3
:105300001B2BFBF76DFA2DD2022000F03DFA00F0C6
:105310000BFA10EE901A18EE900A8DED020B8DED3F
:10532000008B61F31E0003909DED020BFFF7EFBBB6
:10533000954A24F00041914214D3944921440843F2
:105340007FF4E5AC9DED100B53EC102B9DED020BA3
:1053500051EC100BFBF79BF953EC192BFBF740FAC0
:105360007FF6D5AC24F0004089498A4A002601EB3B
:10537000205182422BDA481C4FF4801121FA00F0B0
:105380002044854AC0F30A517A44A1F2FF3192EDDC
:10539000000B824A8DED0A0BCA4020EA0202C0F3DC
:1053A000130040F48010C1F1140120FA01F60B92B1
:1053B000002CB8BF76429DED0A0B53EC102B9DEDEF
:1053C000100B51EC100BFBF762F9CDE910019DEDCC
:1053D000100B51EC190B53EC102BFBF7B7F89FEDAA
:1053E000700B0A90CDE90A5153EC102B9DED0A0B7E
:1053F00051EC100BFBF751F941EC1B0B9FED6A0BC5
:1054000053EC102B9DED0A0B51EC100BFBF745F9FB
:105410009DED100B41EC1C0B53EC102B9DED0A0B7A
:1054200051EC100BFBF733F953EC192BFBF732F966
:105430009FED5F1B53EC112BFBF72FF953EC1C2B4B
:10544000FBF784F841EC190B51EC1B0B53EC192BB7
:10545000FBF77CF8CDE902019DED020B53EC1B2B11
:1054600051EC100BFBF713F953EC192BFBF712F966
:105470009DED020B41EC190B53EC102B51EC100B72
:10548000FBF70BF9CDE90A014B489DED0A0B05210D
:10549000784400F099F89DED0A1B51EC100B53EC89
:1054A000112BFBF7FAF89DED021B53EC112BFBF7C8
:1054B000F1F8CDE906019DED020B53EC192B51ECEF
:1054C000100BFBF7EAF853EC192BFBF73FF89FEDB5
:1054D0003C0B41EC190B53EC102B9DED060B51ECE2
:1054E000100BFBF7D4F89DED060B41EC1B0B53ECB6
:1054F000102B9DED020B51EC100BFBF7CEF853EC8B
:105500001B2BFBF76CFA53EC192BFBF7C0F89DED46
:10551000021B53EC112BFBF7BAF853EC1A2BFBF7D9
:10552000B9F8CDE9020101EB065001150029C8BF09
:10553000039015DC9DED020B324651EC100BFBF78E
:10554000BDFAFFF70BFA042808BF00F0FDF8324659
:105550009DED020B51EC100BFBF7B0FACDE9020107
:105560009DED020B51EC180B53EC102BFBF795F84B
:10557000FFF72DBB0000000000009040000000007D
:10558000FE822B654715973C00CC904000346F3F5E
:1055900001FCFFFF0000E03F5C5A0000FFFF0F002E
:1055A00000000000432EE63F396CA80C615C20BE71
:1055B000EF39FAFE422EE63F2C59000000000000B1
:1055C000000000000000004070B504462DED028B85
:1055D0004D1E00EBC500B0EE408AF0EE608A90ED03
:1055E000000B35F0060017D053EC182B51EC100BC4
:1055F000FBF753F841EC100B6D1E04EBC50090ED6A
:10560000001B51EC100B53EC112BFAF79FFF41ECF0
:10561000100B35F00600E7D1022D36D0042D1CD03A
:10562000062D1CBFBDEC028B70BD53EC182B51EC4A
:10563000100BFBF732F894ED0A1B53EC112BFAF721
:1056400085FF53EC182BFBF728F894ED081B53EC5F
:10565000112BFAF77BFF41EC100B53EC182B51EC9C
:10566000100BFBF71AF894ED061B53EC112BFAF70D
:105670006DFF53EC182BFBF710F894ED040B53EC73
:10568000102BFAF763FF41EC100B53EC182B51EC85
:10569000100BFBF702F894ED021B53EC112BFAF7F9
:1056A00055FF53EC182BFAF7F8FF94ED001B53EC61
:1056B000112BFAF74BFFBDEC028B41EC100B70BDC8
:1056C0009FED070B10B553EC102B9FED070B51EC22
:1056D000100BFBF784F941EC100B10BD000000002B
:1056E0000000000000000000000000000000F03F8B
:1056F00010B553EC112B51EC100BFAF727FF41ECCE
:10570000100B10BD000000009FED050B10B553EC11
:10571000102B51EC100BFBF762F941EC100B10BD94
:1057200000000000000000009FED050B10B553ECD9
:10573000102B51EC100BFAF7B0FF41EC100B10BD21
:1057400000000000000000709FED050B10B553EC49
:10575000102B51EC100BFAF7A0FF41EC100B10BD11
:10576000000000000000001002E008C8121F08C17D
:10577000002AFAD170477047002001E001C1121FD2
:10578000002AFBD170470000014908607047000003
:10579000440200202DE9FF5FDDE90220010DDDF864
:1057A00038B0024318D044F61050A1F2FF31414303
:1057B0000D140F98012820D0A5EB0B00401C5FEAC8
:1057C000000A4FF00004474EDFF81C91A0465046F7
:1057D00016D5CAF1000728E00F98012443A201283A
:1057E00008D0002100980F9BC0E90021C0E90243C6
:1057F000BDE8FF9F6FEA0B01F4E7CBF10000DEE7A5
:10580000074612E0F80707D022463346404649468D
:10581000FAF743FF8046894622463346104619462A
:10582000FAF73BFF04460E467F10002FEAD1DDE970
:105830000201BAF1000F42464B4602DAFAF72DFF99
:1058400001E0FBF7CCF804460E460022284BFAF79D
:10585000C7FF03D84FF0FF30014607E00022254B79
:1058600020463146FAF772FEFBF73FF9102409E0B3
:10587000002C0ADB0A220023FAF700FD019B3032DC
:105880001A55641E50EA0102F2D1641C019AC4F157
:10589000110314440F9A012A03D0012208430DD1A9
:1058A0000AE0084304D000204FF0110B0F9080E76E
:1058B000A3EB0B056D1E0DE05B4504DD4FF0000210
:1058C00005F1010504E003DA4FF00002A5F101053E
:1058D000002AECD000980F99C0E90231C0E90045D8
:1058E00086E70000000024400000F03F3000000088
:1058F0000000F0430000E03F2DE9FF4F95B09B46CC
:105900008946064600250FE2252877D10024274640
:10591000F84A0121059400E0044316F8013F203BBA
:1059200001FA03F01042F7D130782A2811D06FF035
:105930002F033078A0F13002092A16D8059A44F0D6
:10594000020402EB820203EB42021044761C059033
:10595000EFE759F8042B0592002A03DA504244F489
:105960000054059044F00204761C30782E2816D19D
:1059700016F8010F44F004042A280DD06FF02F020E
:105980003078A0F13003092B09D807EB870302EB2D
:105990004303C718761CF3E759F8047B761C30786C
:1059A0006C280FD006DC4C2817D068280DD06A2848
:1059B00014D104E0742810D07A280FD10DE044F4FB
:1059C00000140AE044F4801401E044F440147278B6
:1059D000824202D104F58014761C761C3078662849
:1059E0000BD013DC582877D009DC002875D0452867
:1059F000F6D04628F4D047281AD19DE118E0632854
:105A000035D0642879D0652812D195E1702873D0FB
:105A100008DC6728F1D069286FD06E280DD06F2878
:105A200006D1B5E073282CD0752875D0782874D0AD
:105A30005A46179990476D1C75E1C4F3025002282D
:105A400009D003280DD0D9F8001004280DD00D601E
:105A500009F1040967E1D9F80010EA17C1E9005219
:105A6000F6E7D9F800100D80F2E70D70F0E719F8AD
:105A7000041B8DF8001000208DF80100EA4601207B
:105A800003E059F804AB4FF0FF3061074FF000011D
:105A900002D40DE008F101018846B9420FDA8045D1
:105AA000F8DB1AF808100029F4D108E008F1010128
:105AB00088468142FADB1AF808100029F6D10598C9
:105AC0005B46A0EB080721463846179A00F094FA87
:105AD000284400EB080507E04DE029E10DE01AF845
